:100000000C947E000C94A6000C94A6000C94A60000
:100010000C94A6000C94A6000C94A6000C94A600C8
:100020000C94A6000C94A6000C94A6000C943C0C16
:100030000C94A6000C94A6000C94A6000C94A600A8
:100040000C9489110C94A6000C94C9140C94FB1404
:100050000C94A6000C94A6000C94A6000C94A60088
:100060000C945C100C94A6005507800749078D0777
:10007000A307C707C107C707C707C707E50767077C
:10008000810B9D0BA70A9D0B1A0B9D0B850A320A4B
:100090009D0B9D0B9D0B9D0B9D0B38099D0B180A0D
:1000A0009D0B6C0A00000008000201000003040719
:1000B0000000000000000000010204081020408041
:1000C00001020408102001020408102004040404A2
:1000D00004040404020202020202030303030303F2
:1000E00000000000250028002B0000000000240074
:1000F00027002A00A4049008720F2B1511241FBE9C
:10010000CFEFD8E0DEBFCDBF12E0A0E0B1E0E0E984
:10011000FFE202C005900D92A431B107D9F725E0A6
:10012000A4E1B2E001C01D92A330B207E1F710E0F4
:10013000CCEFD0E004C02297FE010E944D16C43FD0
:10014000D107C9F70E94DE150C94C6170C94000065
:100150000F931F93CF93DF93EC018B0188819981DB
:10016000DC01ED91FC916F770190F081E02D099514
:1001700088819981DC01ED91FC91B801660F672FB0
:10018000661F770B6F770190F081E02DDF91CF91A3
:100190001F910F910994DC018D919C91DC01ED91EF
:1001A000FC910190F081E02D60EF0994DC018D91CC
:1001B0009C91DC01ED91FC910190F081E02D67EFC5
:1001C0000994CF93DF93EC0188819981DC01ED9153
:1001D000FC910190F081E02D69EF0995888199816A
:1001E000DC01ED91FC910190F081E02D62E0099538
:1001F00088819981DC01ED91FC910190F081E02DE5
:1002000065E0DF91CF9109941F93CF93DF93EC01C9
:100210008A818823D9F1CE010E94CB0088819981FF
:10022000DC01ED91FC910190F081E02D69E70995E9
:1002300088819981DC01ED91FC91AB81BC810190B9
:10024000F081E02D6C91099588819981DC01ED9117
:10025000FC91AB81BC810190F081E02D11966C91F5
:10026000099512E08A81181758F4EB81FC81E10F9F
:10027000F11D608170E0CE010E94A8001F5FF2CFE7
:10028000CE01DF91CF911F910C94D600DF91CF91D9
:100290001F910895CF92DF92EF92FF920F931F93D9
:1002A000CF93DF938C01EB01C42ED22E6EE071E070
:1002B000CE010E94AC177C016FE270E0CE010E947B
:1002C000A117009739F46CE570E0CE010E94A117E8
:1002D000009711F0EC012196E114F10451F4FE01B4
:1002E00001900020E9F7EC1BEF5FD8011296EC9328
:1002F00006C0EC1AFD0AE394E394F801E282D80107
:1003000013968D919C9114970E940317F801E28037
:10031000F12CC70101960E946B16D80114969C938C
:100320008E931397FC01EE0DFF1D1082FC01C0821D
:10033000D18212964C9150E042505109BE01029672
:10034000DF91CF911F910F91FF90EF90DF90CF90B1
:100350000C949217DC018D919C91DC01ED91FC9144
:100360000480F581E02D09940F931F93CF93DF93C1
:10037000FC012085213749F0293709F049C0DF9178
:10038000CF911F910F910C940401FC01EB56FF4F8C
:100390000190F081E02D309709F450C0DC01A75B9B
:1003A000BF4F4D915C919A012150310937FD9A015F
:1003B000B90175956795062F40E050E020E030E0E8
:1003C0004E5F5F4F2017A0F4EC01C40FD51F1F81B3
:1003D000DC01A20FB31F18961C931897C885D0E8AC
:1003E000CD9F1019112418961C932F5F3F4FE8CF13
:1003F000DC01A60FB11D17962C911797222311F03F
:1004000018961C920896DF91CF911F910F91099435
:10041000FC01E956FF4F0190F081E02D309771F01B
:10042000AC01475F5F4FDC01A75BBF4F6C91615030
:10043000822FDF91CF911F910F910994DF91CF917E
:100440001F910F9108950F931F93CF93DF93EC01AA
:100450008A0188819981DC01ED91FC916F70606E59
:100460000190F081E02D0995B801CE01DF91CF9187
:100470001F910F910C94A8000F931F93CF93DF93BC
:10048000EC018A0188819981DC01ED91FC916F700A
:1004900060690190F081E02D099588819981DC01E6
:1004A000ED91FC91602F6F770190F081E02D09951F
:1004B00088819981DC01ED91FC91B801660F672F6D
:1004C000661F770B0190F081E02DDF91CF911F9196
:1004D0000F910994CF92DF92EF92FF920F931F93A7
:1004E000CF93DF9300D01F92CDB7DEB78C01F42EEF
:1004F0002A833B8369830E94CB00D8018D919C9114
:10050000DC01ED91FC910190F081E02D698109956C
:100510002A81E22EC22E3B81D32E8C2D8E198F156F
:1005200040F4F60161916F0170E0C8010E94A800DB
:10053000F4CFC8010F900F900F90DF91CF911F91D2
:100540000F91FF90EF90DF90CF900C94D6009A011E
:10055000613751F4FA0101900020E9F73197E41B6B
:10056000F50B4E2F0C946A020895AB0161E70C94D1
:10057000A702DC018D919C91DC01ED91FC91019031
:10058000F081E02D0994603DC1F028F4603969F0F4
:10059000603C79F00895643FA1F0653FB1F0603EA2
:1005A000C9F4FC01E957FF4F13C0FC01E757FF4FA7
:1005B0000FC0FC01E557FF4F0BC0FC01E357FF4F95
:1005C00007C0FC01E157FF4F03C0FC01EF56FF4F8E
:1005D0005183408308956F3F29F4FC01ED56FF4F8E
:1005E00051834083089589569F4FFC015183408376
:1005F0000895860F911DFC01E55BFF4F80810895F2
:10060000860F911DFC01E55BFF4F80818F3709F05C
:1006100040830895860F911D860F911DFC01E15ABC
:10062000FF4F808191810895860F911D860F911D46
:10063000FC01E15AFF4F518340830895FC0115826C
:100640001682178280E090E0DF01A80FB91F18968C
:100650001C92019680349105B9F7DF01A85BBF4F6A
:100660001C9211961D921C92ED56FF4F0190F08145
:10067000E02D309709F009940895FC01E756FF4FEB
:100680001082FC011282148213820C941E03CF93F9
:10069000DF93EC01FC01E85BFF4F80818823A1F030
:1006A000673F31F41082CE01DF91CF910C94B401F9
:1006B000FE01E75BFF4F80819181C80FD91F6887DA
:1006C00001969183808398C08D81882309F452C05C
:1006D00067FD50C081508D83FE01E80FF11D6087DA
:1006E00081118AC08E81882309F486C0803DA1F1E2
:1006F00040F4803981F0803CD9F5FE01E557FF4F89
:100700002EC0843FC9F0853FD9F0803E89F5FE01B7
:10071000E957FF4F03C0FE01E757FF4F0190F081FB
:10072000E02D309729F18885698570E090E8899FF0
:10073000600D711D11241AC0FE01E157FF4F03C067
:10074000FE01EF56FF4F0190F081E02D309781F0D0
:10075000688570E089850BC0FE01E357FF4F01906B
:10076000F081E02D309721F0688570E08F81099548
:100770001E8242C0862F603F28F4807F90E06F7019
:100780006F8301C090E0803F910549F17CF4803C8B
:10079000910509F124F480399105D9F02DC0803DEF
:1007A0009105C9F0803E9105A1F026C0893F9105D1
:1007B000E9F03CF49C01245F31092230310548F016
:1007C0001BC08F3F9105C1F4CE01DF91CF910C94F6
:1007D0001E0392E001C091E09D838E830DC081E0F5
:1007E0008083C75BDF4F1982188206C084E192E0E4
:1007F000DF91CF910C94E100DF91CF910895CF93D9
:10080000DF93EC0188819981DC01ED91FC910680F8
:10081000F781E02D09958F3FBFEF9B0731F0682FDF
:10082000CE01DF91CF910C944703DF91CF910895D2
:100830007F928F929F92AF92BF92CF92DF92EF9270
:10084000FF920F931F93CF93DF93762EEA016801F7
:1008500010E0EE24D7FCE094FE2C4901AA2497FC7A
:10086000A094BA2C212F30E02C173D0794F4C70137
:10087000B6010E94021261E0872D0E944E13C5014D
:10088000B4010E94021260E0872D0E944E131F5F88
:10089000E9CFDF91CF911F910F91FF90EF90DF9003
:1008A000CF90BF90AF909F908F907F9008950F93BF
:1008B0001F93CF93DF93EC01FC01E756FF4F80813C
:1008C000811126C061E08DE00E94151302ED10E059
:1008D00028E230E042E050E06DE0CE010E941804D2
:1008E0006AEF70E080E090E00E94021228E230E0BF
:1008F00045E050E06DE0CE010E9418046DE770E025
:1009000080E090E0DF91CF911F910F910C94021243
:10091000DF91CF911F910F910895CF93DF93EC0159
:1009200026E082E694E00E94671482E694E09983D0
:100930008883CE010E945704CE010E94E100CE01BF
:10094000DF91CF910C94040184E192E00C943D037B
:100950000F931F93CF93DF931F92CDB7DEB7182F5E
:10096000062F8EEF810F8231C0F4612F84E192E077
:1009700079830E94F9025981813079F4402F612FE7
:1009800084E192E00E941403602F812F0F90DF9189
:10099000CF911F910F910C944E130F90DF91CF9137
:1009A0001F910F9108951F93CF93DF93182FEB01A1
:1009B0008431A8F5682F84E192E00E94F902833027
:1009C000F9F0843061F58EEF810F823180F4E12FF0
:1009D000F0E0E354FD4F408150E0CA01880F991FB9
:1009E000840F951FBE018F529D4F0E94D90DAE01FD
:1009F000612F84E192E0DF91CF911F910C94140359
:100A0000133041F08BEF810F823020F087EF810FA0
:100A1000833068F7BE01812F0E948D12E8CFDF91ED
:100A2000CF911F910895DF92EF92FF920F931F9342
:100A3000CF93DF93082FE62E833008F08CC0182F59
:100A4000110F110F110F185F153108F014E1C02FAD
:100A5000CC0FCC0FCC0FD0E0FF24F394C11758F586
:100A60008EEF8C0F823120F56C2F84E192E00E9492
:100A7000F902813039F06C2F84E192E00E94F90292
:100A8000811116C0DD24D3948F2D8E2109F4D12C31
:100A90006C2F84E192E00E94F902813009F044C099
:100AA000DF294D2D50E06C2F84E192E00E94140369
:100AB000FF0CCF5FD3CF01110AC0DC7FF8949BB14C
:100AC0008D2F80958923DE218D2B8BB92BC0013092
:100AD000E1F42D2F2E21F89495B18D2F8F738095F1
:100AE0008923922F9F73892B85B988B1E22EE294D6
:100AF000E694E69433E0E322D295D695D695D3706A
:100B0000D095D823ED2AE8B80DC0DF70F89498B1DD
:100B10008D2F880F880F80958923ED22EE0CEE0C27
:100B20008E2988B9789417C06C2F84E192E00E94D6
:100B3000F9028111B6CFDD2009F4B3CF6C2F84E127
:100B400092E00E940A03019709F4ABCF62E08C2F78
:100B50000E941513A6CFDF91CF911F910F91FF90A7
:100B6000EF90DF900895CF93C82F863058F54091CD
:100B700071035091720321E030E0082E02C0220F71
:100B8000331F0A94E2F7672B49F42095309524230C
:100B90003523309372032093710314C0242B352B1B
:100BA00030937203209371038091AE0281110AC0C9
:100BB0008C2F0E947012AC016C2F84E192E0CF91D7
:100BC0000C942302CF910895DB019A019091AF021A
:100BD0009C30D0F54091B002682F70E0442369F05A
:100BE000E42FF0E0E055FD4F8081FB01E354FD4F21
:100BF000808341504093B00207C0FB01E354FD4F96
:100C000090839F5F9093AF02FB01E354FD4F1A1650
:100C10001B067CF41216130664F4408150E0CA01EE
:100C2000880F991F840F951FAD018F529D4F0C9413
:100C3000140D208130E0C901880F991F820F931F86
:100C40008F529D4F0C94920D63E171E084E192E02C
:100C50000C94B502CF93DF93C82FD0E0C354DD4F7F
:100C6000288130E0C901880F991F820F931F8F528E
:100C70009D4F0E94980D88819091AF02891306C004
:100C8000882379F081508093AF020BC0992349F0FB
:100C9000E091B002EF5FE093B002F0E0E055FD4F6D
:100CA00080838FEF8883DF91CF9108951F93CF9337
:100CB000DF93162FC82FD0E0FE01E859FC4F90813A
:100CC0001923C559DC4F411103C09881911741F098
:100CD000412F50E0682F84E192E00E943C0218838B
:100CE000DF91CF911F910895833020F5282F30E0B8
:100CF000F901E259FC4F6083672BE1F0F901E859F3
:100D0000FC4F9081811103C069B16C7F0FC08130AD
:100D100049F463B126B140E4249F900111246F731C
:100D2000622B04C066B16C7366956695692341E0D9
:100D30000C945606089580916E03882349F069B19A
:100D40008091680368236C7F40E080E00E94560633
:100D500080916F03882379F063B186B120E4829F8C
:100D6000C00111246F73682B80916903682340E0F0
:100D700081E00E94560680917003882359F066B185
:100D80006C736695669580916A03682340E082E003
:100D90000C94560608951092F7028FEF80930A0183
:100DA0000895FF920F931F93CF93DF93182FEB01BA
:100DB000682F84E192E00E94F9028F3709F405C19F
:100DC000612F84E192E00E94F902863041F4809123
:100DD000F702882321F0C630D10509F0E3C00EEFF9
:100DE000010F0231B8F4C430D105A1F0E12FF0E0D9
:100DF000E354FD4F80818C3068F490E09C01220F19
:100E0000331F280F391FC9018F529D4F0E943E0E7C
:100E10008111CBC0B2EFFB2EF10E85E08F1550F0A3
:100E200061E070E0C230D10511F060E070E08F2D1C
:100E30000E94B3050231E8F4E12FE695E695E695C8
:100E4000812F8770F0E0E859FC4F21E030E0082E58
:100E500001C0220F0A94EAF7209719F0CB30D10590
:100E600021F48081822B808304C0209580812823F7
:100E7000208340E050E0612F84E192E00E9414035F
:100E8000CC30D10508F083C0FE01EC5CFF4F0C9420
:100E90004B1685E08F1508F498C0023120F460E00D
:100EA000812F0E94151342E008C0023108F08DC066
:100EB00060E0812F0E94151340E0612F84E192E0F1
:100EC000DF91CF911F910F91FF900C94000302319D
:100ED00008F07BC062E0812F0E9415134BE0612F68
:100EE00084E192E00E94000341E050E0612F84E140
:100EF00092E0DF91CF911F910F91FF900C9414031A
:100F0000023108F062C060E0812F0E944E1361E060
:100F1000812F0E94151341E0D0CF133049F08BEFA1
:100F2000810F823028F087EF810F833008F04DC0A9
:100F300061E0812F0E94151360E070E0812F0E9414
:100F40008D1243E0BACF023108F03FC044E0612F78
:100F500084E192E00E940003E12FF0E0E354FD4FB2
:100F600080818F3F31F190E09C01220F331F280FC9
:100F7000391FC9018F529D4F0E943E0E811125C01D
:100F800018C08EEE810F823000F546E096CF67E202
:100F900071E084E192E0DF91CF911F910F91FF907A
:100FA0000C94B5020E94CB061ACF812F0E942A060C
:100FB00031CF4FEF5FEF6FEF7FEF812FDF91CF9159
:100FC0001F910F91FF900C94E405DF91CF911F9139
:100FD0000F91FF900895CF93C0E08EEE8C0F82307A
:100FE00028F466E070E08C2F0E94D106CF5FC431F8
:100FF000A1F781E08093F70289E993E0CF910C9407
:10100000E40E0F931F93CF93DF9381E08093AE02A2
:101010008091F70281110E94CB0610926E0310920C
:10102000680310926B0310926F0310926903109281
:101030006C031092700310926A0310926D03CDEB53
:10104000D2E010E00FEF82EF810F863018F462E0FB
:1010500070E006C08EEF810F823128F461E070E00D
:10106000812F0E94D10609931F5F143161F71092FE
:101070007203109271031092B0021092AF0210929C
:10108000AE02DF91CF911F910F91089525E042E0CC
:1010900068E371E084E192E00E944A0143ED54E08C
:1010A00060EE84E192E00E94C30243E155E060E912
:1010B00084E192E00E94C30243EB55E060EC84E1DE
:1010C00092E00E94C30244E756E060ED84E192E0C2
:1010D0000E94C30241ED56E064EF84E192E00E9479
:1010E000C30248EA54E065EF84E192E00E94C30243
:1010F00044E259E060EF84E192E00E94F30241E0B3
:1011000058E06FEF84E192E00E94EB0240E051EE84
:1011100060E070E084E192E00E948D040C9401088C
:10112000CF93DF93C1EDD2E0CE010E94F80C23965D
:1011300082E0C53FD807C1F7DF91CF910895682FAE
:1011400089E993E00C94A50E89E993E00E94550E7D
:101150000895AF92BF92DF92EF92FF920F931F9389
:10116000CF93DF931F92CDB7DEB7F82E5B01D42E5D
:101170006F3F8FEF7807C1F06F2D89E993E02983E6
:101180000E94EE0E8A2D0E949F082981622F89E914
:1011900093E00E94F80E8091F5029091F60200977C
:1011A00029F00E942A1202C0A12CB12C4D2D6F2DC6
:1011B00089E993E00E946C0F0D2D10E089E993E01E
:1011C0000E944D0E081719071CF46AE871E009C067
:1011D00089E993E00E944D0E8017910734F467EA85
:1011E00071E084E192E00E94B502F092F802A092D0
:1011F000F9025AEFE52E52E0F52EA12CB12CA016E3
:10120000B1069CF042E04D0D28EF32E067E784E143
:1012100092E00F90DF91CF911F910F91FF90EF908F
:10122000DF90BF90AF900C946A0289E993E00E942E
:101230004D0E892B39F30E94A408F70181937F0199
:10124000FFEFAF1ABF0ADBCFEF92FF920F931F930E
:10125000CF93DF93162FEA0190E0FC01E956F109E4
:10126000E231F10508F069C2E05CFF4F0C944B16C7
:101270002981922F987125FF03C063EC71E05BC058
:10128000888126FB222720F931E02327983071F14D
:1012900048F4911152C2682F89E993E00E94EE0E42
:1012A00002E007C0903109F440C0983109F472C0DF
:1012B00044C2011768F4FE01E00FF11D91818081A5
:1012C00020E8929F801911240E949F080E5FF1CFA1
:1012D00089E993E00E946F0F86E490E0DF91CF915F
:1012E0001F910F91FF90EF900C942A124A816B810D
:1012F000163069F430E8639FB0011124640F711D4A
:101300009D814C8130E8939F4019112406C090E8DC
:10131000699F401911246FEF7FEFDF91CF911F91EB
:101320000F91FF90EF900C94A908E0910A01E7302B
:1013300064F063EE71E084E192E0DF91CF911F9160
:101340000F91FF90EF900C94B5029A814B8130E899
:10135000663061F4439FA0011124490F511D3D8166
:101360009C8160E8369F9019112405C0439F901915
:1013700011244FEF5FEFEF5FE0930A0165E0E602B3
:10138000F0011124E85CFC4F8083528341839383F6
:101390002483D3C160910A0116163CF470E0262F15
:1013A000332727FD309595E00FC08FEF80930A011A
:1013B000C4C1949FF001959FF00D1124E85CFC4F8F
:1013C0004081481739F07F5F472F50E024173507D9
:1013D00084F770E0C5E0872F90E02817390724F1E3
:1013E000783000F5AC014F5F5F4FC49FD001C59FBF
:1013F000B00D1124A85CBC4F4C91C89FF001C99F4F
:10140000F00D1124E85CFC4F408311968D919C9166
:1014100012979283818313968C91139783831496EA
:101420008C9184837F5FD7CF615060930A0185C11F
:101430002881898130E8839FC0011124820F911D8A
:10144000009721F09093F6028093F5028091F702C5
:10145000811173C1DF91CF911F910F91FF90EF9098
:101460000C94EB07653008F468C118810981FA8093
:10147000EB80CC818EEF810F823108F05EC1E12FCD
:10148000F0E0E354FD4FE081EC3060F4F0E0CF0198
:10149000880F991F8E0F9F1F8F529D4F0E943E0EE7
:1014A000811147C160E8C69FA00111244E0D511D56
:1014B00080E8F89EB0011124600F711D812F0E94F9
:1014C000E40564E070E0812FDF91CF911F910F91CF
:1014D000FF90EF900C94D106623008F42EC1288161
:1014E000898130E8839FC0011124820F911D909360
:1014F0000C0180930B01892B09F01FC181E090E062
:1015000090930C0180930B0118C1623008F415C14F
:10151000698170E0123091F08A8120E8829FC001D9
:101520001124682B792B133049F08B8190E090E4E3
:10153000899F902D88271124682B792B8881DF9132
:10154000CF911F910F91FF90EF900C94D30460EF17
:1015500084E192E00E94B9026CE684E192E00E948C
:10156000B902CEEF84EF8C0F863058F462E084E14C
:1015700092E00E94B9026AE084E192E00E94B9021E
:101580000DC0C13059F463E084E192E00E94B902D9
:1015900068E084E192E00E94B90208C08DEF8C0FF0
:1015A000823088F389EF8C0F833068F3C23150F4B6
:1015B00064E084E192E00E94B9026EE084E192E08E
:1015C0000E94B90280EF8C0F823050F466E084E113
:1015D00092E00E94B90261E084E192E00E94B902C7
:1015E0006FE784E192E00E94B902CF5FC231B9F1A6
:1015F000C23108F0B7CF60E084E192E00E94B90206
:1016000061E084E192E00E94B9026BE084E192E043
:101610000E94B90261E084E192E00E94B90261E0B7
:1016200084E192E00E94B90261E084E192E00E94CC
:10163000B90298CF662309F480C0C88160EF84E1C5
:1016400092E00E94B9026EE684E192E00E94B90243
:101650006C2F84E192E00E94B902C43158F067EF28
:1016600084E192E0DF91CF911F910F91FF90EF9075
:101670000C94B9026C2F84E192E00E94F902682F69
:1016800084E192E00E94B9026C2F84E192E00E9412
:101690000A03682F6F7784E192E00E94B9026C2FF1
:1016A00084E192E00E940A038078892B79F06C2F04
:1016B00084E192E00E940A03880F892F881F990B0A
:1016C000682F6F7784E192E00E94B9026C2F84E169
:1016D00092E00E940A038827907C892B09F4BFCFEF
:1016E0006C2F84E192E00E940A03990F880B990FF6
:1016F000982F881F682F6F7784E192E00E94B902CB
:10170000AECF60EF84E192E00E94B9026AE684E124
:1017100092E00E94B902C2EFC63010F06FE701C03C
:101720006C2F84E192E00E94B902CF5FC630A1F72E
:1017300096CF812F0E942A06B5CEDF91CF911F91BF
:101740000F91FF90EF9008958F929F92AF92BF926A
:10175000CF92DF92EF92FF920F931F930E949B060E
:1017600084E192E00E94AA01892B29F084E192E0B1
:101770000E94FF03F5CF0E94D3116093640370931E
:1017800065038093660390936703C0906003D090D5
:101790006103E0906203F090630340910B0150916C
:1017A0000C014A01A12CB12C8B019C010C191D09C3
:1017B0002E093F0980169106A206B30608F051C013
:1017C000D501C4018C0D9D1DAE1DBF1D809360030E
:1017D00090936103A0936203B093630312EF6EE0F2
:1017E000610F1630D8F484E192E00E94F902823051
:1017F000A9F42091710330917203012E02C0359536
:1018000027950A94E2F720FF09C0812F0E947012E9
:10181000AC01612F84E192E00E9423021F5F163029
:10182000F1F680910A0187FD1CC010E005E0812FD0
:1018300090E020910A01332727FD309528173907BA
:1018400084F0089FF001099FF00D1124E85CFC4F23
:10185000618172812481438180810E94A9081F5F78
:10186000E6CF1F910F91FF90EF90DF90CF90BF9048
:10187000AF909F908F9008951F920F920FB60F9286
:1018800011242F933F934F935F936F937F938F9385
:101890009F93AF93BF93EF93FF938091740387FF60
:1018A00005C010928500109284001AC02091740324
:1018B000332727FD30958091730390E0281739076F
:1018C0007CF480917403992787FD9095FC01EE0FBD
:1018D000FF1FE80FF91FEB58FC4F808186FD15C0F4
:1018E000809174038F5F8093740320917403332776
:1018F00027FD30958091730390E028173907BCF4D9
:10190000809174038C305CF112C08091740399272C
:1019100087FD9095FC01EE0FFF1FE80FF91FEB58B4
:10192000FC4F808160E08F730E944E13D9CF80916D
:10193000840090918500049680349C4918F480E4DA
:101940009CE905C080918400909185000496909355
:101950008900809388008FEF8093740338C02091B2
:1019600084003091850080917403992787FD9095BC
:10197000FC01EE0FFF1FE80FF91FEB58FC4F8181B0
:101980009281820F931F90938900809388008091A9
:101990007403992787FD9095FC01EE0FFF1FE80F58
:1019A000F91FEB58FC4F808186FF11C080917403B2
:1019B000992787FD9095FC01EE0FFF1FE80FF91F97
:1019C000EB58FC4F808161E08F730E944E13FF91B2
:1019D000EF91BF91AF919F918F917F916F915F91A7
:1019E0004F913F912F910F900FBE0F901F90189520
:1019F000209173032C30A0F431E0320F3093730345
:101A0000FC012083822F90E0FC01EE0FFF1FE80F06
:101A1000F91FEB58FC4F88EB9BE09283818308957C
:101A20002FEFFC0120830895DF92EF92FF920F9336
:101A30001F93CF93DF93EC01D62E7A018901888121
:101A40008C3008F066C061E08D2D0E9415138881EE
:101A5000A82FB0E0FD01EE0FFF1FEA0FFB1FEB58B0
:101A6000FC4F2D2D2F739081907C922B908360E200
:101A700072E06E197F0977FF02C06D5F7F4F759529
:101A8000679575956795698340E659E0401B510B52
:101A900057FF02C04D5F5F4F559547955595479548
:101AA0004A836CE00E94FE159CE0899FB0011124DE
:101AB00020E030E0A901460F571FFA01EE0FFF1F8B
:101AC000E40FF51FEB58FC4F908196FD16C02F5F79
:101AD0003F4F2C30310571F781110FC010928000FB
:101AE00082E0809381001092850010928400B19A68
:101AF00080916F00826080936F00888190E0FC018C
:101B0000EE0FFF1FE80FF91FEB58FC4F8081806438
:101B100080838881DF91CF911F910F91FF90EF908B
:101B2000DF90089520E639E040E252E00C94140D75
:101B3000FC01808190E0FC01EE0FFF1FE80FF91F10
:101B4000EB58FC4F80818F7B80830895FC0180815E
:101B50008C3070F5918128E830E0291B310997FD20
:101B60003395220F331F220F331F621773077CF048
:101B7000928128E532E0291B310997FD3395220F28
:101B8000331F220F331F621773070CF49B0122507F
:101B90003109220F331F4FB7F89490E0FC01EE0F8C
:101BA000FF1FE80FF91FEB58FC4F328321834FBF13
:101BB00008954F925F926F927F92AF92BF92CF92B1
:101BC000DF92EF92FF920F931F93CF93DF93EC017D
:101BD000603282E078070CF040C077FD06C0653BBC
:101BE00071052CF064EB70E002C060E070E0898168
:101BF00028E830E0281B310987FD3395220F331F79
:101C0000220F331F5901CC24B7FCC094DC2C882749
:101C100077FD8095982F2A8148E552E0421B5109B3
:101C200027FD5395440F551F440F551F2A01662465
:101C300057FC6094762C7F926F925F924F9214EBD8
:101C4000E12EF12C00E010E020E030E0A9010E943C
:101C500096150F900F900F900F90CE01DF91CF91BE
:101C60001F910F91FF90EF90DF90CF90BF90AF90BA
:101C70007F906F905F904F900C94A60DFC01808137
:101C800090E0FC01EE0FFF1FE80FF91FEB58FC4F2F
:101C9000808186FB882780F908958091C90390E0B0
:101CA0002091CA03821B910908952091CA03809153
:101CB000C903281750F4E22FF0E0E553FC4F808170
:101CC00090E02F5F2093CA0308958FEF9FEF089550
:101CD000E091CA038091C903E81730F4F0E0E553BE
:101CE000FC4F808190E008958FEF9FEF0895089555
:101CF000CF92DF92EF92FF920F931F93CF93DF93D8
:101D00007C01CB018A012091A503222389F0EB01FC
:101D10006B01C40ED51ECC15DD0569F06991D701A4
:101D2000ED91FC910190F081E02DC7010995F3CF71
:101D3000642F0E943310C801DF91CF911F910F9142
:101D4000FF90EF90DF90CF900895CF93DF931F9295
:101D5000CDB7DEB769832091A5032223D1F020916E
:101D6000A603203240F021E030E0FC0133832283DF
:101D700080E090E015C08091A703E82FF0E0E855DF
:101D8000FC4F998190838F5F8093A7038093A60374
:101D900005C061E0CE0101960E94331081E090E021
:101DA0000F90DF91CF910895FC011382128248EECB
:101DB00053E060E070E0448355836683778388EF67
:101DC00091E09183808308951092CA031092C90311
:101DD0001092A7031092A6030C94760F81E08093D3
:101DE000A5036093C8031092A7031092A603089559
:101DF0000F93062F21E04091A60368EA73E08091DB
:101E0000C8030E94DC0F1092A7031092A603109241
:101E1000A5030F9108958F929F92AF92BF92CF9298
:101E2000DF92EF92FF920F931F93CF93DF93EC011A
:101E3000F62ED42E48015901EE2019F10E94EE0E23
:101E40001E2D143008F013E01150B8F0E881F9812C
:101E500028E0129FB0011124A501940104C05695F9
:101E60004795379527956A95D2F7CA01B901019030
:101E7000F081E02DCE010995E7CF60E0CE010E9410
:101E8000F80E4D2D413208F040E22C2D6BEC73E042
:101E90008F2D0E94940F1092CA038093C903DF9183
:101EA000CF911F910F91FF90EF90DF90CF90BF9057
:101EB000AF909F908F900895CF92EF920F931F93C2
:101EC000C22EE12C00E010E098010E940B0F1F9140
:101ED0000F91EF90CF90089521E00C945C0F61E09A
:101EE0000C94F80E89E993E00C94D40E10925804E7
:101EF00081E0809356041092550461E082E10E94D3
:101F00004E1361E083E10E944E13E9EBF0E0808123
:101F10008E7F808380818D7F808388E48093B8006A
:101F200085E48093BC000895413208F043C090914D
:101F300058049111FCCF91E09093580420935604DB
:101F40002FEF2093EB0310923004240F20932F04E3
:101F50009093570490915704880F892B80935704CE
:101F600080915504813061F410925504809157049A
:101F70008093BB008091BC0083FDF8CF85EC01C04D
:101F800085EE8093BC00809158048130E1F380910C
:101F90003004841710F44091300421E334E0FB0155
:101FA000D9018A2F821B841718F48D918193F9CF60
:101FB000842F089580E008950F93413208F04AC0BD
:101FC000909158049111FCCF92E0909358040093A3
:101FD00056049FEF9093EB031092300440932F042C
:101FE000FB0161E374E0DB019A2F961B941718F450
:101FF00091919D93F9CF1092570490915704880FB7
:10200000892B8093570480915504813061F410929C
:102010005504809157048093BB008091BC0083FDE0
:10202000F8CF85EC01C085EE8093BC00222321F01F
:10203000809158048230E1F38091EB038F3F61F08F
:102040008091EB03803251F08091EB03803341F4B7
:1020500083E007C081E005C080E003C082E001C0EA
:1020600084E00F910895613298F42091580424304F
:1020700089F460930D04FC018FE094E0DC012A2FC9
:10208000281B261718F421912D93F9CF80E008958D
:1020900081E0089582E0089585ED8093BC008091F1
:1020A000BC0084FDFCCF10925804089585EC809309
:1020B000BC001092580408951F920F920FB60F9211
:1020C00011242F933F934F935F936F937F938F933D
:1020D0009F93AF93BF93EF93FF938091B900887F55
:1020E000803609F49EC078F5883209F45DC090F41A
:1020F000803109F456C038F4882309F4F5C08830DB
:1021000009F44FC0F5C0883109F44EC0803209F49B
:102110005FC0EEC0803409F46AC058F4803309F41B
:1021200057C0883309F0E4C08093EB030E94561037
:10213000DFC0803509F44FC0883509F45DC08834AC
:1021400009F0D6C0D3C0883909F4C4C0A8F48837D0
:1021500009F467C038F4883609F463C0803709F49D
:1021600060C0C6C0883809F4B5C0803909F45FC0C2
:10217000803809F0BDC05BC0803B09F483C038F4EF
:10218000803A09F466C0883A09F47CC0B1C0803C4A
:1021900009F4A4C0883C09F4A1C0883B09F487C0B5
:1021A000A7C08091570410C09091300480912F04F3
:1021B000981770F5E091300481E08E0F8093300421
:1021C000F0E0EF5CFB4F80818093BB0085EC83C027
:1021D0008093EB038BC0E091300481E08E0F8093FD
:1021E00030048091BB00F0E0EF5CFB4F8083909166
:1021F000300480912F046BC0E091300481E08E0F99
:10220000809330048091BB00F0E0EF5CFB4F808353
:102210008091560481116AC081E08093550484EA5C
:102220005EC083E0809358041092EC03CFCF80917E
:10223000EC03803208F04EC0E091EC0381E08E0F99
:102240008093EC038091BB00F0E0E351FC4F80836E
:10225000BDCF0E9456108091EC03803230F4E091A3
:10226000EC03F0E0E351FC4F10826091EC0370E06E
:10227000E0915104F09152048DEE93E00995109293
:10228000EC0336C084E08093580410920E04109240
:102290000D04E0915304F0915404099580910D04CC
:1022A000811105C081E080930D0410920F04E0912C
:1022B0000E0481E08E0F80930E04F0E0E15FFB4F8F
:1022C00080818093BB0090910E0480910D0498173B
:1022D00008F47CCF85E88093BC000AC085EC80932D
:1022E000BC001092580404C01092EB030E944C10E2
:1022F000FF91EF91BF91AF919F918F917F916F91DE
:102300005F914F913F912F910F900FBE0F901F90B3
:1023100018951F920F920FB60F9211242F933F938F
:102320008F939F93AF93BF9380915A0490915B04D6
:10233000A0915C04B0915D043091590423E0230F17
:102340002D3720F40196A11DB11D05C026E8230FED
:102350000296A11DB11D2093590480935A049093B5
:102360005B04A0935C04B0935D0480915E04909143
:102370005F04A0916004B09161040196A11DB11D9C
:1023800080935E0490935F04A0936004B093610413
:10239000BF91AF919F918F913F912F910F900FBE61
:1023A0000F901F9018952FB7F89460915A04709170
:1023B0005B0480915C0490915D042FBF08953FB74A
:1023C000F89480915E0490915F04A0916004B091B4
:1023D000610426B5A89B05C02F3F19F00196A11DE9
:1023E000B11D3FBF6627782F892F9A2F620F711D6D
:1023F000811D911D42E0660F771F881F991F4A9526
:10240000D1F70895CF92DF92EF92FF92CF93DF93AF
:102410006B017C010E94DF11EB01C114D104E104C6
:10242000F10489F00E94ED150E94DF116C1B7D0BF9
:10243000683E734090F381E0C81AD108E108F108C2
:10244000C851DC4FEACFDF91CF91FF90EF90DF9042
:10245000CF9008958230910538F0880F991F880F2A
:10246000991F05970197F1F70895789484B58260D4
:1024700084BD84B5816084BD85B5826085BD85B528
:10248000816085BDEEE6F0E0808181608083E1E8D7
:10249000F0E010828081826080838081816080830F
:1024A000E0E8F0E0808181608083E1EBF0E0808112
:1024B00084608083E0EBF0E0808181608083EAE7E4
:1024C000F0E080818460808380818260808380816D
:1024D000816080838081806880831092C10008952C
:1024E0008E3008F08E50877020910D0190E4299F66
:1024F00090011124822B80937C0080917A0080646B
:1025000080937A0080917A0086FDFCCF80917800DC
:102510002091790090E0922B08951F93CF93DF9341
:10252000182FEB0161E00E941513209711F460E071
:1025300004C0CF3FD10539F461E0812FDF91CF9105
:102540001F910C944E13E12FF0E0EC55FF4FE491F6
:10255000E330F9F048F4E130B9F0E230A1F584B5A8
:10256000806284BDC8BD34C0E730E9F0E83019F1BD
:10257000E43049F580918000806280938000D093A0
:102580008B00C0938A0024C084B5806884BDC7BD19
:102590001FC080918000806880938000D093890064
:1025A000C093880015C08091B00080688093B0000F
:1025B000C093B3000DC08091B00080628093B000E2
:1025C000C093B40005C0C038D1050CF0B5CFAFCF73
:1025D000DF91CF911F910895833081F028F48130ED
:1025E00099F08230A1F008958730A9F08830B9F0D1
:1025F0008430D1F4809180008F7D03C08091800071
:102600008F7780938000089584B58F7702C084B55A
:102610008F7D84BD08958091B0008F7703C0809135
:10262000B0008F7D8093B0000895CF93DF9390E04A
:10263000FC01E854FF4F2491FC01E453FF4F8491C7
:10264000882349F190E0880F991FFC01E651FF4F64
:10265000A591B49180529F4FFC01C591D4919FB731
:10266000611108C0F8948C91209582238C93888105
:1026700082230AC0623051F4F8948C91322F309545
:1026800083238C938881822B888304C0F8948C9157
:10269000822B8C939FBFDF91CF9108950F931F934F
:1026A000CF93DF931F92CDB7DEB7282F30E0F9012B
:1026B000EC55FF4F8491F901E854FF4F1491F90153
:1026C000E453FF4F04910023C9F0882321F069836C
:1026D0000E94EC126981E02FF0E0EE0FFF1FE05244
:1026E000FF4FA591B4919FB7F8948C91611103C0ED
:1026F0001095812301C0812B8C939FBF0F90DF9198
:10270000CF911F910F910895FC01818D228D90E052
:10271000805C9F4F821B91098F7399270895FC015C
:10272000918D828D981731F0828DE80FF11D858D86
:1027300090E008958FEF9FEF0895FC01918D828DB9
:10274000981761F0828DDF01A80FB11D5D968C9105
:10275000928D9F5F9F73928F90E008958FEF9FEF10
:10276000089581E295E1892B49F080E090E0892B82
:1027700029F00E94211581110C9400000895FC019C
:10278000848DDF01A80FB11DA35ABF4F2C91848DFA
:1027900090E001968F739927848FA689B7892C932F
:1027A000A089B1898C9180648C93938D848D9813CA
:1027B00006C00288F389E02D80818F7D8083089593
:1027C000CF93DF93EC01888D8823C9F0EA89FB89D8
:1027D000808185FD05C0A889B9898C9186FD0FC0CF
:1027E0000FB607FCF5CF808185FFF2CFA889B989A4
:1027F0008C9185FFEDCFCE010E94BF13E7CFDF9113
:10280000CF910895CF92DF92FF920F931F93CF93B2
:10281000DF931F92CDB7DEB76C0181E0D6015896E9
:102820008C9358975B969C915B975C968C915C9788
:10283000981307C05096ED91FC915197808185FDCA
:102840002EC0F601038D10E00F5F1F4F0F7311278D
:10285000F02EF601848DF81211C00FB607FCF9CFE7
:10286000D6015096ED91FC915197808185FFF1CF73
:10287000C60169830E94BF136981EBCF838DE80F86
:10288000F11DE35AFF4F6083D6015B960C935B9773
:102890005296ED91FC915397808180620CC0D601D5
:1028A0005696ED91FC91579760835096ED91FC916F
:1028B000519780818064808381E090E00F90DF9168
:1028C000CF911F910F91FF90DF90CF900895BF920D
:1028D000CF92DF92EF92FF92CF93DF93EC016A01E8
:1028E0007B01B22EE889F98982E08083411581EE6F
:1028F000580761057105A1F060E079E08DE390E093
:10290000A70196010E940A16215031094109510977
:102910005695479537952795211580E1380798F00A
:10292000E889F989108260E874E88EE190E0A701F7
:1029300096010E940A162150310941095109569504
:10294000479537952795EC85FD853083EE85FF8586
:102950002083188EEC89FD89B082EA89FB89808109
:1029600080618083EA89FB89808188608083EA892D
:10297000FB89808180688083EA89FB8980818F7DE3
:102980008083DF91CF91FF90EF90DF90CF90BF9049
:1029900008951F920F920FB60F9211242F938F93C9
:1029A0009F93EF93FF93E0917204F0917304808101
:1029B000E0917804F091790482FD12C090818091B9
:1029C0007B048F5F8F7320917C04821751F0E0911C
:1029D0007B04F0E0EE59FB4F958F80937B0401C0A0
:1029E0008081FF91EF919F918F912F910F900FBE5A
:1029F0000F901F9018951F920F920FB60F921124EF
:102A00002F933F934F935F936F937F938F939F93F6
:102A1000AF93BF93EF93FF9382E694E00E94BF13BE
:102A2000FF91EF91BF91AF919F918F917F916F91A6
:102A30005F914F913F912F910F900FBE0F901F907C
:102A4000189582E694E00E94841321E0892B09F412
:102A500020E0822F0895109265041092640488EE9D
:102A600093E0A0E0B0E08093660490936704A093A5
:102A70006804B093690488E092E0909363048093C3
:102A8000620485EC90E090936F0480936E0484EC74
:102A900090E0909371048093700480EC90E09093A8
:102AA00073048093720481EC90E09093750480939A
:102AB000740482EC90E0909377048093760486EC23
:102AC00090E0909379048093780410927B041092A4
:102AD0007C0410927D0410927E040895CF92DF92C0
:102AE000EF92FF920F931F93CF93DF937C016A01C4
:102AF000EB0100E010E00C151D0571F06991D701A4
:102B0000ED91FC910190F081E02DC7010995892B91
:102B100019F00F5F1F4FEFCFC801DF91CF911F91C9
:102B20000F91FF90EF90DF90CF9008954F925F92BA
:102B30006F927F92AF92BF92CF92DF92EF92FF920D
:102B40000F931F93CF93DF93CDB7DEB729013A01DF
:102B5000621B730B840B950B29893A894B895C891D
:102B60002A193B094C095D09298B3A8B4B8B5C8BED
:102B70009B01AC0169897A898B899C890E94EE1539
:102B8000E418F50806091709A80197010E942C16F8
:102B90002A0D3B1D4C1D5D1DCA01B901DF91CF916E
:102BA0001F910F91FF90EF90DF90CF90BF90AF906B
:102BB0007F906F905F904F90089508950E94351216
:102BC0000E94DD150E944608C1EBD3E10E94A40BD0
:102BD0002097E1F30E94B113F9CF0895DB018F93A1
:102BE0009F930E945116BF91AF91A29F800D911D9E
:102BF000A39F900DB29F900D11240895991B79E029
:102C000004C0991F961708F0961B881F7A95C9F77C
:102C100080950895A1E21A2EAA1BBB1BFD010DC0D1
:102C2000AA1FBB1FEE1FFF1FA217B307E407F5077C
:102C300020F0A21BB30BE40BF50B661F771F881F58
:102C4000991F1A9469F760957095809590959B01EE
:102C5000AC01BD01CF010895052E97FB1EF4009431
:102C60000E94431657FD07D00E940A1607FC03D0A6
:102C70004EF40C94431650954095309521953F4F56
:102C80004F4F5F4F089590958095709561957F4F58
:102C90008F4F9F4F0895EE0FFF1F0590F491E02D89
:102CA00009940E945C16A59F900DB49F900DA49F5F
:102CB000800D911D11240895A29FB001B39FC00102
:102CC000A39F700D811D1124911DB29F700D811D58
:102CD0001124911D0895CF93DF938230910510F454
:102CE00082E090E0E0910105F091020520E030E003
:102CF000A0E0B0E0309739F1408151814817590781
:102D0000B8F04817590771F482819381109729F020
:102D100013969C938E9312972CC0909302058093E8
:102D2000010527C02115310531F04217530718F06E
:102D3000A901DB0101C0EF019A01BD01DF010280A1
:102D4000F381E02DD7CF21153105F9F0281B390B80
:102D50002430310580F48A819B816115710521F051
:102D6000FB019383828304C0909302058093010545
:102D7000FE01329644C0FE01E20FF31F819391934E
:102D800022503109398328833AC02091FF043091C1
:102D90000005232B41F4209102013091030130936F
:102DA00000052093FF0420910001309101012115BD
:102DB000310541F42DB73EB7409104015091050112
:102DC000241B350BE091FF04F0910005E217F30797
:102DD000A0F42E1B3F0B2817390778F0AC014E5F8B
:102DE0005F4F2417350748F04E0F5F1F50930005C3
:102DF0004093FF048193919302C0E0E0F0E0CF01A3
:102E0000DF91CF910895CF93DF93009709F487C0A6
:102E1000FC01329713821282C0910105D091020504
:102E2000209781F420813181280F391F8091FF0480
:102E3000909100058217930779F5F0930005E093D0
:102E4000FF046DC0DE0120E030E0AE17BF0750F494
:102E500012964D915C9113979D014115510509F111
:102E6000DA01F3CFB383A28340815181840F951F90
:102E70008A179B0771F48D919C911197840F951F70
:102E800002969183808312968D919C9113979383E0
:102E900082832115310529F4F0930205E0930105A1
:102EA0003EC0D9011396FC93EE9312974D915D911C
:102EB000A40FB51FEA17FB0779F480819181840F75
:102EC000951F0296D90111969C938E9382819381CE
:102ED00013969C938E931297E0E0F0E08A819B8199
:102EE000009719F0FE01EC01F9CFCE01029628817E
:102EF0003981820F931F2091FF043091000528171C
:102F0000390769F4309729F41092020510920105EF
:102F100002C013821282D0930005C093FF04DF9198
:102F2000CF910895FB01DC014150504048F00190E1
:102F30000D920020C9F701C01D9241505040E0F7AA
:102F40000895FC0181E090E00190061609F4CF019C
:102F50000020D1F701970895FB0151915523A9F065
:102F6000BF01DC014D9145174111E1F759F4CD0145
:102F70000190002049F04D9140154111C9F3FB012A
:102F80004111EFCF81E090E001970895F894FFCFD1
:102F900000000305800001000000FF1300012E6304
:102FA0007070004D617820736572766F7320617464
:102FB00074616368656400556E6B6E6F776E207028
:102FC000696E206D6F6465002F55736572732F6194
:102FD0006A6669736865722F6465762F696E7465B9
:102FE000726368616E67652D6669726D6174612FC9
:102FF0006275696C642F5374616E646172644669B2
:10300000726D6174612F5374616E6461726446699C
:10301000726D6174612E696E6F004932433A2054BB
:103020006F6F206D616E79206279746573207265AF
:10303000636569766564004932433A20546F6F20B6
:103040006665772062797465732072656365697659
:1030500065640031302D6269742061646472657347
:1030600073696E67206E6F7420737570706F727401
:10307000656400746F6F206D616E79207175657283
:103080006965730000000000A50E780E4D0E550E08
:10309000680E770E0000000002146E1584139D1355
:0430A0008F13E01397
:00000001FF
