:1000000047C1000076C1000074C1000072C1000049
:1000100070C100006EC100006CC100006AC1000028
:1000200068C1000066C1000064C1000062C1000038
:1000300060C100005EC100005CC100005AC1000048
:1000400058C100000C94D31054C1000052C10000EC
:1000500050C100004EC100004CC100000C943A1683
:1000600048C100000C94851A0C94BB1A42C10000D0
:1000700040C100003EC100003CC100003AC1000088
:100080000C94001136C1000034C1000032C10000E0
:1000900030C100002EC100002CC100000C940C15D2
:1000A00028C1000026C100000C942D1122C10000BF
:1000B00020C100001EC100001CC100000C945A1198
:1000C00018C1000016C1000014C1000012C10000D8
:1000D00010C100000EC100000CC100000AC10000E8
:1000E00008C100005F0B870B530B940BA60BC80BCA
:1000F000C20BC80BC80BC80BE30B700B5C0F780F5F
:10010000870E780FF50E780F650E150E780F780FA5
:10011000780F780F780F200D780FFC0D780F4C0EAC
:100120008D1792179717A117AB172418B517BD177E
:10013000C517CF17D917E317F217FC17241806189D
:1001400010181A184518481837183B1841187F1806
:100150004C18501856185A185E18641868186C18FD
:100160007F18721876187A1800000A0B02090C0D15
:100170000E0807030401000000000000000000005A
:10018000000000000000000000000000000000006F
:10019000000000001211100000000000000000002C
:1001A000000000000000000000000000000001024C
:1001B0001020200808102040102040800201020179
:1001C0000804020101020408102040808040201031
:1001D000080402018004020180402010080402018A
:1001E00008040201010204081020408001020408F2
:1001F00010204080050505050705080808080202CB
:1002000002020A0A080804040404010101010101B0
:1002100001010303030303030303040707070C0C93
:100220000C0C0C0C0C0C020202020606060606065A
:1002300006060B0B0B0B0B0B0B0B00002000230017
:10024000260029002C002F003200000100000301CD
:100250000601090100002200250028002B002E00C5
:100260003100340002010000050108010B0100000B
:100270002100240027002A002D0030003300010156
:100280000000040107010A016105830C2514ED1A21
:1002900011241FBECFEFD1E2DEBFCDBF00E00CBF07
:1002A00013E0A0E0B2E0E8E0FBE300E00BBF02C037
:1002B00007900D92A431B107D9F727E0A4E1B3E08C
:1002C00001C01D92AC3DB207E1F712E0C0E9D2E0F7
:1002D00000E006C022970109FE010BBF0E94141C1A
:1002E000C838D10780E00807A9F70E949E1B0C942C
:1002F000821D86CE0F931F93CF93DF93EC018B016A
:1003000088819981DC01ED91FC916F770190F081FA
:10031000E02D199588819981DC01ED91FC91B8015E
:10032000660F672F661F770B6F770190F081E02DC6
:10033000DF91CF911F910F911994DC018D919C91C8
:10034000DC01ED91FC910190F081E02D60EF1994BA
:10035000DC018D919C91DC01ED91FC910190F0818B
:10036000E02D67EF1994CF93DF93EC018881998199
:10037000DC01ED91FC910190F081E02D69EF199580
:1003800088819981DC01ED91FC910190F081E02D53
:1003900062E0199588819981DC01ED91FC910190D1
:1003A000F081E02D65E0DF91CF9119941F93CF93F9
:1003B000DF93EC018A818823C1F1CE01BEDF888101
:1003C0009981DC01ED91FC910190F081E02D69E7CC
:1003D000199588819981DC01ED91FC91AB81BC81FB
:1003E0000190F081E02D6C91199588819981DC0153
:1003F000ED91FC91AB81BC810190F081E02D1196D3
:100400006C91199512E08A81181750F4EB81FC81E8
:10041000E10FF11D608170E0CE016CDF1F5FF3CF53
:10042000CE01DF91CF911F9193CFDF91CF911F919B
:100430000895CF92DF92EF92FF920F931F93CF9385
:10044000DF938C01EB01C42ED22E6EE072E0CE0160
:100450000E94681D7C016FE270E0CE010E945D1D6C
:10046000009739F46CE570E0CE010E945D1D0097A5
:1004700011F0EC012196E114F10451F4FE01019018
:100480000020E9F7EC1BEF5FD8011296EC9306C051
:10049000EC1AFD0AE394E394F801E282D801139682
:1004A0008D919C9114970E94BF1CF801E280F12C61
:1004B000C70101960E94271CD80114969C938E9325
:1004C0001397FC01EE0DFF1D1082FC01C082D1824A
:1004D00012964C9150E042505109BE010296DF91B4
:1004E000CF911F910F91FF90EF90DF90CF900C94E0
:1004F0004E1DDC018D919C91DC01ED91FC910480FD
:10050000F581E02D19940F931F93CF93DF93FC0196
:100510002085213741F0293709F048C0DF91CF917C
:100520001F910F9143CFFC01E55DFE4F0190F081DB
:10053000E02D309709F450C0DC01A75BBF4F4D910F
:100540005C919A012150310937FD9A01B9017595E5
:100550006795062F40E050E020E030E04E5F5F4FAF
:100560002017A0F4EC01C40FD51F1F81DC01A20FDE
:10057000B31F18961C931897C885D0E8CD9F101903
:10058000112418961C932F5F3F4FE8CFDC01A60F74
:10059000B11D17962C911797222311F018961C92D3
:1005A0000896DF91CF911F910F911994FC01E35DA3
:1005B000FE4F0190F081E02D309771F0AC01475F64
:1005C0005F4FDC01A75BBF4F6C916150822FDF91C1
:1005D000CF911F910F911994DF91CF911F910F919E
:1005E00008950F931F93CF93DF93EC018A018881C5
:1005F0009981DC01ED91FC916F70606E0190F0814A
:10060000E02D1995B801CE01DF91CF911F910F9187
:1006100071CE0F931F93CF93DF93EC018A018881F2
:100620009981DC01ED91FC916F7060690190F0811E
:10063000E02D199588819981DC01ED91FC91602F65
:100640006F770190F081E02D199588819981DC0107
:10065000ED91FC91B801660F672F661F770B019033
:10066000F081E02DDF91CF911F910F911994CF92DE
:10067000DF92EF92FF920F931F93CF93DF9300D0FF
:10068000CDB7DEB78C01F42E2A833B83698355DE18
:10069000D8018D919C91DC01ED91FC910190F0814C
:1006A000E02D698119952A81E22EC22E3B81D32E3D
:1006B0008C2D8E198F1538F4F60161916F0170E061
:1006C000C80118DEF5CFC8010F900F900F90DF9191
:1006D000CF911F910F91FF90EF90DF90CF9038CE88
:1006E0009A01613749F4FA0101900020E9F7319746
:1006F000E41BF50B4E2FBBCF0895AB0161E7F0CFA4
:10070000DC018D919C91DC01ED91FC910190F081D7
:10071000E02D1994603DC1F028F4603969F0603C27
:1007200079F00895643FA1F0653FB1F0603EC9F4EF
:10073000FC01E35EFE4F13C0FC01E15EFE4F0FC003
:10074000FC01EF5DFE4F0BC0FC01ED5DFE4F07C0ED
:10075000FC01EB5DFE4F03C0FC01E95DFE4F5183E0
:10076000408308956F3F29F4FC01E75DFE4F5183FC
:1007700040830895835D9E4FFC015183408308951B
:10078000860F911DFC01E55BFF4F80810895860F68
:10079000911DFC01E55BFF4F80818F3709F040839D
:1007A0000895860F911D860F911DFC01EF56FF4F96
:1007B000808191810895860F911D860F911DFC0106
:1007C000EF56FF4F518340830895FC011582168236
:1007D000178280E090E0DF01A80FB91F18961C92E5
:1007E000019680349105B9F7DF01A85BBF4F1C92D9
:1007F00011961D921C92E75DFE4F0190F081E02D55
:10080000309709F019940895FC01E15DFE4F1082C4
:10081000FC01128214821382D8CFCF93DF93EC01B4
:10082000FC01E85BFF4F8081882399F0673F29F442
:100830001082CE01DF91CF9166CEFE01E75BFF4FC4
:1008400080819181C80FD91F688701969183808329
:1008500096C08D81882309F452C067FD50C0815035
:100860008D83FE01E80FF11D6087811188C08E81A4
:10087000882309F484C0803DA1F140F4803981F0DF
:10088000803CD9F5FE01EF5DFE4F2EC0843FC9F0DC
:10089000853FD9F0803E89F5FE01E35EFE4F03C03F
:1008A000FE01E15EFE4F0190F081E02D309729F1CD
:1008B0008885698570E090E8899F600D711D11241D
:1008C0001AC0FE01EB5DFE4F03C0FE01E95DFE4F65
:1008D0000190F081E02D309781F0688570E0898586
:1008E0000BC0FE01ED5DFE4F0190F081E02D3097D1
:1008F00021F0688570E08F8119951E8240C0862F97
:10090000603F28F4807F90E06F706F8301C090E0BB
:10091000803F910541F17CF4803C910501F124F484
:1009200080399105D1F02BC0803D9105C1F0803E0A
:10093000910599F024C0893F9105E1F03CF49C01B8
:10094000245F31092230310540F019C08F3F9105F5
:10095000B1F4CE01DF91CF9138CF92E001C091E0A8
:100960009D838E830CC081E08083C75BDF4F19823B
:10097000188205C084E193E0DF91CF91F4CCDF9140
:10098000CF910895CF93DF93EC0188819981DC01A9
:10099000ED91FC910680F781E02D19958F3FBFEF17
:1009A0009B0729F0682FCE01DF91CF9136CFDF91E1
:1009B000CF9108957F928F929F92AF92BF92CF92E4
:1009C000DF92EF92FF920F931F93CF93DF93762ED8
:1009D000EA01680110E0EE24D7FCE094FE2C490106
:1009E000AA2497FCA094BA2C212F30E02C173D07A5
:1009F00094F4C701B6010E94B31661E0872D0E94EE
:100A0000B918C501B4010E94B31660E0872D0E9499
:100A1000B9181F5FE9CFDF91CF911F910F91FF9020
:100A2000EF90DF90CF90BF90AF909F908F907F908E
:100A300008950F931F93CF93DF93EC01FC01E15DC9
:100A4000FE4F8081811124C061E08DE00E948018FA
:100A500002ED10E028E230E042E050E06DE0CE012F
:100A6000A9DF6AEF70E080E090E00E94B31628E210
:100A700030E045E050E06DE0CE019CDF6DE770E0D6
:100A800080E090E0DF91CF911F910F910C94B3160D
:100A9000DF91CF911F910F910895CF93DF93EC01D8
:100AA00026E08BE397E00E94251A8BE397E0998379
:100AB0008883CE01BEDFCE0156DCCE01DF91CF911F
:100AC00075CC84E193E0A0CE0F931F93CF93DF9377
:100AD0001F92CDB7DEB7182F062F8EEF810F84340B
:100AE000B0F4612F84E193E079834ADE598181304B
:100AF00071F4402F612F84E193E05DDE602F812F40
:100B00000F90DF91CF911F910F910C94B9180F9016
:100B1000DF91CF911F910F9108951F93CF93DF9392
:100B2000182FEB01863488F5682F84E193E028DEE6
:100B30008330F1F0843049F58EEF810F843480F4F6
:100B4000E12FF0E0E958FB4F408150E0CA01880FE7
:100B5000991F840F951FBE0183549B4F0E949712CB
:100B6000AE01612F84E193E0DF91CF911F9123CEFD
:100B70008EEF810F8C3020F084ED810F833080F771
:100B8000BE01812F0E946A17EBCFDF91CF911F9199
:100B90000895DF92EF92FF920F931F93CF93DF930D
:100BA000062F893008F097C0F82EFF0CFF0CFF0CC1
:100BB00098E0F90E96E49F1510F436E4F32E182F02
:100BC000110F110F110FC12FD0E0EE24E394CF15B8
:100BD00038F58EEF8C0F843400F56C2F84E193E0B0
:100BE000CFDD813031F06C2F84E193E0C9DD8111DC
:100BF00014C0DD24D3948E2D802309F4D12C6C2FC6
:100C000084E193E0BDDD813009F050C0DE294D2D37
:100C100050E06C2F84E193E0CEDDEE0CCF5FD7CFB8
:100C2000D0FF05C0602F6170812F0E94B918D1FFDD
:100C300006C0602F627081E0810F0E94B918D2FF58
:100C400006C0602F647082E0810F0E94B918D3FF44
:100C500006C0602F687083E0810F0E94B918D4FF2E
:100C600006C0602F607184E0810F0E94B918D5FF23
:100C700006C0602F607285E0810F0E94B918D6FF10
:100C800006C0602F607486E0810F0E94B918D7FFFC
:100C900022C0602F607887E0810FDF91CF911F9194
:100CA0000F91FF90EF90DF900C94B9186C2F84E1B6
:100CB00093E066DD8111ABCFDD2009F4A8CF6C2F66
:100CC00084E193E06EDD019709F4A1CF62E08C2FFF
:100CD0000E9480189CCFDF91CF911F910F91FF90C0
:100CE000EF90DF900895CF93C82F803150F5409159
:100CF000DB055091DC0521E030E0082E02C0220F18
:100D0000331F0A94E2F7672B49F42095309524238A
:100D100035233093DC052093DB0513C0242B352BC2
:100D20003093DC052093DB0580914404811109C0D8
:100D30008C2F0E944517AC016C2F84E193E0CF917A
:100D400050CCCF910895DB019A01909145049033E6
:100D5000D0F540914604682F70E0442369F0E42FF9
:100D6000F0E0EA5BFB4F8081FB01E958FB4F808399
:100D700041504093460407C0FB01E958FB4F908364
:100D80009F5F90934504FB01E958FB4F1A161B0621
:100D90007CF41216130664F4408150E0CA01880FF7
:100DA000991F840F951FAD0183549B4F0C94A31181
:100DB000208130E0C901880F991F820F931F83544F
:100DC0009B4F0C94511263E172E084E193E095CC67
:100DD000CF93DF93C82FD0E0C958DB4F288130E094
:100DE000C901880F991F820F931F83549B4F0E9444
:100DF0005612888190914504891306C0882379F0A2
:100E00008150809345040BC0992349F0E09146043A
:100E1000EF5FE0934604F0E0EA5BFB4F80838FEFE7
:100E20008883DF91CF9108951F93CF93DF93162F7F
:100E3000C82FD0E0FE01E054FA4F90811923C75328
:100E4000DA4F411103C09881911739F0412F50E0DA
:100E5000682F84E193E0DDDB1883DF91CF911F9150
:100E60000895EF92FF920F931F93CF93DF93E82E95
:100E700088E08E1508F47DC02E2D30E0F901EE5289
:100E8000FA4F6083672B09F474C0F901E054FA4FFC
:100E9000F0800E2D000F000F000F8EEF800F8434B6
:100EA00008F057C0F0FE55C0802F0E94EE18892B25
:100EB00009F44FC011E08FEF800F843448F4F1FE45
:100EC00007C081E0800F0E94EE18892B09F043C013
:100ED000C02FD0E0F2FE06C082E0800F0E94EE1824
:100EE000892BD9F5F3FE06C083E0800F0E94EE182F
:100EF000892BA9F5F4FE06C084E0800F0E94EE184D
:100F0000892B79F5F5FE06C085E0800F0E94EE186A
:100F1000892B49F5C034D10541F0F6FE06C086E0C4
:100F2000800F0E94EE18892B01F5EF9744F4F7FE2D
:100F300006C087E0800F0E94EE18892BC1F441E0C3
:100F4000612F8E2DDF91CF911F910F91FF90EF9028
:100F50006BCF10E0B0CF1260BBCF1460C3CF18606E
:100F6000C9CF1061CFCF1062D5CF1064DECF10682B
:100F7000E6CFDF91CF911F910F91FF90EF900895F1
:100F8000CF93DF938091D2058823B9F1D091C0052A
:100F9000D2FF85C282E00E94EE18892B09F47FC23D
:100FA000C4E0D3FF06C083E00E94EE18892B09F04D
:100FB00078C2D4FF06C084E00E94EE18892B09F0A5
:100FC00072C2D5FF06C085E00E94EE18892B09F099
:100FD0006CC2D6FF06C086E00E94EE18892B09F08D
:100FE00066C2D7FF06C087E00E94EE18892B09F081
:100FF00060C240E06C2F80E017DF8091D30588232A
:1010000009F447C0D091C105D0FF55C288E00E94C5
:10101000EE18892B09F44FC2C1E0D1FF06C089E068
:101020000E94EE18892B09F048C2D2FF06C08AE060
:101030000E94EE18892B09F042C2D3FF06C08BE054
:101040000E94EE18892B09F03CC2D4FF06C08CE048
:101050000E94EE18892B09F036C2D5FF06C08DE03C
:101060000E94EE18892B09F030C2D6FF06C08EE030
:101070000E94EE18892B09F02AC2D7FF06C08FE024
:101080000E94EE18892B09F024C240E06C2F81E009
:10109000CBDE8091D405882309F447C0D091C205E6
:1010A000D0FF19C280E10E94EE18892B09F413C207
:1010B000C1E0D1FF06C081E10E94EE18892B09F042
:1010C0000CC2D2FF06C082E10E94EE18892B09F003
:1010D00006C2D3FF06C083E10E94EE18892B09F0F7
:1010E00000C2D4FF06C084E10E94EE18892B09F0EB
:1010F000FAC1D5FF06C085E10E94EE18892B09F0E0
:10110000F4C1D6FF06C086E10E94EE18892B09F0D3
:10111000EEC1D7FF06C087E10E94EE18892B09F0C7
:10112000E8C140E06C2F82E07FDE8091D505882306
:1011300009F447C0D091C305D0FFDDC188E10E940A
:10114000EE18892B09F4D7C1C1E0D1FF06C089E1AF
:101150000E94EE18892B09F0D0C1D2FF06C08AE1A7
:101160000E94EE18892B09F0CAC1D3FF06C08BE19B
:101170000E94EE18892B09F0C4C1D4FF06C08CE18F
:101180000E94EE18892B09F0BEC1D5FF06C08DE183
:101190000E94EE18892B09F0B8C1D6FF06C08EE177
:1011A0000E94EE18892B09F0B2C1D7FF06C08FE16B
:1011B0000E94EE18892B09F0ACC140E06C2F83E04F
:1011C00033DE8091D605882309F447C0D091C40549
:1011D000D0FFA1C180E20E94EE18892B09F49BC1C7
:1011E000C1E0D1FF06C081E20E94EE18892B09F010
:1011F00094C1D2FF06C082E20E94EE18892B09F04A
:101200008EC1D3FF06C083E20E94EE18892B09F03D
:1012100088C1D4FF06C084E20E94EE18892B09F031
:1012200082C1D5FF06C085E20E94EE18892B09F025
:101230007CC1D6FF06C086E20E94EE18892B09F019
:1012400076C1D7FF06C087E20E94EE18892B09F00D
:1012500070C140E06C2F84E0E7DD8091D7058823E2
:1012600009F447C0D091C505D0FF65C188E20E944E
:10127000EE18892B09F45FC1C1E0D1FF06C089E2F5
:101280000E94EE18892B09F058C1D2FF06C08AE2ED
:101290000E94EE18892B09F052C1D3FF06C08BE2E1
:1012A0000E94EE18892B09F04CC1D4FF06C08CE2D5
:1012B0000E94EE18892B09F046C1D5FF06C08DE2C9
:1012C0000E94EE18892B09F040C1D6FF06C08EE2BD
:1012D0000E94EE18892B09F03AC1D7FF06C08FE2B1
:1012E0000E94EE18892B09F034C140E06C2F85E094
:1012F0009BDD8091D805882309F447C0D091C605AD
:10130000D0FF29C180E30E94EE18892B09F423C184
:10131000C1E0D1FF06C081E30E94EE18892B09F0DD
:101320001CC1D2FF06C082E30E94EE18892B09F08F
:1013300016C1D3FF06C083E30E94EE18892B09F083
:1013400010C1D4FF06C084E30E94EE18892B09F077
:101350000AC1D5FF06C085E30E94EE18892B09F06B
:1013600004C1D6FF06C086E30E94EE18892B09F05F
:10137000FEC0D7FF06C087E30E94EE18892B09F054
:10138000F8C040E06C2F86E04FDD8091D9058823BE
:1013900009F447C0D091C705D0FFEDC088E30E9493
:1013A000EE18892B09F4E7C0C1E0D1FF06C089E33C
:1013B0000E94EE18892B09F0E0C0D2FF06C08AE334
:1013C0000E94EE18892B09F0DAC0D3FF06C08BE328
:1013D0000E94EE18892B09F0D4C0D4FF06C08CE31C
:1013E0000E94EE18892B09F0CEC0D5FF06C08DE310
:1013F0000E94EE18892B09F0C8C0D6FF06C08EE304
:101400000E94EE18892B09F0C2C0D7FF06C08FE3F7
:101410000E94EE18892B09F0BCC040E06C2F87E0D9
:1014200003DD8091DA05882309F4C1C0D091C80595
:10143000D0FFB1C080E40E94EE18892B09F4ABC044
:10144000C1E0D1FF06C081E40E94EE18892B09F0AB
:10145000A4C0D2FF06C082E40E94EE18892B09F0D6
:101460009EC0D3FF06C083E40E94EE18892B09F0CA
:1014700098C0D4FF06C084E40E94EE18892B09F0BE
:1014800092C0D5FF06C085E40E94EE18892B09F0B2
:101490008CC040E06C2F88E0DF91CF91C5CCC0E0DC
:1014A00080CDC86086CDC0618CCDC06292CDC06455
:1014B00098CDC0689ECDC0E0B0CDC260B6CDC4604E
:1014C000BCCDC860C2CDC061C8CDC062CECDC06445
:1014D000D4CDC068DACDC0E0ECCDC260F2CDC4603E
:1014E000F8CDC860FECDC06104CEC0620ACEC06433
:1014F00010CEC06816CEC0E028CEC2602ECEC4602A
:1015000034CEC8603ACEC06140CEC06246CEC06420
:101510004CCEC06852CEC0E064CEC2606ACEC46019
:1015200070CEC86076CEC0617CCEC06282CEC06410
:1015300088CEC0688ECEC0E0A0CEC260A6CEC46009
:10154000ACCEC860B2CEC061B8CEC062BECEC06400
:10155000C4CEC068CACEC0E0DCCEC260E2CEC460F9
:10156000E8CEC860EECEC061F4CEC062FACEC064F0
:1015700000CFC06806CFC0E018CFC2601ECFC460E5
:1015800024CFC8602ACFC06130CFC06236CFC064DC
:101590003CCFC06842CFC0E054CFC2605ACFC460D5
:1015A00060CFC86066CFC0616CCFC06272CFDF9180
:1015B000CF91089510924F058FEF80930A020895FE
:1015C000FF920F931F93CF93DF93182FEB01682F98
:1015D00084E193E0D5D88F3709F4F5C0612F84E119
:1015E00093E0CED8863041F480914F05882321F0D6
:1015F000C630D10509F0D7C00EEF010F0434B0F4A6
:10160000C430D10599F0E12FF0E0E958FB4F80811B
:10161000803360F490E09C01220F331F280F391FA4
:10162000C90183549B4FE7D78111BFC0BAECFB2E91
:10163000F10E8FE08F1548F061E070E0C230D10507
:1016400011F060E070E08F2D4EDB0434E8F4E12F00
:10165000E695E695E695812F8770F0E0E054FA4F25
:1016600021E030E0082E01C0220F0A94EAF720970B
:1016700019F0CB30D10521F48081822B808304C006
:10168000209580812823208340E050E0612F84E171
:1016900093E091D8CC30D10508F07AC0FE01EE5825
:1016A000FF4F0C94041C8FE08F1508F48CC0043499
:1016B00020F460E0812F0E94801842E008C00434CA
:1016C00008F081C060E0812F0E94801840E0612F07
:1016D00084E193E0DF91CF911F910F91FF9057C864
:1016E000043408F070C062E0812F0E9480184BE043
:1016F000612F84E193E04BD841E050E0612F84E119
:1017000093E0DF91CF911F910F91FF9054C8043463
:1017100008F059C060E0812F0E94B91861E0812F64
:101720000E94801841E0D3CF0C3028F084ED810F67
:10173000833008F048C061E0812F0E94801860E08B
:1017400070E0812F0E946A1743E0C1CF043408F093
:101750003AC044E0612F84E193E019D8E12FF0E032
:10176000E958FB4F80818F3F19F190E09C01220FD7
:10177000331F280F391FC90183549B4F3CD7811158
:1017800022C016C08CEE810F8230E8F446E09FCF75
:1017900067E272E084E193E0DF91CF911F910F91B6
:1017A000FF900C947D0306DF27CF812F11DB3ECF06
:1017B0004FEF5FEF6FEF7FEF812FDF91CF911F91A1
:1017C0000F91FF90C0CADF91CF911F910F91FF90B1
:1017D0000895CF93C0E08CEE8C0F823020F466E049
:1017E00070E08C2FEDDECF5FC634A9F781E08093E7
:1017F0004F0582E796E0CF91A2C70F931F93CF9337
:10180000DF9381E08093440480914F058111D2DE03
:10181000E2EDF5E0C0ECD5E0A9ECB5E0119219924B
:101820001D9285E0EB3DF807C9F7C7E7D4E010E06B
:101830000FEF8AEC810F803118F462E070E006C08F
:101840008EEF810F843420F461E070E0812FB8DEE8
:1018500009931F5F163469F71092DC051092DB05BF
:10186000109246041092450410924404DF91CF91E7
:101870001F910F91089525E042E068E372E084E152
:1018800093E00E9419024DE855E060EE84E193E098
:101890000E948A0349EC55E060E984E193E00E94EC
:1018A0008A0343E756E060EC84E193E00E948A03F8
:1018B00041E357E060ED84E193E00E948A0340EE4B
:1018C0005AE064EF84E193E00E948A0344E655E025
:1018D00065EF84E193E00E948A034CE05DE060EFF5
:1018E00084E193E00E94BA034DEF5BE06FEF84E187
:1018F00093E00E94B20340E051EE60E070E084E1CA
:1019000093E0CBD87ACFCF93DF93CDEBD4E0CE0169
:10191000FED4239685E0CD34D807C9F7DF91CF9167
:101920000895682F82E796E0CCC682E796E07AC6F3
:101930000895AF92BF92DF92EF92FF920F931F93A1
:10194000CF93DF931F92CDB7DEB7F82E5B01D42E75
:101950006F3F8FEF7807A9F06F2D82E796E029831C
:10196000F7D68A2DDEDF2981622F82E796E0FAD64C
:1019700080914D0590914E05009729F00E94D81650
:1019800002C0A12CB12C4D2D6F2D82E796E059D7C6
:101990000D2D10E082E796E03DD6081719071CF4DC
:1019A0006AE872E008C082E796E034D680179107B3
:1019B00034F467EA72E084E193E00E947D03F092E0
:1019C0005005A092510552E5E52E55E0F52EA12CCB
:1019D000B12CA016B1069CF042E04D0D20E535E09B
:1019E00067E784E193E00F90DF91CF911F910F9112
:1019F000FF90EF90DF90BF90AF900C94370382E799
:101A000096E008D6892B41F390DFF70181937F019F
:101A1000FFEFAF1ABF0ADDCFEF92FF920F931F9334
:101A2000CF93DF93162FEA0190E0FC01E956F1090C
:101A3000E231F10508F05CC2E258FF4F0C94041C3F
:101A40002981922F987125FF03C063EC72E057C083
:101A5000888126FB222720F931E02327983059F18D
:101A600040F4911145C2682F82E796E071D602E0FA
:101A700007C0903109F43DC0983109F46FC038C2F5
:101A8000011760F4FE01E00FF11D9181808120E8D3
:101A9000929F8019112445DF0E5FF2CF82E796E016
:101AA000D2D686E490E0DF91CF911F910F91FF9005
:101AB000EF900C94D8164A816B81163069F430E8A7
:101AC000639FB0011124640F711D9D814C8130E82A
:101AD000939F4019112406C090E8699F4019112472
:101AE0006FEF7FEFDF91CF911F910F91FF90EF90FC
:101AF00020CFE0910A02E73064F063EE72E084E107
:101B000093E0DF91CF911F910F91FF90EF900C9494
:101B10007D039A814B8130E8663061F4439FA001D8
:101B20001124490F511D3D819C8160E8369F901919
:101B3000112405C0439F901911244FEF5FEFEF5F11
:101B4000E0930A0265E0E602F0011124E057FA4F43
:101B500080835283418393832483CAC160910A02A4
:101B600016163CF470E0262F332727FD309595E0BC
:101B70000FC08FEF80930A02BBC1949FF001959F25
:101B8000F00D1124E057FA4F4081481739F07F5F7C
:101B9000472F50E02417350784F770E0C5E0872F02
:101BA00090E02817390724F1783000F5AC014F5F39
:101BB0005F4FC49FD001C59FB00D1124A057BA4FED
:101BC0004C91C89FF001C99FF00D1124E057FA4FC6
:101BD000408311968D919C911297928381831396E5
:101BE0008C911397838314968C9184837F5FD7CFD6
:101BF000615060930A027CC12881898130E8839F0B
:101C0000C0011124820F911D009721F090934E0581
:101C100080934D0580914F0581116AC1DF91CF916D
:101C20001F910F91FF90EF90D4CD653008F460C103
:101C300018810981FA80EB80CC818EEF810F84348A
:101C400008F056C1E12FF0E0E958FB4FE081E033A6
:101C500058F4F0E0CF01880F991F8E0F9F1F835417
:101C60009B4FC9D4811140C160E8C69FA0011124D7
:101C70004E0D511D80E8F89EB0011124600F711DBA
:101C8000812F61D864E070E0812FDF91CF911F91A7
:101C90000F91FF90EF9094CC623008F429C1288115
:101CA000898130E8839FC0011124820F911D909398
:101CB0000C0280930B02892B09F01AC181E090E09D
:101CC00090930C0280930B0213C1623008F410C190
:101CD000698170E0123091F08A8120E8829FC00112
:101CE0001124682B792B133049F08B8190E090E41C
:101CF000899F902D88271124682B792B8881DF916B
:101D0000CF911F910F91FF90EF900C948D0560EF94
:101D100084E193E00E9480036CE684E193E00E94FA
:101D20008003CEEF8CEC8C0F803158F462E084E1BC
:101D300093E00E9480036AE084E193E00E948003C4
:101D400002C0CC3020F086ED8C0F833050F463E07D
:101D500084E193E00E94800368E084E193E00E94C4
:101D60008003C43450F464E084E193E00E94800373
:101D70006EE084E193E00E9480038EEE8C0F82304F
:101D800050F466E084E193E00E94800361E084E126
:101D900093E00E9480036FE784E193E00E94800358
:101DA000CF5FC434B9F1C43408F0BCCF60E084E143
:101DB00093E00E94800361E084E193E00E9480034D
:101DC0006BE084E193E00E94800361E084E193E0B2
:101DD0000E94800361E084E193E00E94800361E05F
:101DE00084E193E00E9480039DCF662309F480C0C4
:101DF000C88160EF84E193E00E9480036EE684E195
:101E000093E00E9480036C2F84E193E00E948003A2
:101E1000C63458F067EF84E193E0DF91CF911F91D2
:101E20000F91FF90EF900C9480036C2F84E193E06E
:101E30000E94C003682F84E193E00E9480036C2F0E
:101E400084E193E00E94D103682F6F7784E193E0EF
:101E50000E9480036C2F84E193E00E94D10380787C
:101E6000892B79F06C2F84E193E00E94D103880FD5
:101E7000892F881F990B682F6F7784E193E00E9468
:101E800080036C2F84E193E00E94D1038827907C2B
:101E9000892B09F4BFCF6C2F84E193E00E94D1031A
:101EA000990F880B990F982F881F682F6F7784E1FF
:101EB00093E00E948003AECF60EF84E193E00E9444
:101EC00080036AE684E193E00E948003CAECC0319B
:101ED00010F06FE701C06C2F84E193E00E94800353
:101EE000CF5FC031A1F796CF812F0E94E806BCCE0C
:101EF000DF91CF911F910F91FF90EF9008958F92F6
:101F00009F92AF92BF92CF92DF92EF92FF920F9388
:101F10001F9336D884E193E00E947902892B29F03F
:101F200084E193E00E94C204F5CFEED66093BC0535
:101F30007093BD058093BE059093BF05C090B80512
:101F4000D090B905E090BA05F090BB0540910B0226
:101F500050910C024A01A12CB12C8B019C010C194F
:101F60001D092E093F0980169106A206B30608F046
:101F70004FC0D501C4018C0D9D1DAE1DBF1D8093AA
:101F8000B8059093B905A093BA05B093BB051AECB8
:101F900066E3610F1031D0F484E193E00E94C00346
:101FA0008230A1F42091DB053091DC05012E02C0C6
:101FB000359527950A94E2F720FF08C0812F65D751
:101FC000AC01612F84E193E00E94F1021F5F1031A8
:101FD000F9F680910A0287FD1BC010E005E0812F11
:101FE00090E020910A02332727FD30952817390702
:101FF0007CF0089FF001099FF00D1124E057FA4F83
:102000006181728124814381808193DC1F5FE7CFEE
:102010001F910F91FF90EF90DF90CF90BF90AF9006
:102020009F908F900895CF92DF92EF92FF920F933F
:102030001F93CF93DF936C018B017A01EC01C252A5
:10204000DA4F888187FF04C0FB011182108223C010
:102050002CE02C9DC0012D9D900D11242881AC01F8
:10206000420F511D27FD5A952091DD0530E04217A2
:1020700053078CF42881AC01420F511D27FD5A955E
:102080009A01FA01EE0FFF1FE20FF31FEE51FA4F14
:10209000208126FD19C088818F5F88838CE08C9D0C
:1020A00090018D9D300D11248881A901480F511D8B
:1020B00087FD5A958091DD0590E048175907B4F4E3
:1020C00088818C303CF112C02881820F911D27FD40
:1020D0009A95FC01EE0FFF1FE80FF91FEE51FA4F22
:1020E000808160E08F730E94B918D5CFF80180819C
:1020F0009181049680349C4918F480E49CE904C0E2
:10210000F801808191810496F701918380838FEF9C
:10211000888340C0F801808191814881B901640FB2
:10212000711D47FD7A95AB01FB01EE0FFF1FE40F18
:10213000F51FEE51FA4F41815281840F951FF7012F
:10214000918380838881A901480F511D87FD5A958D
:10215000FA01EE0FFF1FE40FF51FEE51FA4F8081D9
:1021600086FF18C08881280F311D87FD3A95F90137
:10217000EE0FFF1FE20FF31FEE51FA4F808161E077
:102180008F73DF91CF911F910F91FF90EF90DF90B0
:10219000CF90EFC7DF91CF911F910F91FF90EF90FC
:1021A000DF90CF9008951F920F920FB60F921124D7
:1021B0000BB60F922F933F934F935F936F937F9341
:1021C0008F939F93AF93BF93EF93FF9348E850E0B3
:1021D00064E870E081E090E026DFFF91EF91BF912D
:1021E000AF919F918F917F916F915F914F913F91AF
:1021F0002F910F900BBE0F900FBE0F901F90189550
:102200001F920F920FB60F9211240BB60F922F93BD
:102210003F934F935F936F937F938F939F93AF936E
:10222000BF93EF93FF9348E950E064E970E082E0E8
:1022300090E0F9DEFF91EF91BF91AF919F918F9167
:102240007F916F915F914F913F912F910F900BBEB6
:102250000F900FBE0F901F9018951F920F920FB600
:102260000F9211240BB60F922F933F934F935F93CE
:102270006F937F938F939F93AF93BF93EF93FF934E
:1022800048EA50E064EA70E083E090E0CCDEFF9141
:10229000EF91BF91AF919F918F917F916F915F91DE
:1022A0004F913F912F910F900BBE0F900FBE0F904B
:1022B0001F9018951F920F920FB60F9211240BB614
:1022C0000F922F933F934F935F936F937F938F93CF
:1022D0009F93AF93BF93EF93FF9348E251E064E283
:1022E00071E080E090E09FDEFF91EF91BF91AF91B0
:1022F0009F918F917F916F915F914F913F912F911E
:102300000F900BBE0F900FBE0F901F90189520914D
:10231000DD052033A0F431E0320F3093DD05FC0100
:102320002083822F90E0FC01EE0FFF1FE80FF91FC2
:10233000EE51FA4F88EB9BE09283818308952FEF53
:10234000FC0120830895DF92EF92FF920F931F9379
:10235000CF93DF93EC01D62E7A01890188818033F7
:1023600008F067C061E08D2DCBD68881A82FB0E042
:10237000FD01EE0FFF1FEA0FFB1FEE51FA4F2D2D4F
:102380002F739081907C922B908360E272E06E19A3
:102390007F0977FF02C06D5F7F4F759567957595D3
:1023A0006795698340E659E0401B510B57FF02C017
:1023B0004D5F5F4F55954795559547954A836CE01E
:1023C0000E94BA1B9CE0899FB001112420E030E0FC
:1023D000A901460F571FFA01EE0FFF1FE40FF51F6B
:1023E000EE51FA4F908196FD18C02F5F3F4F2C3071
:1023F000310571F790E08130910521F51092800050
:1024000082E0809381001092850010928400B19A3E
:1024100080916F00826080936F00888190E0FC0162
:10242000EE0FFF1FE80FF91FEE51FA4F8081806415
:1024300080838881DF91CF911F910F91FF90EF9062
:10244000DF9008958230910569F41092900082E047
:1024500080939100109295001092940088BB809315
:102460007100DBCF8330910569F41092A00082E007
:102470008093A1001092A5001092A40089BB8093C4
:102480007200CBCF892B49F61092200182E0809315
:10249000210110922501109224018ABB80937300C0
:1024A000BCCF20E639E040E252E04DCFFC01808114
:1024B00090E0FC01EE0FFF1FE80FF91FEE51FA4FFD
:1024C00080818F7B80830895FC018081803370F54B
:1024D000918128E830E0291B310997FD3395220FBF
:1024E000331F220F331F621773077CF0928128E598
:1024F00032E0291B310997FD3395220F331F220F3C
:10250000331F621773070CF49B0122503109220F0D
:10251000331F4FB7F89490E0FC01EE0FFF1FE80F58
:10252000F91FEE51FA4F328321834FBF08954F9226
:102530005F926F927F92AF92BF92CF92DF92EF92B3
:10254000FF920F931F93CF93DF93EC01603282E0F1
:1025500078070CF040C077FD06C0653B71052CF094
:1025600064EB70E002C060E070E0898128E830E050
:10257000281B310987FD3395220F331F220F331F8C
:102580005901CC24B7FCC094DC2C882777FD8095BA
:10259000982F2A8148E552E0421B510927FD5395A7
:1025A000440F551F440F551F2A01662457FC6094A1
:1025B000762C7F926F925F924F9214EBE12EF12C6A
:1025C00000E010E020E030E0A9010E94581B0F90CD
:1025D0000F900F900F90CE01DF91CF911F910F912F
:1025E000FF90EF90DF90CF90BF90AF907F906F9073
:1025F0005F904F9069CFFC01808190E0FC01EE0F6D
:10260000FF1FE80FF91FEE51FA4F808186FB8827E4
:1026100080F908958091A20690E02091A306821B84
:10262000910908952091A3068091A206281750F4DD
:10263000E22FF0E0EC55F94F808190E02F5F20937E
:10264000A30608958FEF9FEF0895E091A306809170
:10265000A206E81730F4F0E0EC55F94F808190E0E5
:1026600008958FEF9FEF08950895CF92DF92EF9234
:10267000FF920F931F93CF93DF937C01CB018A01CD
:1026800020917E06222389F0EB016B01C40ED51E3A
:10269000CC15DD0561F06991D701ED91FC910190B8
:1026A000F081E02DC7011995F3CF642F8CD1C801BB
:1026B000DF91CF911F910F91FF90EF90DF90CF901E
:1026C0000895CF93DF931F92CDB7DEB76983209132
:1026D0007E062223D1F020917F06203240F021E0B7
:1026E00030E0FC013383228380E090E014C08091CD
:1026F0008006E82FF0E0EF57F94F998190838F5FC4
:102700008093800680937F0604C061E0CE0101962D
:102710005AD181E090E00F90DF91CF910895FC01B4
:102720001382128248EE53E060E070E044835583E8
:102730006683778388EF92E0918380830895109277
:10274000A3061092A2061092800610927F0680C007
:1027500081E080937E066093A1061092800610921D
:102760007F0608950F93062F21E040917F0661E8D0
:1027700076E08091A106D0D01092800610927F065C
:1027800010927E060F9108958F929F92AF92BF9202
:10279000CF92DF92EF92FF920F931F93CF93DF932D
:1027A000EC01F62ED42E48015901EE2009F1D0DFBC
:1027B0001E2D143008F013E01150B8F0E881F981B3
:1027C00028E0129FB0011124A501940104C0569580
:1027D0004795379527956A95D2F7CA01B9010190B7
:1027E000F081E02DCE011995E7CF60E0CE01BADF90
:1027F0004D2D413208F040E22C2D64EA76E08F2D19
:1028000043D01092A3068093A206DF91CF911F912F
:102810000F91FF90EF90DF90CF90BF90AF909F907F
:102820008F900895CF92EF920F931F93C22EE12CB9
:1028300000E010E09801A8DF1F910F91EF90CF907A
:10284000089521E0EFCF61E08DCF82E796E067CF7A
:102850001092310781E080932F0710922E0761E0DC
:1028600084E187D461E085E184D4E9EBF0E0808104
:102870008E7F808380818D7F808388E48093B80001
:1028800085E48093BC000895413208F043C09091E4
:1028900031079111FCCF91E09093310720932F07DE
:1028A0002FEF2093C40610920907240F20930807E6
:1028B0009093300790913007880F892B80933007D1
:1028C00080912E07813061F410922E07809130079D
:1028D0008093BB008091BC0083FDF8CF85EC01C0E4
:1028E00085EE8093BC00809131078130E1F38091C7
:1028F0000907841710F4409109072AE037E0FB012B
:10290000D9018A2F821B841718F48D918193F9CFF6
:10291000842F089580E008950F93413208F04AC053
:10292000909131079111FCCF92E090933107009381
:102930002F079FEF9093C406109209074093080752
:10294000FB016AE077E0DB019A2F961B941718F4DD
:1029500091919D93F9CF1092300790913007880F95
:10296000892B8093300780912E07813061F410927B
:102970002E07809130078093BB008091BC0083FDBF
:10298000F8CF85EC01C085EE8093BC00222321F0B6
:10299000809131078230E1F38091C4068F3F61F06E
:1029A0008091C406803251F08091C406803341F496
:1029B00083E007C081E005C080E003C082E001C081
:1029C00084E00F910895613298F42091310724300A
:1029D00089F46093E606FC0188EE96E0DC012A2F7C
:1029E000281B261718F421912D93F9CF80E0089524
:1029F00081E0089582E0089585ED8093BC00809188
:102A0000BC0084FDFCCF10923107089585EC8093C3
:102A1000BC001092310708951F920F920FB60F92CB
:102A200011240BB60F922F933F934F935F936F93A5
:102A30007F938F939F93AF93BF93EF93FF93809177
:102A4000B900887F803609F49DC070F5883209F49A
:102A50005CC090F4803109F455C038F4882309F43F
:102A6000F3C0883009F44EC0F2C0883109F44DC07B
:102A7000803209F45EC0EBC0803409F469C050F4C0
:102A8000803309F456C0883309F0E1C08093C4064E
:102A9000BDDFDDC0803509F44FC0883509F45DC065
:102AA000883409F0D4C0D2C0883909F4C3C0A8F46E
:102AB000883709F467C038F4883609F463C0803772
:102AC00009F460C0C4C0883809F4B4C0803909F47E
:102AD0005FC0803809F0BBC05BC0803B09F482C096
:102AE00038F4803A09F466C0883A09F47BC0AFC074
:102AF000803C09F4A3C0883C09F4A0C0883B09F4D9
:102B000086C0A5C08091300710C0909109078091C0
:102B10000807981770F5E091090781E08E0F809300
:102B20000907F0E0E65FF84F80818093BB0085ECF9
:102B300082C08093C4068AC0E091090781E08E0FAD
:102B4000809309078091BB00F0E0E65FF84F808337
:102B500090910907809108076AC0E091090781E018
:102B60008E0F809309078091BB00F0E0E65FF84F7D
:102B7000808380912F07811169C081E080932E07A7
:102B800084EA5DC083E0809331071092C506CFCF01
:102B90008091C506803208F04DC0E091C50681E005
:102BA0008E0F8093C5068091BB00F0E0EA53F94F89
:102BB0008083BDCF2BDF8091C506803230F4E09159
:102BC000C506F0E0EA53F94F10826091C50670E047
:102BD000E0912A07F0912B0786EC96E01995109268
:102BE000C50635C084E0809331071092E706109245
:102BF000E606E0912C07F0912D0719958091E606E5
:102C0000811105C081E08093E6061092E806E0910C
:102C1000E70681E08E0F8093E706F0E0E851F94F78
:102C200080818093BB009091E7068091E60698171B
:102C300008F47DCF85E88093BC0009C085EC8093C3
:102C4000BC001092310703C01092C406D5DEFF917C
:102C5000EF91BF91AF919F918F917F916F915F9114
:102C60004F913F912F910F900BBE0F900FBE0F9081
:102C70001F9018951F920F920FB60F9211242F9349
:102C80003F938F939F93AF93BF938091330790911E
:102C90003407A0913507B09136073091320723E011
:102CA000230F2D3720F40196A11DB11D05C026E884
:102CB000230F0296A11DB11D209332078093330785
:102CC00090933407A0933507B09336078091370768
:102CD00090913807A0913907B0913A070196A11D4C
:102CE000B11D8093370790933807A0933907B093AD
:102CF0003A07BF91AF919F918F913F912F910F9084
:102D00000FBE0F901F9018952FB7F894609133075E
:102D10007091340780913507909136072FBF089541
:102D20003FB7F8948091370790913807A091390701
:102D3000B0913A0726B5A89B05C02F3F19F0019620
:102D4000A11DB11D3FBF6627782F892F9A2F620FD3
:102D5000711D811D911D42E0660F771F881F991F0D
:102D60004A95D1F70895CF92DF92EF92FF92CF93D9
:102D7000DF936B017C01D4DFEB01C114D104E104CA
:102D8000F10479F0E7D4CCDF6C1B7D0B683E734017
:102D9000A0F381E0C81AD108E108F108C851DC4F5E
:102DA000ECCFDF91CF91FF90EF90DF90CF9008951F
:102DB0008230910538F0880F991F880F991F059769
:102DC0000197F1F70895789484B5826084BD84B545
:102DD000816084BD85B5826085BD85B5816085BD16
:102DE000EEE6F0E0808181608083E1E8F0E010822F
:102DF000808182608083808181608083E0E8F0E070
:102E0000808181608083E1EBF0E080818460808359
:102E1000E0EBF0E0808181608083E1E9F0E0808197
:102E200082608083808181608083E0E9F0E080813E
:102E300081608083E1EAF0E080818260808380812C
:102E400081608083E0EAF0E0808181608083E1E25C
:102E5000F1E0808182608083808181608083E0E214
:102E6000F1E0808181608083EAE7F0E08081846026
:102E70008083808182608083808181608083808183
:102E8000806880831092C1000895863308F08653CD
:102E900020917B00982F9870277F922B90937B0036
:102EA000877020910D0290E4299F90011124822BBC
:102EB00080937C0080917A00806480937A00809176
:102EC0007A0086FDFCCF809178002091790090E017
:102ED000922B08951F93CF93DF93182FEB0161E09E
:102EE0000FD1209711F460E004C0CF3FD10531F439
:102EF00061E0812FDF91CF911F913BC1E12FF0E085
:102F0000E859FE4F449150E0FA013197E231F10562
:102F100008F09AC0E057FF4F77C484B5806884BD3D
:102F2000C7BD97C084B5806284BDC8BD92C0809182
:102F30008000806880938000D0938900C0938800CF
:102F400088C080918000806280938000D0938B0045
:102F5000C0938A007EC0809180008860809380004A
:102F6000D0938D00C0938C0074C08091B0008068B5
:102F70008093B000C093B3006CC08091B0008062B9
:102F80008093B000C093B40064C0809190008068CA
:102F900080939000D0939900C09398005AC080917C
:102FA0009000806280939000D0939B00C0939A0021
:102FB00050C080919000886080939000D0939D00D5
:102FC000C0939C0046C08091A00080688093A000C0
:102FD0008091A0008F7B8093A000D093A900C09324
:102FE000A80037C08091A00080628093A000D09399
:102FF000AB00C093AA002DC08091A0008860809390
:10300000A000D093AD00C093AC0023C080912001FC
:10301000806880932001D0932901C093280119C0B2
:1030200080912001806280932001D0932B01C09376
:103030002A010FC080912001886080932001D093E5
:103040002D01C0932C0105C0C038D1050CF050CF24
:103050004ACFDF91CF911F91089590E0FC01319705
:10306000E231F10508F04BC0EE55FF4FCDC3809122
:1030700080008F7703C0809180008F7D80938000D7
:10308000089580918000877FF9CF84B58F7702C043
:1030900084B58F7D84BD08958091B0008F7703C083
:1030A0008091B0008F7D8093B00008958091900052
:1030B0008F7707C0809190008F7D03C08091900032
:1030C000877F8093900008958091A0008F7707C03C
:1030D0008091A0008F7D03C08091A000877F8093A6
:1030E000A0000895809120018F7707C08091200172
:1030F0008F7D03C080912001877F809320010895F8
:10310000CF93DF9390E0FC01E255FE4F2491FC0148
:10311000EC50FE4F8491882349F190E0880F991F6D
:10312000FC01E259FD4FA591B4918C5A9D4FFC01D1
:10313000C591D4919FB7611108C0F8948C912095E6
:1031400082238C93888182230AC0623051F4F894E0
:103150008C91322F309583238C938881822B8883A6
:1031600004C0F8948C91822B8C939FBFDF91CF91F8
:1031700008950F931F93CF93DF931F92CDB7DEB7C0
:10318000282F30E0F901E859FE4F8491F901E2550A
:10319000FE4F1491F901EC50FE4F04910023C1F051
:1031A000882319F0698359DF6981E02FF0E0EE0F81
:1031B000FF1FEC5AFD4FA591B4919FB7F8948C91E5
:1031C000611103C01095812301C0812B8C939FBF97
:1031D0000F90DF91CF911F910F910895CF93DF93BF
:1031E000282F30E0F901E859FE4F8491F901E255AA
:1031F000FE4FD491F901EC50FE4FC491CC2389F0DD
:1032000081112BDFEC2FF0E0EE0FFF1FE65CFD4F8E
:10321000A591B4912C912D2381E090E021F480E0E0
:1032200002C080E090E0DF91CF910895FC01818D94
:10323000228D90E0805C9F4F821B91098F739927AC
:103240000895FC01918D828D981731F0828DE80FE1
:10325000F11D858D90E008958FEF9FEF0895FC019B
:10326000918D828D981761F0828DDF01A80FB11DBD
:103270005D968C91928D9F5F9F73928F90E00895E1
:103280008FEF9FEF089584EE9AE1892B39F080E06B
:1032900090E0892B19F098D1811125C080E090E051
:1032A000892B41F080E090E0892B21F00E94000002
:1032B00081111CC080E090E0892B41F080E090E01B
:1032C000892B21F00E940000811113C080E090E062
:1032D000892BA1F080E090E0892B81F00E94000012
:1032E00081110AC008950E940000D8CF0E940000FA
:1032F000E1CF0E940000EACF0C9400000895FC0189
:10330000848DDF01A80FB11DA35ABF4F2C91848D6E
:1033100090E001968F739927848FA689B7892C93A3
:10332000A089B1898C9180648C93938D848D98133E
:1033300006C00288F389E02D80818F7D8083089507
:10334000CF93DF93EC01888D8823C1F0EA89FB8954
:10335000808185FD05C0A889B9898C9186FD0EC044
:103360000FB607FCF5CF808185FFF2CFA889B98918
:103370008C9185FFEDCFCE01C2DFE8CFDF91CF91F9
:103380000895CF92DF92FF920F931F93CF93DF9315
:103390001F92CDB7DEB76C0181E0D60158968C93B1
:1033A00058975B969C915B975C968C915C97981371
:1033B00007C05096ED91FC915197808185FD2DC0FD
:1033C000F601038D10E00F5F1F4F0F731127F02ED2
:1033D000F601848DF81210C00FB607FCF9CFD601A4
:1033E0005096ED91FC915197808185FFF1CFC601F8
:1033F000698385DF6981ECCF838DE80FF11DE35A86
:10340000FF4F6083D6015B960C935B975296ED91CC
:10341000FC915397808180620CC0D6015696ED9145
:10342000FC91579760835096ED91FC915197808164
:103430008064808381E090E00F90DF91CF911F91B5
:103440000F91FF90DF90CF900895BF92CF92DF92BF
:10345000EF92FF92CF93DF93EC016A017B01B22ED2
:10346000E889F98982E08083411581EE580761057A
:10347000710599F060E079E08DE390E0A701960195
:1034800085D1215031094109510956954795379504
:103490002795211580E1380790F0E889F989108295
:1034A00060E874E88EE190E0A70196016FD12150A9
:1034B0003109410951095695479537952795EC856E
:1034C000FD853083EE85FF852083188EEC89FD898C
:1034D000B082EA89FB89808180618083EA89FB89E7
:1034E000808188608083EA89FB898081806880830D
:1034F000EA89FB8980818F7D8083DF91CF91FF9066
:10350000EF90DF90CF90BF9008951F920F920FB66B
:103510000F9211240BB60F922F938F939F93EF93DB
:10352000FF93E0914B07F0914C078081E0915107A8
:10353000F091520782FD12C09081809154078F5FF5
:103540008F7320915507821751F0E0915407F0E0F6
:10355000E55CF84F958F8093540701C08081FF91FF
:10356000EF919F918F912F910F900BBE0F900FBEF7
:103570000F901F9018951F920F920FB60F92112463
:103580000BB60F922F933F934F935F936F937F935D
:103590008F939F93AF93BF93EF93FF938BE397E04A
:1035A000AEDEFF91EF91BF91AF919F918F917F918F
:1035B0006F915F914F913F912F910F900BBE0F90A4
:1035C0000FBE0F901F9018958BE397E02FDE21E040
:1035D000892B09F420E0822F089510923E07109263
:1035E0003D0788EE93E0A0E0B0E080933F07909322
:1035F0004007A0934107B093420788E093E090937F
:103600003C0780933B0785EC90E0909348078093BC
:10361000470784EC90E090934A078093490780EC39
:1036200090E090934C0780934B0781EC90E090934F
:103630004E0780934D0782EC90E090935007809363
:103640004F0786EC90E090935207809351071092B9
:103650005407109255071092560710925707089575
:10366000CF92DF92EF92FF920F931F93CF93DF934E
:103670007C016A01EB0100E010E00C151D0571F002
:103680006991D701ED91FC910190F081E02DC70186
:103690001995892B19F00F5F1F4FEFCFC801DF91EC
:1036A000CF911F910F91FF90EF90DF90CF900895F1
:1036B0004F925F926F927F92AF92BF92CF92DF92C2
:1036C000EF92FF920F931F93CF93DF93CDB7DEB7A7
:1036D00029013A01621B730B840B950B2A893B89E4
:1036E0004C895D892A193B094C095D092A8B3B8B62
:1036F0004C8B5D8B9B01AC016A897B898C899D8990
:103700002AD0E418F50806091709A801970160D026
:103710002A0D3B1D4C1D5D1DCA01B901DF91CF91E2
:103720001F910F91FF90EF90DF90CF90BF90AF90DF
:103730007F906F905F904F900895089544DBFDDF78
:103740000E943B0CC3E4D9E10E947F0F2097E1F374
:103750009ADDFACF0895DB018F939F935BD0BF91E1
:10376000AF91A29F800D911DA39F900DB29F900DD0
:1037700011240895991B79E004C0991F961708F049
:10378000961B881F7A95C9F780950895A1E21A2E95
:10379000AA1BBB1BFD010DC0AA1FBB1FEE1FFF1FF5
:1037A000A217B307E407F50720F0A21BB30BE40B45
:1037B000F50B661F771F881F991F1A9469F760958C
:1037C0007095809590959B01AC01BD01CF01089546
:1037D000052E97FB16F400940FD057FD05D0D6DFC9
:1037E00007FC02D046F408C05095409530952195CD
:1037F0003F4F4F4F5F4F089590958095709561951D
:103800007F4F8F4F9F4F0895EE0FFF1F0590F4914C
:10381000E02D19940DD0A59F900DB49F900DA49FFD
:10382000800D911D112408950790F691E02D1994B3
:10383000A29FB001B39FC001A39F700D811D1124F1
:10384000911DB29F700D811D1124911D0895CF937C
:10385000DF938230910510F482E090E0E091DA0786
:10386000F091DB0720E030E0A0E0B0E0309739F1E4
:103870004081518148175907B8F04817590771F42A
:1038800082819381109729F013969C938E931297BF
:103890002CC09093DB078093DA0727C021153105F0
:1038A00031F04217530718F0A901DB0101C0EF0105
:1038B0009A01BD01DF010280F381E02DD7CF2115F0
:1038C0003105F9F0281B390B2430310580F48A8149
:1038D0009B816115710521F0FB019383828304C0F4
:1038E0009093DB078093DA07FE01329644C0FE0115
:1038F000E20FF31F8193919322503109398328837A
:103900003AC02091D8073091D907232B41F4209158
:103910000202309103023093D9072093D8072091F7
:103920000002309101022115310541F42DB73EB757
:103930004091040250910502241B350BE091D807F9
:10394000F091D907E217F307A0F42E1B3F0B2817BD
:10395000390778F0AC014E5F5F4F2417350748F008
:103960004E0F5F1F5093D9074093D80781939193CF
:1039700002C0E0E0F0E0CF01DF91CF910895CF9356
:10398000DF93009709F487C0FC01329713821282FB
:10399000C091DA07D091DB07209781F42081318133
:1039A000280F391F8091D8079091D9078217930764
:1039B00079F5F093D907E093D8076DC0DE0120E0D8
:1039C00030E0AE17BF0750F412964D915C911397FB
:1039D0009D014115510509F1DA01F3CFB383A283AB
:1039E00040815181840F951F8A179B0771F48D9137
:1039F0009C911197840F951F029691838083129654
:103A00008D919C911397938382832115310529F41D
:103A1000F093DB07E093DA073EC0D9011396FC93DD
:103A2000EE9312974D915D91A40FB51FEA17FB0716
:103A300079F480819181840F951F0296D9011196A6
:103A40009C938E938281938113969C938E9312976D
:103A5000E0E0F0E08A819B81009719F0FE01EC0123
:103A6000F9CFCE01029628813981820F931F2091D0
:103A7000D8073091D9072817390769F4309729F406
:103A80001092DB071092DA0702C013821282D093E1
:103A9000D907C093D807DF91CF910895FB01DC01CE
:103AA0004150504048F001900D920020C9F701C0EC
:103AB0001D9241505040E0F70895FC0181E090E0F4
:103AC0000190061609F4CF010020D1F7019708955F
:103AD000FB0151915523A9F0BF01DC014D91451720
:103AE0004111E1F759F4CD010190002049F04D91C9
:103AF00040154111C9F3FB014111EFCF81E090E086
:083B000001970895F894FFCF2E
:103B08000000DC07800001000000FF1300012E63A5
:103B18007070004D617820736572766F73206174E0
:103B280074616368656400556E6B6E6F776E2070A4
:103B3800696E206D6F6465002F55736572732F6110
:103B48006A6669736865722F6465762F696E746535
:103B5800726368616E67652D6669726D6174612F45
:103B68006275696C642F5374616E6461726446692E
:103B7800726D6174612F5374616E64617264466919
:103B8800726D6174612E696E6F004932433A205438
:103B98006F6F206D616E792062797465732072652C
:103BA800636569766564004932433A20546F6F2033
:103BB80066657720627974657320726563656976D6
:103BC80065640031302D62697420616464726573C4
:103BD80073696E67206E6F7420737570706F72747E
:103BE800656400746F6F206D616E79207175657200
:103BF8006965730000000000611335130A1312137E
:103C08002513341300000000C119301B16192F1991
:043C18002119A019B5
:00000001FF
