:100000003BC100006AC1000068C1000066C1000079
:1000100064C1000062C1000060C100005EC1000058
:100020005CC100005AC1000058C1000056C1000068
:1000300054C1000052C1000050C100004EC1000078
:100040004CC100000C94F40F48C1000046C10000F0
:1000500044C1000042C1000040C100000C94521590
:100060003CC100000C949D190C94D31936C10000BA
:1000700034C1000032C1000030C100002EC10000B8
:100080000C9421102AC1000028C1000026C10000E4
:1000900024C1000022C1000020C100000C942514DE
:1000A0001CC100001AC100000C944E1016C10000C3
:1000B00014C1000012C1000010C100000C947B109C
:1000C0000CC100000AC1000008C1000006C1000008
:1000D00004C1000002C1000000C10000FEC0000019
:1000E000FCC000007E0E9A0EC10D9A0E250E9A0ECF
:1000F0009F0D4F0D9A0E9A0E9A0E9A0E9A0E6B0C39
:100100009A0E360D9A0E860DA516AA16AF16B916BA
:10011000C3163C17CD16D516DD16E716F116FB16DD
:100120000A1714173C171E17281732175D17601788
:100130004F17531759179717641768176E177217C9
:1001400076177C178017841797178A178E179217C0
:1001500000000A0B02090C0D0E0807030401000041
:10016000000000000000000000000000000000008F
:10017000000000000000000000000000121110004C
:10018000000000000000000000000000000000006F
:10019000000000000000010210202008081020408C
:1001A000102040800201020108040201010204083B
:1001B00010204080804020100804020180040201C9
:1001C0008040201008040201080402010102040812
:1001D000102040800102040810204080050505051C
:1001E000070508080808020202020A0A08080404AF
:1001F00004040101010101010101030303030303DD
:100200000303040707070C0C0C0C0C0C0C0C02026B
:10021000020206060606060606060B0B0B0B0B0B68
:100220000B0B000020002300260029002C002F00CB
:100230003200000100000301060109010000220054
:10024000250028002B002E003100340002010000A0
:10025000050108010B0100002100240027002A00ED
:100260002D003000330001010000040107010A01E4
:100270000C05DB0B4613051A11241FBECFEFD1E28C
:10028000DEBFCDBF00E00CBF13E0A0E0B2E0E8E3CA
:10029000F9E300E00BBF02C007900D92A431B10753
:1002A000D9F727E0A4E1B3E001C01D92A13BB2075A
:1002B000E1F712E0C8E7D2E000E006C022970109AA
:1002C000FE010BBF0E942C1BC037D10780E008073E
:1002D000A9F70E94B61A0C949A1C92CE0F931F9302
:1002E000CF93DF93EC018B0188819981DC01ED9143
:1002F000FC916F770190F081E02D199588819981AB
:10030000DC01ED91FC91B801660F672F661F770B3A
:100310006F770190F081E02DDF91CF911F910F91C8
:100320001994DC018D919C91DC01ED91FC9101907F
:10033000F081E02D60EF1994DC018D919C91DC013E
:10034000ED91FC910190F081E02D67EF1994CF932E
:10035000DF93EC0188819981DC01ED91FC910190A2
:10036000F081E02D69EF199588819981DC01ED918B
:10037000FC910190F081E02D62E0199588819981CE
:10038000DC01ED91FC910190F081E02D64E0DF91C2
:10039000CF9119941F93CF93DF93EC018A81882327
:1003A000C1F1CE01BEDF88819981DC01ED91FC9124
:1003B0000190F081E02D69E7199588819981DC0130
:1003C000ED91FC91AB81BC810190F081E02D6C91AD
:1003D000199588819981DC01ED91FC91AB81BC81FB
:1003E0000190F081E02D11966C91199512E08A81AF
:1003F000181750F4EB81FC81E10FF11D608170E072
:10040000CE016CDF1F5FF3CFCE01DF91CF911F9143
:1004100093CFDF91CF911F910895CF92DF92EF920A
:10042000FF920F931F93CF93DF938C01EB01C42EA8
:10043000D22E6EE072E0CE010E94801C7C016FE241
:1004400070E0CE010E94751C009739F46CE570E0F5
:10045000CE010E94751C009711F0EC012196E11469
:10046000F10451F4FE0101900020E9F7EC1BEF5F6D
:10047000D8011296EC9306C0EC1AFD0AE394E394BB
:10048000F801E282D80113968D919C9114970E94F5
:10049000D71BF801E280F12CC70101960E943F1B97
:1004A000D80114969C938E931397FC01EE0DFF1DBB
:1004B0001082FC01C082D18212964C9150E04250D1
:1004C0005109BE010296DF91CF911F910F91FF90CC
:1004D000EF90DF90CF900C94661CDC018D919C9185
:1004E000DC01ED91FC910480F581E02D19940F93CE
:1004F0001F93CF93DF93FC012085213741F02937EB
:1005000009F048C0DF91CF911F910F9143CFFC01BB
:10051000E95AFF4F0190F081E02D309709F450C067
:10052000DC01A75BBF4F4D915C919A0121503109CD
:1005300037FD9A01B90175956795062F40E050E0A7
:1005400020E030E04E5F5F4F2017A0F4EC01C40FB5
:10055000D51F1F81DC01A20FB31F18961C9318979B
:10056000C885D0E8CD9F1019112418961C932F5FD1
:100570003F4FE8CFDC01A60FB11D17962C911797BE
:10058000222311F018961C920896DF91CF911F91AB
:100590000F911994FC01E75AFF4F0190F081E02D73
:1005A000309771F0AC01475F5F4FDC01A75BBF4F35
:1005B0006C916150822FDF91CF911F910F9119940F
:1005C000DF91CF911F910F9108950F931F93CF93B8
:1005D000DF93EC018A0188819981DC01ED91FC9126
:1005E0006F70606E0190F081E02D1995B801CE0119
:1005F000DF91CF911F910F9171CE0F931F93CF93E6
:10060000DF93EC018A0188819981DC01ED91FC91F5
:100610006F7060690190F081E02D19958881998152
:10062000DC01ED91FC91602F6F770190F081E02D5E
:10063000199588819981DC01ED91FC91B801660FD3
:10064000672F661F770B0190F081E02DDF91CF912E
:100650001F910F911994CF92DF92EF92FF920F9317
:100660001F93CF93DF9300D0CDB7DEB78C01F42E6C
:100670002A833B83698355DED8018D919C91DC01EF
:10068000ED91FC910190F081E02D698119952A810D
:10069000E22EC22E3B81D32E8C2D8E198F1538F46D
:1006A000F60161916F0170E0C80118DEF5CFC80155
:1006B0000F900F900F90DF91CF911F910F91FF90AE
:1006C000EF90DF90CF9038CE9A01FA010190002090
:1006D000E9F73197E41BF50B4E2FBDCFAB0161E776
:1006E000F3CFDC018D919C91DC01ED91FC910190A7
:1006F000F081E02D1994603DB9F028F4603961F083
:10070000603C71F00895603E19F0643F89F00895EF
:10071000FC01E55BFF4F0FC0FC01E35BFF4F0BC02B
:10072000FC01E15BFF4F07C0FC01EF5AFF4F03C024
:10073000FC01ED5AFF4F5183408308956F3F29F428
:10074000FC01EB5AFF4F518340830895875A9F4F16
:10075000FC01518340830895FC01158216821782A3
:1007600080E090E0DF01A80FB91F18961C92019657
:1007700080349105B9F7DF01A85BBF4F1C92119639
:100780001D921C92EB5AFF4F0190F081E02D3097A3
:1007900009F019940895FC01128214821382DCCFAF
:1007A000CF93DF93EC0188819981DC01ED91FC917D
:1007B0000680F781E02D1995FE01E85BFF4F20814F
:1007C0002223A9F0873F910529F41082CE01DF9101
:1007D000CF918DCEFE01E75BFF4F20813181C20FAB
:1007E000D31F88872F5F3F4F318320839BC02D818C
:1007F000222309F45EC0803891050CF05AC09FEFA7
:10080000920F9D83FE01E90FF11D808791118AC02F
:100810008E81882309F486C0803DE9F148F480394F
:10082000E9F0803C09F043C0FE01E15BFF4F36C0B8
:10083000803E19F0843F19F13AC0FE01E55BFF4F9D
:100840000190F081E02D309791F18885698570E005
:10085000B0E88B9F600D711D112427C0FE01E35B82
:10086000FF4F0190F081E02D309709F1888569856F
:1008700070E090E8899F600D711D112416C0FE0183
:10088000ED5AFF4F0190F081E02D309781F068859F
:1008900070E089850BC0FE01EF5AFF4F0190F08197
:1008A000E02D309721F0688570E08F8119951E82C8
:1008B00039C0803F91052CF4282F2F702F83807F23
:1008C0009927803E910519F154F4803C910509F176
:1008D000803D9105F1F08039910521F518C0843FE4
:1008E0009105A9F054F4803F9105E1F481E0808303
:1008F000C75BDF4F1982188215C0893F910569F0E7
:100900008F3F910579F4CE01DF91CF9125CF92E011
:1009100001C091E09D838E8305C084E193E0DF9167
:10092000CF9115CDDF91CF9108958F929F92AF9285
:10093000BF92CF92DF92EF92FF921F93CF93DF93FC
:10094000EB014A01690161E08DE00E94981710E017
:10095000EE24D7FCE094FE2CAA2497FCA094BA2C99
:10096000812F90E08C179D0794F4C701B6010E9477
:10097000CB1561E08DE00E94D117C501B4010E9442
:10098000CB1560E08DE00E94D1171F5FE9CFDF91AA
:10099000CF911F91FF90EF90DF90CF90BF90AF90DD
:1009A0009F908F900895CF93DF93EC0161E08DE0ED
:1009B0000E94981722ED30E048E250E062E070E0DB
:1009C000CE01B3DF6AEF70E080E090E00E94CB15CB
:1009D00022ED30E048E250E064E070E0CE01A5DFB7
:1009E0006DE770E080E090E0DF91CF910C94CB1543
:1009F000CF93DF93EC0126E080E197E00E943D1960
:100A000080E197E099838883CE01CDDFCE019FDC22
:100A1000CE01DF91CF91BECC84E193E0BCCE1F9399
:100A2000CF93DF93162F893008F070C0982F990F5D
:100A3000990F990F985F973408F096E4D82FDD0F3F
:100A4000DD0FDD0F8D2FC0E041E08917E8F42EEFB8
:100A5000280F2434B0F4E82FF0E0DF01A85ABA4F91
:100A60002C91223070F4C42BEE0FFF1FED53FB4F7F
:100A700021E030E0542F512311F420E030E03183A5
:100A80002083440F8F5FE1CFC0FF05C0612F6170ED
:100A90008D2F0E94D117C1FF06C0612F627081E0C7
:100AA0008D0F0E94D117C2FF06C0612F647082E0D3
:100AB0008D0F0E94D117C3FF06C0612F687083E0BD
:100AC0008D0F0E94D117C4FF06C0612F607184E0B2
:100AD0008D0F0E94D117C5FF06C0612F607285E09F
:100AE0008D0F0E94D117C6FF06C0612F607486E08B
:100AF0008D0F0E94D117C7FF09C0612F607887E072
:100B00008D0FDF91CF911F910C94D117DF91CF9171
:100B10001F9108950F931F93CF93DF93EB018634BA
:100B200070F5082F10E0F801E85AFA4F90819330E1
:100B3000A1F0943021F582508434D0F4F801EE55C0
:100B4000FC4F208130E0C901880F991F820F931F4D
:100B500088519C4F0E94B8110BC09EEF980F9C309B
:100B600020F094ED980F933018F4BE010E94821685
:100B7000F801EE0FFF1FED53FB4FD183C083DF91D0
:100B8000CF911F910F910895CF93C82F803150F5C9
:100B90004091B0055091B10521E030E0082E02C02F
:100BA000220F331F0A94E2F7672B49F42095309502
:100BB000242335233093B1052093B00513C0242B93
:100BC000352B3093B1052093B00580916F038111CF
:100BD00009C08C2F0E945D16AC016C2F84E193E05C
:100BE000CF91F3CCCF910895DB019A0190917003DE
:100BF0009033D0F540917103682F70E0442369F081
:100C0000E42FF0E0EF58FC4F8081FB01EE55FC4FE4
:100C1000808341504093710307C0FB01EE55FC4FA8
:100C200090839F5F90937003FB01EE55FC4F1A1663
:100C30001B067CF41216130664F4408150E0CA01CE
:100C4000880F991F840F951FAD0188519C4F0C94FC
:100C5000C410208130E0C901880F991F820F931FB3
:100C600088519C4F0C94721163E172E084E193E02F
:100C700035CDCF93DF93C82FD0E0CE55DC4F288100
:100C800030E0C901880F991F820F931F88519C4F34
:100C90000E947711888190917003891306C0882380
:100CA00079F08150809370030BC0992349F0E09153
:100CB0007103EF5FE0937103F0E0EF58FC4F808326
:100CC0008FEF8883DF91CF9108951F93CF93DF93A8
:100CD000162FC82FD0E0FE01E15BFA4F9081192357
:100CE000C256DA4F411103C09881911739F0412F54
:100CF00050E0682F84E193E080DC1883DF91CF918E
:100D00001F910895EF92FF920F931F93CF93DF935C
:100D1000E82E88E08E1508F47DC02E2D30E0F90114
:100D2000E955FA4F6083672B09F474C0F901E15B60
:100D3000FA4FF0800E2D000F000F000F8EEF800F86
:100D4000843408F057C0F0FE55C0802F0E9406186A
:100D5000892B09F44FC011E08FEF800F843448F4E1
:100D6000F1FE07C081E0800F0E940618892B09F070
:100D700043C0C02FD0E0F2FE06C082E0800F0E9488
:100D80000618892BD9F5F3FE06C083E0800F0E9478
:100D90000618892BA9F5F4FE06C084E0800F0E9496
:100DA0000618892B79F5F5FE06C085E0800F0E94B4
:100DB0000618892B49F5C034D10541F0F6FE06C06E
:100DC00086E0800F0E940618892B01F5EF9744F406
:100DD000F7FE06C087E0800F0E940618892BC1F439
:100DE00041E0612F8E2DDF91CF911F910F91FF90E8
:100DF000EF906BCF10E0B0CF1260BBCF1460C3CFC9
:100E00001860C9CF1061CFCF1062D5CF1064DECF8C
:100E10001068E6CFDF91CF911F910F91FF90EF9077
:100E20000895CF93DF938091A7058823B9F1D091DE
:100E30004F05D2FF85C282E00E940618892B09F473
:100E40007FC2C4E0D3FF06C083E00E940618892B4E
:100E500009F078C2D4FF06C084E00E940618892BEE
:100E600009F072C2D5FF06C085E00E940618892BE2
:100E700009F06CC2D6FF06C086E00E940618892BD6
:100E800009F066C2D7FF06C087E00E940618892BCA
:100E900009F060C240E06C2F80E017DF8091A80568
:100EA000882309F447C0D0915005D0FF55C288E08F
:100EB0000E940618892B09F44FC2C1E0D1FF06C079
:100EC00089E00E940618892B09F048C2D2FF06C0AB
:100ED0008AE00E940618892B09F042C2D3FF06C09F
:100EE0008BE00E940618892B09F03CC2D4FF06C093
:100EF0008CE00E940618892B09F036C2D5FF06C087
:100F00008DE00E940618892B09F030C2D6FF06C07A
:100F10008EE00E940618892B09F02AC2D7FF06C06E
:100F20008FE00E940618892B09F024C240E06C2F44
:100F300081E0CBDE8091A905882309F447C0D091D8
:100F40005105D0FF19C280E10E940618892B09F4CF
:100F500013C2C1E0D1FF06C081E10E940618892BAF
:100F600009F00CC2D2FF06C082E10E940618892B4C
:100F700009F006C2D3FF06C083E10E940618892B40
:100F800009F000C2D4FF06C084E10E940618892B34
:100F900009F0FAC1D5FF06C085E10E940618892B29
:100FA00009F0F4C1D6FF06C086E10E940618892B1D
:100FB00009F0EEC1D7FF06C087E10E940618892B11
:100FC00009F0E8C140E06C2F82E07FDE8091AA0545
:100FD000882309F447C0D0915205D0FFDDC188E1D4
:100FE0000E940618892B09F4D7C1C1E0D1FF06C0C1
:100FF00089E10E940618892B09F0D0C1D2FF06C0F2
:101000008AE10E940618892B09F0CAC1D3FF06C0E5
:101010008BE10E940618892B09F0C4C1D4FF06C0D9
:101020008CE10E940618892B09F0BEC1D5FF06C0CD
:101030008DE10E940618892B09F0B8C1D6FF06C0C1
:101040008EE10E940618892B09F0B2C1D7FF06C0B5
:101050008FE10E940618892B09F0ACC140E06C2F8B
:1010600083E033DE8091AB05882309F447C0D0913B
:101070005305D0FFA1C180E20E940618892B09F414
:101080009BC1C1E0D1FF06C081E20E940618892BF6
:1010900009F094C1D2FF06C082E20E940618892B93
:1010A00009F08EC1D3FF06C083E20E940618892B87
:1010B00009F088C1D4FF06C084E20E940618892B7B
:1010C00009F082C1D5FF06C085E20E940618892B6F
:1010D00009F07CC1D6FF06C086E20E940618892B63
:1010E00009F076C1D7FF06C087E20E940618892B57
:1010F00009F070C140E06C2F84E0E7DD8091AC0521
:10110000882309F447C0D0915405D0FF65C188E217
:101110000E940618892B09F45FC1C1E0D1FF06C007
:1011200089E20E940618892B09F058C1D2FF06C037
:101130008AE20E940618892B09F052C1D3FF06C02B
:101140008BE20E940618892B09F04CC1D4FF06C01F
:101150008CE20E940618892B09F046C1D5FF06C013
:101160008DE20E940618892B09F040C1D6FF06C007
:101170008EE20E940618892B09F03AC1D7FF06C0FB
:101180008FE20E940618892B09F034C140E06C2FD1
:1011900085E09BDD8091AD05882309F447C0D0919F
:1011A0005505D0FF29C180E30E940618892B09F458
:1011B00023C1C1E0D1FF06C081E30E940618892B3C
:1011C00009F01CC1D2FF06C082E30E940618892BD9
:1011D00009F016C1D3FF06C083E30E940618892BCD
:1011E00009F010C1D4FF06C084E30E940618892BC1
:1011F00009F00AC1D5FF06C085E30E940618892BB5
:1012000009F004C1D6FF06C086E30E940618892BA8
:1012100009F0FEC0D7FF06C087E30E940618892B9D
:1012200009F0F8C040E06C2F86E04FDD8091AE05FC
:10123000882309F447C0D0915605D0FFEDC088E35C
:101240000E940618892B09F4E7C0C1E0D1FF06C04F
:1012500089E30E940618892B09F0E0C0D2FF06C07E
:101260008AE30E940618892B09F0DAC0D3FF06C072
:101270008BE30E940618892B09F0D4C0D4FF06C066
:101280008CE30E940618892B09F0CEC0D5FF06C05A
:101290008DE30E940618892B09F0C8C0D6FF06C04E
:1012A0008EE30E940618892B09F0C2C0D7FF06C042
:1012B0008FE30E940618892B09F0BCC040E06C2F18
:1012C00087E003DD8091AF05882309F4C1C0D09188
:1012D0005705D0FFB1C080E40E940618892B09F49D
:1012E000ABC0C1E0D1FF06C081E40E940618892B83
:1012F00009F0A4C0D2FF06C082E40E940618892B20
:1013000009F09EC0D3FF06C083E40E940618892B13
:1013100009F098C0D4FF06C084E40E940618892B07
:1013200009F092C0D5FF06C085E40E940618892BFB
:1013300009F08CC040E06C2F88E0DF91CF91C5CCE4
:10134000C0E080CDC86086CDC0618CCDC06292CD3A
:10135000C06498CDC0689ECDC0E0B0CDC260B6CDAF
:10136000C460BCCDC860C2CDC061C8CDC062CECDA6
:10137000C064D4CDC068DACDC0E0ECCDC260F2CD9F
:10138000C460F8CDC860FECDC06104CEC0620ACE94
:10139000C06410CEC06816CEC0E028CEC2602ECE8B
:1013A000C46034CEC8603ACEC06140CEC06246CE82
:1013B000C0644CCEC06852CEC0E064CEC2606ACE7B
:1013C000C46070CEC86076CEC0617CCEC06282CE72
:1013D000C06488CEC0688ECEC0E0A0CEC260A6CE6B
:1013E000C460ACCEC860B2CEC061B8CEC062BECE62
:1013F000C064C4CEC068CACEC0E0DCCEC260E2CE5B
:10140000C460E8CEC860EECEC061F4CEC062FACE51
:10141000C06400CFC06806CFC0E018CFC2601ECF46
:10142000C46024CFC8602ACFC06130CFC06236CF3D
:10143000C0643CCFC06842CFC0E054CFC2605ACF36
:10144000C46060CFC86066CFC0616CCFC06272CF2D
:10145000DF91CF91089510927A048FEF80930A0262
:101460000895AF92BF92DF92EF92FF920F931F9376
:10147000CF93DF931F921F92CDB7DEB7D82E5B01BB
:10148000E82EF12C8701085A1A4FF80180818F3716
:1014900009F4F6C0863041F480917A04882321F063
:1014A0006630710509F0D7DF4EEF4D0D4434B8F4C6
:1014B00084E0A816B10499F0F701EE55FC4F2081A5
:1014C000203368F430E0C901880F991F820F931F01
:1014D00088519C4F4A83B0D74A818111BBC09AEC96
:1014E0009D0D903170F461E070E0E2E0AE16B10461
:1014F00011F060E070E0892F4A83998345DB998180
:101500004A814434D8F4ED2DE695E695E6958D2D87
:101510008770F0E0E15BFA4F21E030E0082E01C077
:10152000220F0A94EAF7A114B10421F48081822BDE
:10153000808304C02095808128232083F701EE0F4B
:10154000FF1FED53FB4F11821082F2E0AF16B10482
:10155000A1F03CF4A114B104F9F0AA94AB2851F124
:1015600069C0F4E0AF16B10409F443C084F1E6E0C9
:10157000AE16B10409F456C05DC0903108F080C0C9
:10158000443440F460E08D2D0E94981760E08D2D6A
:101590000E94D11782E04BC0443408F071C060E073
:1015A0008D2D0E94981760E08D2D0E94D117F801B3
:1015B000108266C0443408F063C060E08D2D0E9444
:1015C000D11761E08D2D0E94981781E030C04C301A
:1015D00028F084ED8D0D833008F052C061E08D2D30
:1015E0000E94981760E070E08D2D0E94821683E0C3
:1015F0001EC0443408F044C084E0F8018083F70141
:10160000EE55FC4F80818F3F51F190E09C01220FFD
:10161000331F280F391FC90188519C4F0DD78111E5
:101620002FC01DC08CEE8D0D823050F586E0F80184
:10163000808326C067E272E084E193E00F900F9010
:10164000DF91CF911F910F91FF90EF90DF90BF90AE
:10165000AF9044C88D2D4A830CDB4A8140CF4FEFB9
:101660005FEF6FEF7FEF8D2D0F900F90DF91CF9198
:101670001F910F91FF90EF90DF90BF90AF90B4CA91
:101680000F900F90DF91CF911F910F91FF90EF90EE
:10169000DF90BF90AF900895CF93C0E08CEE8C0F99
:1016A000823020F466E070E08C2FDBDECF5FC63442
:1016B000A9F781E080937A0487E496E0CF9160C730
:1016C0000F931F93CF93DF9381E080936F038091FB
:1016D0007A048111C0DEE7EAF5E0CFE4D5E0AEE9B7
:1016E000B5E0119219921D9285E0E03BF807C9F729
:1016F000C2EAD3E010E00FEF8AEC810F803118F4DA
:1017000062E070E002C061E070E0812FAADE099320
:101710001F5F163489F71092B1051092B005109230
:1017200071031092700310926F03DF91CF911F919C
:101730000F91089524E042E068E372E084E193E0D1
:101740000E940D024AE855E060EE84E193E00E94B9
:101750007B034FE055E060E984E193E00E947B0366
:1017600044EC55E060EC84E193E00E947B0342E8A6
:1017700056E060ED84E193E00E947B0341E35AE090
:1017800064EF84E193E00E947B0347E55CE060EF57
:1017900084E193E00E94A60340E65BE06FEF84E102
:1017A00093E00E949E0340E051EE60E070E084E12F
:1017B00093E01ED985CFCF93DF93C8EED3E0CE015F
:1017C000C7D4239684E0C837D807C9F7DF91CF91F3
:1017D0000895682F87E496E095C687E496E043C6AF
:1017E0000895DF92EF92FF920F931F93CF93DF93B1
:1017F000F82EEB01D42E6F3F8FEF780791F06F2D0D
:1018000087E496E0C6D68C2FE4DF87E496E03CD7E9
:101810008091780490917904009729F00E94F01546
:1018200002C0C0E0D0E04D2D6F2D87E496E02AD7AE
:101830000D2D10E087E496E00ED6081719071CF46A
:101840006AE872E008C087E496E005D68017910741
:1018500034F467EA72E084E193E00E946E03F09250
:101860007B04C0937C046DE7E62E64E0F62EC0E0B6
:10187000D0E0C017D10784F042E04D0D2BE734E0F3
:1018800067E784E193E0DF91CF911F910F91FF9083
:10189000EF90DF900C942B0387E496E0DCD5892B46
:1018A00059F39BDFF70181937F012196E2CFEF92FD
:1018B000FF920F931F93CF93DF93162FEA0190E0CF
:1018C000FC01E956F109E231F10508F033C2EE58A6
:1018D000FF4F0C941C1B8981982F987185FF03C0C2
:1018E00063EC72E052C08881983059F140F4911154
:1018F00021C2682F87E496E04CD602E007C0903101
:1019000009F43DC0983109F46EC014C2011760F4A7
:10191000FE01E00FF11D9181808120E8929F8019E6
:10192000112457DF0E5FF2CF87E496E0ADD686E450
:1019300090E0DF91CF911F910F91FF90EF900C9469
:10194000F0154A816B81163069F430E8639FB0016D
:101950001124640F711D9D814C8150E8959F4019A1
:10196000112406C090E8699F401911246FEF7FEFA2
:10197000DF91CF911F910F91FF90EF9032CFE091C7
:101980000A02E73064F063EE72E084E193E0DF91F5
:10199000CF911F910F91FF90EF900C946E039A815D
:1019A0002B81F0E8663061F42F9F90011124290FFC
:1019B000311D4D819C8150E8459F9019112405C02F
:1019C0002F9F901911242FEF3FEFEF5FE0930A0252
:1019D00044E0E402F0011124E556FB4F808332839A
:1019E00021839383A7C150910A02151634F440E075
:1019F000252F332727FD30950EC08FEF80930A02E5
:101A000099C1EE0FFF1FEE0FFF1FE556FB4F9081B0
:101A1000981719F14F5FE42FF0E02E173F078CF76E
:101A200040E01BC04830C0F4DF01AA0FBB1FAA0F63
:101A3000BB1FA156BB4F8C91EE0FFF1FEE0FFF1F78
:101A4000E556FB4F808311968D919C91129792835E
:101A5000818313968C9183834F5FE42FF0E02E17E0
:101A60003F0704F7515050930A0264C128818981CD
:101A700050E8859FC0011124820F911D009721F02D
:101A8000909379048093780480917A04811152C1F3
:101A9000DF91CF911F910F91FF90EF90FDCD6530B9
:101AA00008F448C118810981FA80EB80CC818EEF5F
:101AB000810F843408F03EC1E12FF0E0EE55FC4F79
:101AC000E081E03358F4F0E0CF01880F991F8E0FCA
:101AD0009F1F88519C4FB0D4811128C180E8C89FB6
:101AE000A00111244E0D511D90E8F99EB001112462
:101AF000600F711D812F78D864E070E0812FDF9135
:101B0000CF911F910F91FF90EF90ABCC623008F412
:101B100011C128818981E0E88E9FC0011124820FC4
:101B2000911D90930C0280930B020A9708F002C15A
:101B30008AE090E090930C0280930B02FBC062302D
:101B400008F4F8C0698170E0123091F08A81F0E801
:101B50008F9FC0011124682B792B133049F08B81A2
:101B600090E090E4899F902D88271124682B792B91
:101B70008881DF91CF911F910F91FF90EF900C948E
:101B80008A0560EF84E193E00E9471036CE684E1D2
:101B900093E00E947103CEEF8CEC8C0F803158F4EF
:101BA00062E084E193E00E9471036AE084E193E0E3
:101BB0000E94710302C0CC3020F086ED8C0F833080
:101BC00050F463E084E193E00E94710368E084E1F3
:101BD00093E00E947103C43450F464E084E193E024
:101BE0000E9471036EE084E193E00E9471038EEE27
:101BF0008C0F823050F466E084E193E00E94710320
:101C000061E084E193E00E9471036FE784E193E077
:101C10000E947103CF5FC43469F1C43408F0BCCFB3
:101C200060E084E193E00E94710361E084E193E06D
:101C30000E94710361E084E193E00E94710361E01E
:101C400084E193E00E947103A7CF662309F472C078
:101C5000C88160EF84E193E00E9471036EE684E145
:101C600093E00E9471036C2F84E193E00E94710362
:101C7000C63458F067EF84E193E0DF91CF911F9174
:101C80000F91FF90EF900C947103D0E0FE01E85AA1
:101C9000FA4F608184E193E00E947103CC0FDD1F55
:101CA0008E010D531B4FF80160816F7784E193E043
:101CB0000E947103F80160817181CB018078892BCA
:101CC00049F0660F672F661F770B6F7784E193E00B
:101CD0000E947103CD53DB4F68817981CB01882746
:101CE000907C892B39F2770F660B770F762F661F62
:101CF0006F7784E193E00E947103BCCF60EF84E1D1
:101D000093E00E9471036AE684E193E00E9471030C
:101D1000CAECC03110F06FE701C06C2F84E193E092
:101D20000E947103CF5FC031A1F7A4CF812F0E9421
:101D30003906D4CEDF91CF911F910F91FF90EF9094
:101D400008958F929F92AF92BF92CF92DF92EF92BF
:101D5000FF920F931F93CF93DF9363D884E193E0B7
:101D60000E946D02892B29F084E193E00E94D00348
:101D7000F5CFE2D66093BF047093C0048093C10492
:101D80009093C204C090BB04D090BC04E090BD040A
:101D9000F090BE0440910B0250910C024A01A12C1C
:101DA000B12C8B019C010C191D092E093F098016CD
:101DB0009106A206B30608F04AC0D501C4018C0DF5
:101DC0009D1DAE1DBF1D8093BB049093BC04A093CA
:101DD000BD04B093BE04C8E5D5E01AEC1031B8F4E8
:101DE00088818230A1F42091B0053091B105012E97
:101DF00002C0359527950A94E2F720FF08C0812F8D
:101E00005CD7AC01612F84E193E00E94E5021F5F83
:101E10002196103119F780910A0287FD18C0C0E0A1
:101E2000EC2FF0E080910A02992787FD90958E179C
:101E30009F076CF0EE0FFF1FEE0FFF1FE556FB4FE5
:101E40006181728143818081CCDCCF5FE9CFDF91FA
:101E5000CF911F910F91FF90EF90DF90CF90BF90A7
:101E6000AF909F908F900895CF92DF92EF92FF9264
:101E70000F931F93CF93DF936C018B017A01EC01D9
:101E8000CD54DA4F888187FF04C0FB011182108294
:101E900023C02CE02C9DC0012D9D900D1124288184
:101EA000AC01420F511D27FD5A952091B20530E03B
:101EB000421753078CF42881AC01420F511D27FDB6
:101EC0005A959A01FA01EE0FFF1FE20FF31FE95432
:101ED000FA4F208126FD19C088818F5F88838CE0AE
:101EE0008C9D90018D9D300D11248881A901480F92
:101EF000511D87FD5A958091B20590E0481759070A
:101F0000B4F488818C303CF112C02881820F911D7D
:101F100027FD9A95FC01EE0FFF1FE80FF91FE9540A
:101F2000FA4F808160E08F730E94D117D5CFF801FE
:101F300080819181049680349C4918F480E49CE966
:101F400004C0F801808191810496F7019183808318
:101F50008FEF888340C0F801808191814881B90169
:101F6000640F711D47FD7A95AB01FB01EE0FFF1F5A
:101F7000E40FF51FE954FA4F41815281840F951FF8
:101F8000F701918380838881A901480F511D87FD46
:101F90005A95FA01EE0FFF1FE40FF51FE954FA4FAF
:101FA000808186FF18C08881280F311D87FD3A95F2
:101FB000F901EE0FFF1FE20FF31FE954FA4F808182
:101FC00061E08F73DF91CF911F910F91FF90EF90A0
:101FD000DF90CF90E6C7DF91CF911F910F91FF90D7
:101FE000EF90DF90CF9008951F920F920FB60F924F
:101FF00011240BB60F922F933F934F935F936F93E0
:102000007F938F939F93AF93BF93EF93FF9348E892
:1020100050E064E870E081E090E026DFFF91EF910E
:10202000BF91AF919F918F917F916F915F914F91F0
:102030003F912F910F900BBE0F900FBE0F901F90EE
:1020400018951F920F920FB60F9211240BB60F9294
:102050002F933F934F935F936F937F938F939F93B0
:10206000AF93BF93EF93FF9348E950E064E970E0CA
:1020700082E090E0F9DEFF91EF91BF91AF919F91E7
:102080008F917F916F915F914F913F912F910F9021
:102090000BBE0F900FBE0F901F9018951F920F92BE
:1020A0000FB60F9211240BB60F922F933F934F93BD
:1020B0005F936F937F938F939F93AF93BF93EF93B0
:1020C000FF9348EA50E064EA70E083E090E0CCDE01
:1020D000FF91EF91BF91AF919F918F917F916F9100
:1020E0005F914F913F912F910F900BBE0F900FBEBC
:1020F0000F901F9018951F920F920FB60F921124F8
:102100000BB60F922F933F934F935F936F937F93F1
:102110008F939F93AF93BF93EF93FF9348E251E068
:1021200064E271E080E090E09FDEFF91EF91BF916B
:10213000AF919F918F917F916F915F914F913F915F
:102140002F910F900BBE0F900FBE0F901F90189500
:102150002091B2052033A0F431E0320F3093B20564
:10216000FC012083822F90E0FC01EE0FFF1FE80F9F
:10217000F91FE954FA4F88EB9BE09283818308951D
:102180002FEFFC0120830895DF92EF92FF920F93CF
:102190001F93CF93DF93EC01D62E7A0189018881BA
:1021A000803308F067C061E08D2DC2D68881A82FEA
:1021B000B0E0FD01EE0FFF1FEA0FFB1FE954FA4FDD
:1021C0002D2D2F739081907C922B908360E272E092
:1021D0006E197F0977FF02C06D5F7F4F7595679518
:1021E00075956795698340E659E0401B510B57FF91
:1021F00002C04D5F5F4F55954795559547954A836A
:102200006CE00E94D21A9CE0899FB001112420E06A
:1022100030E0A901460F571FFA01EE0FFF1FE40F30
:10222000F51FE954FA4F908196FD18C02F5F3F4F7C
:102230002C30310571F790E08130910521F5109235
:10224000800082E0809381001092850010928400CB
:10225000B19A80916F00826080936F00888190E0D6
:10226000FC01EE0FFF1FE80FF91FE954FA4F8081C0
:10227000806480838881DF91CF911F910F91FF90BF
:10228000EF90DF9008958230910569F410929000EC
:1022900082E080939100109295001092940088BB88
:1022A00080937100DBCF8330910569F41092A00018
:1022B00082E08093A1001092A5001092A40089BB37
:1022C00080937200CBCF892B49F61092200182E0D7
:1022D0008093210110922501109224018ABB8093E2
:1022E0007300BCCF20E639E040E252E04DCFFC0164
:1022F000808190E0FC01EE0FFF1FE80FF91FE95409
:10230000FA4F80818F7B80830895FC018081803328
:1023100070F5918128E830E0291B310997FD33954C
:10232000220F331F220F331F621773077CF0928135
:1023300028E532E0291B310997FD3395220F331F21
:10234000220F331F621773070CF49B0122503109CF
:10235000220F331F4FB7F89490E0FC01EE0FFF1FE0
:10236000E80FF91FE954FA4F328321834FBF0895D4
:102370004F925F926F927F92AF92BF92CF92DF9215
:10238000EF92FF920F931F93CF93DF93EC01603294
:1023900082E078070CF040C077FD06C0653B710510
:1023A0002CF064EB70E002C060E070E0898128E806
:1023B00030E0281B310987FD3395220F331F220F90
:1023C000331F5901CC24B7FCC094DC2C882777FD3F
:1023D0008095982F2A8148E552E0421B510927FD3C
:1023E0005395440F551F440F551F2A01662457FC6F
:1023F0006094762C7F926F925F924F9214EBE12E55
:10240000F12C00E010E020E030E0A9010E94701AF9
:102410000F900F900F900F90CE01DF91CF911F91F1
:102420000F91FF90EF90DF90CF90BF90AF907F9093
:102430006F905F904F9069CFFC01808190E0FC012C
:10244000EE0FFF1FE80FF91FE954FA4F808186FB5A
:10245000882780F908958091770690E0209178068A
:10246000821B91090895209178068091770628179C
:1024700050F4E22FF0E0E758F94F808190E02F5FB1
:102480002093780608958FEF9FEF0895E0917806E6
:1024900080917706E81730F4F0E0E758F94F808133
:1024A00090E008958FEF9FEF08950895CF92DF9207
:1024B000EF92FF920F931F93CF93DF937C01CB0199
:1024C0008A0120915306222389F0EB016B01C40E8F
:1024D000D51ECC15DD0561F06991D701ED91FC9118
:1024E0000190F081E02DC7011995F3CF642F84D1BD
:1024F000C801DF91CF911F910F91FF90EF90DF9076
:10250000CF900895CF93DF931F92CDB7DEB7698345
:10251000209153062223D1F020915406203240F01E
:1025200021E030E0FC013383228380E090E014C09E
:1025300080915506E82FF0E0EA5AF94F998190838F
:102540008F5F809355068093540604C061E0CE01EE
:10255000019652D181E090E00F90DF91CF910895E4
:10256000FC011382128248EE53E060E070E0448385
:1025700055836683778388EF92E091838083089503
:102580001092780610927706109255061092540613
:1025900080C081E0809353066093760610925506C2
:1025A0001092540608950F93062F21E0409154068F
:1025B00066E576E080917606CCD0109255061092B2
:1025C0005406109253060F9108958F929F92AF92E6
:1025D000BF92CF92DF92EF92FF920F931F93CF9310
:1025E000DF93EC01F62ED42E48015901EE2009F1BB
:1025F000D0DF1E2D143008F013E01150B8F0E88140
:10260000F98128E0129FB0011124A501940104C0B2
:1026100056954795379527956A95D2F7CA01B9011E
:102620000190F081E02DCE011995E7CF60E0CE0159
:10263000BADF4D2D413208F040E22C2D69E776E0FB
:102640008F2D43D01092780680937706DF91CF913B
:102650001F910F91FF90EF90DF90CF90BF90AF90C0
:102660009F908F900895CF92EF920F931F93C22E59
:10267000E12C00E010E09801A8DF1F910F91EF908E
:10268000CF90089521E0EFCF61E08DCF87E496E011
:1026900067CF1092060781E080930407109203072A
:1026A00061E084E17ED461E085E17BD4E9EBF0E098
:1026B00080818E7F808380818D7F808388E480937A
:1026C000B80085E48093BC000895413208F03FC013
:1026D000909106079111FCCF91E09093060720930B
:1026E00004072FEF209399061092DE06240F209303
:1026F000DD069093050790910507880F892B80933D
:10270000050780910307813041F4109203078091FF
:1027100005078093BB0085EC01C085EE8093BC006B
:10272000809106078130E1F38091DE06841710F472
:102730004091DE062FED36E0FB01D9018A2F821B86
:10274000841718F48D918193F9CF842F089580E038
:1027500008950F93413208F046C0909106079111F9
:10276000FCCF92E090930607009304079FEF9093AD
:1027700099061092DE064093DD06FB016FED76E0D0
:10278000DB019A2F961B941718F491919D93F9CF22
:102790001092050790910507880F892B80930507F4
:1027A00080910307813041F410920307809105075F
:1027B0008093BB0085EC01C085EE8093BC00222392
:1027C00021F0809106078230E1F3809199068F3FD6
:1027D00061F080919906803251F0809199068033A2
:1027E00041F483E007C081E005C080E003C082E0DF
:1027F00001C084E00F910895613298F4209106079A
:10280000243089F46093BB06FC018DEB96E0DC017B
:102810002A2F281B261718F421912D93F9CF80E039
:10282000089581E0089582E0089585ED8093BC00CD
:102830008091BC0084FDFCCF10920607089585ECC2
:102840008093BC001092060708951F920F920FB656
:102850000F9211240BB60F922F933F934F935F93D8
:102860006F937F938F939F93AF93BF93EF93FF9358
:102870008091B900887F803609F49CC068F5883261
:1028800009F45BC090F4803109F454C038F4882313
:1028900009F4F2C0883009F44DC0F1C0883109F460
:1028A0004CC0803209F45DC0EAC0803409F468C0CD
:1028B00048F4803309F455C0883309F0E0C08093B0
:1028C0009906A6C0803509F44FC0883509F45DC06B
:1028D000883409F0D4C0D2C0883909F4C3C0A8F440
:1028E000883709F467C038F4883609F463C0803744
:1028F00009F460C0C4C0883809F4B4C0803909F450
:102900005FC0803809F0BBC05BC0803B09F482C067
:1029100038F4803A09F466C0883A09F47BC0AFC045
:10292000803C09F4A3C0883C09F4A0C0883B09F4AA
:1029300086C0A5C08091050710C09091DE068091E9
:10294000DD06981770F5E091DE0681E08E0F80932A
:10295000DE06F0E0E152F94F80818093BB0085EC08
:1029600082C0809399068AC0E091DE0681E08E0FD6
:102970008093DE068091BB00F0E0E152F94F808346
:102980009091DE068091DD066AC0E091DE0681E06E
:102990008E0F8093DE068091BB00F0E0E152F94F8C
:1029A000808380910407811169C081E080930307CF
:1029B00084EA5DC083E08093060710929A06CFCF29
:1029C00080919A06803208F04DC0E0919A0681E02D
:1029D0008E0F80939A068091BB00F0E0E556F94F88
:1029E0008083BDCF80919A06803230F4E0919A06C0
:1029F000F0E0E556F94F108260919A0670E0E091A0
:102A0000FF06F09100078BE996E0199510929A065F
:102A100016DF35C084E0809306071092BC06109242
:102A2000BB06E0910107F091020719958091BB0662
:102A3000811105C081E08093BB061092BD06E09134
:102A4000BC0681E08E0F8093BC06F0E0E354F94FA2
:102A500080818093BB009091BC068091BB06981743
:102A600008F47DCF85E88093BC0009C085EC809395
:102A7000BC001092060703C010929906D6DEFF91A3
:102A8000EF91BF91AF919F918F917F916F915F91E6
:102A90004F913F912F910F900BBE0F900FBE0F9053
:102AA0001F9018951F920F920FB60F9211242F931B
:102AB0003F938F939F93AF93BF938091080790911B
:102AC0000907A0910A07B0910B073091070723E08F
:102AD000230F2D3720F40196A11DB11D05C026E856
:102AE000230F0296A11DB11D2093070780930807AD
:102AF00090930907A0930A07B0930B0780910C07E6
:102B000090910D07A0910E07B0910F070196A11D9E
:102B1000B11D80930C0790930D07A0930E07B093FF
:102B20000F07BF91AF919F918F913F912F910F9080
:102B30000FBE0F901F9018952FB7F894609108075B
:102B40007091090780910A0790910B072FBF089594
:102B50003FB7F89480910C0790910D07A0910E0754
:102B6000B0910F0726B5A89B05C02F3F19F001961D
:102B7000A11DB11D3FBF6627782F892F9A2F620FA5
:102B8000711D811D911D42E0660F771F881F991FDF
:102B90004A95D1F70895CF92DF92EF92FF92CF93AB
:102BA000DF936B017C01D4DFEB01C114D104E1049C
:102BB000F10479F0E7D4CCDF6C1B7D0B683E7340E9
:102BC000A0F381E0C81AD108E108F108C851DC4F30
:102BD000ECCFDF91CF91FF90EF90DF90CF900895F1
:102BE0008230910538F0880F991F880F991F05973B
:102BF0000197F1F70895789484B5826084BD84B517
:102C0000816084BD85B5826085BD85B5816085BDE7
:102C1000EEE6F0E0808181608083E1E8F0E0108200
:102C2000808182608083808181608083E0E8F0E041
:102C3000808181608083E1EBF0E08081846080832B
:102C4000E0EBF0E0808181608083E1E9F0E0808169
:102C500082608083808181608083E0E9F0E0808110
:102C600081608083E1EAF0E08081826080838081FE
:102C700081608083E0EAF0E0808181608083E1E22E
:102C8000F1E0808182608083808181608083E0E2E6
:102C9000F1E0808181608083EAE7F0E080818460F8
:102CA0008083808182608083808181608083808155
:102CB000806880831092C1000895863308F086539F
:102CC00020917B00982F9870277F922B90937B0008
:102CD000877020910D0290E4299F90011124822B8E
:102CE00080937C0080917A00806480937A00809148
:102CF0007A0086FDFCCF809178002091790090E0E9
:102D0000922B08951F93CF93DF93182FEB0161E06F
:102D10000FD1209711F460E004C0CF3FD10531F40A
:102D200061E0812FDF91CF911F913BC1E12FF0E056
:102D3000E05BFE4F449150E0FA013197E231F1053A
:102D400008F09AC0EC57FF4F77C484B5806884BD03
:102D5000C7BD97C084B5806284BDC8BD92C0809154
:102D60008000806880938000D0938900C0938800A1
:102D700088C080918000806280938000D0938B0017
:102D8000C0938A007EC0809180008860809380001C
:102D9000D0938D00C0938C0074C08091B000806887
:102DA0008093B000C093B3006CC08091B00080628B
:102DB0008093B000C093B40064C08091900080689C
:102DC00080939000D0939900C09398005AC080914E
:102DD0009000806280939000D0939B00C0939A00F3
:102DE00050C080919000886080939000D0939D00A7
:102DF000C0939C0046C08091A00080688093A00092
:102E00008091A0008F7B8093A000D093A900C093F5
:102E1000A80037C08091A00080628093A000D0936A
:102E2000AB00C093AA002DC08091A0008860809361
:102E3000A000D093AD00C093AC0023C080912001CE
:102E4000806880932001D0932901C093280119C084
:102E500080912001806280932001D0932B01C09348
:102E60002A010FC080912001886080932001D093B7
:102E70002D01C0932C0105C0C038D1050CF050CFF6
:102E80004ACFDF91CF911F91089590E0FC013197D7
:102E9000E231F10508F04BC0EA56FF4FCDC38091F7
:102EA00080008F7703C0809180008F7D80938000A9
:102EB000089580918000877FF9CF84B58F7702C015
:102EC00084B58F7D84BD08958091B0008F7703C055
:102ED0008091B0008F7D8093B00008958091900024
:102EE0008F7707C0809190008F7D03C08091900004
:102EF000877F8093900008958091A0008F7707C00E
:102F00008091A0008F7D03C08091A000877F809377
:102F1000A0000895809120018F7707C08091200143
:102F20008F7D03C080912001877F809320010895C9
:102F3000CF93DF9390E0FC01EA56FE4F2491FC0111
:102F4000E452FE4F8491882349F190E0880F991F45
:102F5000FC01EA5AFD4FA591B491845C9D4FFC01A0
:102F6000C591D4919FB7611108C0F8948C912095B8
:102F700082238C93888182230AC0623051F4F894B2
:102F80008C91322F309583238C938881822B888378
:102F900004C0F8948C91822B8C939FBFDF91CF91CA
:102FA00008950F931F93CF93DF931F92CDB7DEB792
:102FB000282F30E0F901E05BFE4F8491F901EA56D9
:102FC000FE4F1491F901E452FE4F04910023C1F029
:102FD000882319F0698359DF6981E02FF0E0EE0F53
:102FE000FF1FE45CFD4FA591B4919FB7F8948C91BD
:102FF000611103C01095812301C0812B8C939FBF69
:103000000F90DF91CF911F910F910895CF93DF9390
:10301000282F30E0F901E05BFE4F8491F901EA5678
:10302000FE4FD491F901E452FE4FC491CC2389F0B4
:1030300081112BDFEC2FF0E0EE0FFF1FEE5DFD4F57
:10304000A591B4912C912D2381E090E021F480E0B2
:1030500002C080E090E0DF91CF910895FC01818D66
:10306000228D90E0805C9F4F821B91098F7399277E
:103070000895FC01918D828D981731F0828DE80FB3
:10308000F11D858D90E008958FEF9FEF0895FC016D
:10309000918D828D981761F0828DDF01A80FB11D8F
:1030A0005D968C91928D9F5F9F73928F90E00895B3
:1030B0008FEF9FEF08958CEF99E1892B39F080E035
:1030C00090E0892B19F098D1811125C080E090E023
:1030D000892B41F080E090E0892B21F00E940000D4
:1030E00081111CC080E090E0892B41F080E090E0ED
:1030F000892B21F00E940000811113C080E090E034
:10310000892BA1F080E090E0892B81F00E940000E3
:1031100081110AC008950E940000D8CF0E940000CB
:10312000E1CF0E940000EACF0C9400000895FC015A
:10313000848DDF01A80FB11DA35ABF4F2C91848D40
:1031400090E001968F739927848FA689B7892C9375
:10315000A089B1898C9180648C93938D848D981310
:1031600006C00288F389E02D80818F7D80830895D9
:10317000CF93DF93EC01888D8823C1F0EA89FB8926
:10318000808185FD05C0A889B9898C9186FD0EC016
:103190000FB607FCF5CF808185FFF2CFA889B989EA
:1031A0008C9185FFEDCFCE01C2DFE8CFDF91CF91CB
:1031B0000895CF92DF92FF920F931F93CF93DF93E7
:1031C0001F92CDB7DEB76C0181E0D60158968C9383
:1031D00058975B969C915B975C968C915C97981343
:1031E00007C05096ED91FC915197808185FD2DC0CF
:1031F000F601038D10E00F5F1F4F0F731127F02EA4
:10320000F601848DF81210C00FB607FCF9CFD60175
:103210005096ED91FC915197808185FFF1CFC601C9
:10322000698385DF6981ECCF838DE80FF11DE35A57
:10323000FF4F6083D6015B960C935B975296ED919E
:10324000FC915397808180620CC0D6015696ED9117
:10325000FC91579760835096ED91FC915197808136
:103260008064808381E090E00F90DF91CF911F9187
:103270000F91FF90DF90CF900895BF92CF92DF9291
:10328000EF92FF92CF93DF93EC016A017B01B22EA4
:10329000E889F98982E08083411581EE580761054C
:1032A000710599F060E079E08DE390E0A701960167
:1032B00085D12150310941095109569547953795D6
:1032C0002795211580E1380790F0E889F989108267
:1032D00060E874E88EE190E0A70196016FD121507B
:1032E0003109410951095695479537952795EC8540
:1032F000FD853083EE85FF852083188EEC89FD895E
:10330000B082EA89FB89808180618083EA89FB89B8
:10331000808188608083EA89FB89808180688083DE
:10332000EA89FB8980818F7D8083DF91CF91FF9037
:10333000EF90DF90CF90BF9008951F920F920FB63D
:103340000F9211240BB60F922F938F939F93EF93AD
:10335000FF93E0912007F09121078081E0912607FB
:10336000F091270782FD12C09081809129078F5F1D
:103370008F7320912A07821751F0E0912907F0E01E
:10338000E05FF84F958F8093290701C08081FF91FE
:10339000EF919F918F912F910F900BBE0F900FBEC9
:1033A0000F901F9018951F920F920FB60F92112435
:1033B0000BB60F922F933F934F935F936F937F932F
:1033C0008F939F93AF93BF93EF93FF9380E197E029
:1033D000AEDEFF91EF91BF91AF919F918F917F9161
:1033E0006F915F914F913F912F910F900BBE0F9076
:1033F0000FBE0F901F90189580E197E02FDE21E01F
:10340000892B09F420E0822F08951092130710925F
:10341000120788EE93E0A0E0B0E080931407909349
:103420001507A0931607B093170788E093E09093D1
:1034300011078093100785EC90E090931D0780930F
:103440001C0784EC90E090931F0780931E0780EC8C
:1034500090E0909321078093200781EC90E0909377
:1034600023078093220782EC90E0909325078093B6
:10347000240786EC90E0909327078093260710920C
:10348000290710922A0710922B0710922C070895F3
:10349000CF92DF92EF92FF920F931F93CF93DF9320
:1034A0007C016A01EB0100E010E00C151D0571F0D4
:1034B0006991D701ED91FC910190F081E02DC70158
:1034C0001995892B19F00F5F1F4FEFCFC801DF91BE
:1034D000CF911F910F91FF90EF90DF90CF900895C3
:1034E0004F925F926F927F92AF92BF92CF92DF9294
:1034F000EF92FF920F931F93CF93DF93CDB7DEB779
:1035000029013A01621B730B840B950B2A893B89B5
:103510004C895D892A193B094C095D092A8B3B8B33
:103520004C8B5D8B9B01AC016A897B898C899D8961
:103530002AD0E418F50806091709A801970160D0F8
:103540002A0D3B1D4C1D5D1DCA01B901DF91CF91B4
:103550001F910F91FF90EF90DF90CF90BF90AF90B1
:103560007F906F905F904F900895089544DBFDDF4A
:103570000E949A0BCBE5D8E10E94A10E2097E1F3BF
:103580009ADDFACF0895DB018F939F935BD0BF91B3
:10359000AF91A29F800D911DA39F900DB29F900DA2
:1035A00011240895991B79E004C0991F961708F01B
:1035B000961B881F7A95C9F780950895A1E21A2E67
:1035C000AA1BBB1BFD010DC0AA1FBB1FEE1FFF1FC7
:1035D000A217B307E407F50720F0A21BB30BE40B17
:1035E000F50B661F771F881F991F1A9469F760955E
:1035F0007095809590959B01AC01BD01CF01089518
:10360000052E97FB16F400940FD057FD05D0D6DF9A
:1036100007FC02D046F408C050954095309521959E
:103620003F4F4F4F5F4F08959095809570956195EE
:103630007F4F8F4F9F4F0895EE0FFF1F0590F4911E
:10364000E02D19940DD0A59F900DB49F900DA49FCF
:10365000800D911D112408950790F691E02D199485
:10366000A29FB001B39FC001A39F700D811D1124C3
:10367000911DB29F700D811D1124911D0895CF934E
:10368000DF938230910510F482E090E0E091AF0783
:10369000F091B00720E030E0A0E0B0E0309739F1E1
:1036A0004081518148175907B8F04817590771F4FC
:1036B00082819381109729F013969C938E93129791
:1036C0002CC09093B0078093AF0727C02115310518
:1036D00031F04217530718F0A901DB0101C0EF01D7
:1036E0009A01BD01DF010280F381E02DD7CF2115C2
:1036F0003105F9F0281B390B2430310580F48A811B
:103700009B816115710521F0FB019383828304C0C5
:103710009093B0078093AF07FE01329644C0FE013C
:10372000E20FF31F8193919322503109398328834B
:103730003AC02091AD073091AE07232B41F4209180
:103740000202309103023093AE072093AD0720911F
:103750000002309101022115310541F42DB73EB729
:103760004091040250910502241B350BE091AD07F6
:10377000F091AE07E217F307A0F42E1B3F0B2817BA
:10378000390778F0AC014E5F5F4F2417350748F0DA
:103790004E0F5F1F5093AE074093AD0781939193F7
:1037A00002C0E0E0F0E0CF01DF91CF910895CF9328
:1037B000DF93009709F487C0FC01329713821282CD
:1037C000C091AF07D091B007209781F4208131815B
:1037D000280F391F8091AD079091AE07821793078C
:1037E00079F5F093AE07E093AD076DC0DE0120E000
:1037F00030E0AE17BF0750F412964D915C911397CD
:103800009D014115510509F1DA01F3CFB383A2837C
:1038100040815181840F951F8A179B0771F48D9108
:103820009C911197840F951F029691838083129625
:103830008D919C911397938382832115310529F4EF
:10384000F093B007E093AF073EC0D9011396FC9305
:10385000EE9312974D915D91A40FB51FEA17FB07E8
:1038600079F480819181840F951F0296D901119678
:103870009C938E938281938113969C938E9312973F
:10388000E0E0F0E08A819B81009719F0FE01EC01F5
:10389000F9CFCE01029628813981820F931F2091A2
:1038A000AD073091AE072817390769F4309729F42E
:1038B0001092B0071092AF0702C013821282D09309
:1038C000AE07C093AD07DF91CF910895FB01DC01F6
:1038D0004150504048F001900D920020C9F701C0BE
:1038E0001D9241505040E0F70895FC0181E090E0C6
:1038F0000190061609F4CF010020D1F70197089531
:10390000FB0151915523A9F0BF01DC014D914517F1
:103910004111E1F759F4CD010190002049F04D919A
:1039200040154111C9F3FB014111EFCF81E090E057
:0839300001970895F894FFCF00
:103938000000B107800001000000FF1300012E63A2
:103948007070004D617820736572766F73206174B2
:1039580074616368656400556E6B6E6F776E207076
:10396800696E206D6F6465002F55736572732F61E2
:103978006A6669736865722F6465762F696E746507
:10398800726368616E67652D6669726D6174612F17
:103998006275696C642F5374616E64617264466900
:1039A800726D6174612F5374616E646172644669EB
:1039B800726D6174612E696E6F004932433A20540A
:1039C8006F6F206D616E79206279746573207265FE
:1039D800636569766564004932433A20546F6F2005
:1039E80066657720627974657320726563656976A8
:1039F80065640031302D6269742061646472657396
:103A080073696E67206E6F7420737570706F72744F
:103A1800656400746F6F206D616E792071756572D1
:103A28006965730000000000821256122B123312CF
:103A38004612551200000000D918481A2E184718C7
:043A48003918B81859
:020000023000CC
:10E000000D9489F10D94B2F10D94B2F10D94B2F129
:10E010000D94B2F10D94B2F10D94B2F10D94B2F1F0
:10E020000D94B2F10D94B2F10D94B2F10D94B2F1E0
:10E030000D94B2F10D94B2F10D94B2F10D94B2F1D0
:10E040000D94B2F10D94B2F10D94B2F10D94B2F1C0
:10E050000D94B2F10D94B2F10D94B2F10D94B2F1B0
:10E060000D94B2F10D94B2F10D94B2F10D94B2F1A0
:10E070000D94B2F10D94B2F10D94B2F10D94B2F190
:10E080000D94B2F10D94B2F10D94B2F10D94B2F180
:10E090000D94B2F10D94B2F10D94B2F10D94B2F170
:10E0A0000D94B2F10D94B2F10D94B2F10D94B2F160
:10E0B0000D94B2F10D94B2F10D94B2F10D94B2F150
:10E0C0000D94B2F10D94B2F10D94B2F10D94B2F140
:10E0D0000D94B2F10D94B2F10D94B2F10D94B2F130
:10E0E0000D94B2F141546D656761323536300041AF
:10E0F000726475696E6F206578706C6F72657220DE
:10E1000073746B3530305632206279204D4C530099
:10E11000426F6F746C6F616465723E004875683F52
:10E1200000436F6D70696C6564206F6E203D200048
:10E130004350552054797065202020203D20005FF9
:10E140005F4156525F415243485F5F3D2000415658
:10E1500052204C696243205665723D20004743437C
:10E160002056657273696F6E203D20004350552024
:10E1700049442020202020203D20004C6F7720663D
:10E18000757365202020203D20004869676820665F
:10E190007573652020203D200045787420667573D6
:10E1A00065202020203D20004C6F636B2066757336
:10E1B000652020203D20004D617220203720323024
:10E1C000313300312E362E3800342E332E350056A2
:10E1D00023202020414444522020206F7020636F70
:10E1E00064652020202020696E73747275637469E1
:10E1F0006F6E2061646472202020496E74657272B3
:10E20000757074006E6F20766563746F7200726A49
:10E210006D702020006A6D70200057686174207056
:10E220006F72743A00506F7274206E6F7420737541
:10E2300070706F72746564004D7573742062652030
:10E2400061206C6574746572002000577269747483
:10E25000696E672045450052656164696E672045B7
:10E26000450045452065727220636E743D00504F35
:10E27000525400303D5A65726F2061646472003FF1
:10E280003D43505520737461747300403D454550C3
:10E29000524F4D207465737400423D426C696E6B41
:10E2A000204C454400453D44756D70204545505215
:10E2B0004F4D00463D44756D7020464C415348001B
:10E2C000483D48656C70004C3D4C69737420492F83
:10E2D0004F20506F72747300513D51756974005234
:10E2E0003D44756D702052414D00563D73686F7707
:10E2F00020696E7465727275707420566563746FF0
:10E30000727300593D506F727420626C696E6B00BD
:10E310002A0011241FBECFEFD1E2DEBFCDBF01E046
:10E320000CBF12E0A0E0B2E0EEE1FDEF03E00BBFB6
:10E3300002C007900D92A030B107D9F712E0A0E01B
:10E34000B2E001C01D92AE30B107E1F70F9460F367
:10E350000D948DFE01E20EBF0FEF0DBF11241FBE05
:10E360000D9460F30D9400F020E030E040ED57E0B4
:10E3700005C0FA013197F1F72F5F3F4F2817390792
:10E38000C0F308959C01260F311DC901A0E0B0E043
:10E390002F5F3F4FABBFFC018791882361F08093D3
:10E3A000C6008091C00086FFFCCF8091C0008064D1
:10E3B0008093C000EACF08958DE08093C6008091DD
:10E3C000C00086FFFCCF8091C00080648093C000B5
:10E3D0008AE08093C6008091C00086FFFCCF8091C8
:10E3E000C00080648093C00008950F94C2F10F9420
:10E3F000DCF10895FC019081992359F09093C600B7
:10E400008091C00086FFFCCF8091C0008064809323
:10E41000C0003196992379F70895282F982F929567
:10E420009F70892F805D8A3308F0895F8093C600D2
:10E430008091C00086FFFCCF8091C00080648093F3
:10E44000C000822F8F70982F905D9A3308F0995FEB
:10E450009093C6008091C00086FFFCCF8091C000E1
:10E4600080648093C00008959C01FB01853691056E
:10E470001CF46330710594F0C90164E670E00F94F8
:10E480002EFE605D7F4F6093C6008091C00086FFC6
:10E49000FCCF8091C00080648093C0002B30310598
:10E4A00014F43297B4F0C90164E670E00F942EFEC4
:10E4B0006AE070E00F942EFE605D7F4F6093C600AF
:10E4C0008091C00086FFFCCF8091C0008064809363
:10E4D000C000C9016AE070E00F942EFEC0968093E0
:10E4E000C6008091C00086FFFCCF8091C000806490
:10E4F0008093C00008951F93182F8EE692EE60E07F
:10E500000F94C2F11093C6008091C00086FFFCCF2B
:10E510008091C00080648093C0000F94DCF11F9153
:10E5200008952F923F924F925F926F927F928F92B7
:10E530009F92AF92BF92CF92DF92EF92FF920F9392
:10E540001F93DF93CF93CDB7DEB762970FB6F894E2
:10E55000DEBF0FBECDBF382E622ECA01DB015C01CB
:10E560006D01772420E2222E2E010894411C511CBB
:10E570008BC081E0A81680E0B80681E0C80680E084
:10E58000D80628F0C601AA27BB270F940DF2BB2797
:10E59000AD2D9C2D8B2D0F940DF28A2D0F940DF225
:10E5A0002092C6008091C00086FFFCCF8091C00001
:10E5B00080648093C0009DE29093C6008091C0006B
:10E5C00086FFFCCF8091C00080648093C0002092C1
:10E5D000C6008091C00086FFFCCF8091C00080649F
:10E5E0008093C00019828601750188249924A1E0D6
:10E5F0003A1651F03A1620F0B2E03B1661F409C029
:10E600000BBFF701779007C0C7010F9477FE782EF4
:10E6100002C0F7017080872D0F940DF22092C60082
:10E620008091C00086FFFCCF8091C0008064809301
:10E63000C000872D8052F401EF70F0708F3520F408
:10E64000E40DF51D708204C0E40DF51D8EE280839B
:10E650000894E11CF11C011D111D0894811C911CE2
:10E6600090E18916910409F0C2CF80E190E0A0E02A
:10E67000B0E0A80EB91ECA1EDB1E198AC2010F9493
:10E68000FAF10F94DCF16A94662009F072CF629679
:10E690000FB6F894DEBF0FBECDBFCF91DF911F91B3
:10E6A0000F91FF90EF90DF90CF90BF90AF909F9031
:10E6B0008F907F906F905F904F903F902F90089534
:10E6C0002F923F924F925F926F927F928F929F9282
:10E6D000AF92BF92CF92DF92EF92FF920F931F9370
:10E6E000DF93CF93CDB7DEB7CD53D1400FB6F894BB
:10E6F000DEBF0FBECDBF01E20EBF0FEF0DBF94B75F
:10E70000F894A89514BE80916000886180936000A1
:10E7100010926000789493FF05C0E0910002F091A0
:10E7200001021995279A2F9A8091C00082608093E8
:10E73000C00080E18093C40088E18093C1000000A4
:10E74000EE24FF24870144E0A42EB12CCC24DD2448
:10E7500024C0C5010197F1F70894E11CF11C011DCB
:10E76000111D21E2E2162EE4F20620E0020720E06D
:10E77000120718F031E0C32ED12CC801B70127ECE5
:10E780003BE140E050E00F9441FE611571058105C9
:10E79000910519F485B1805885B98091C00087FD35
:10E7A00003C0C114D104A9F2A6014F5F5F4FC25E3E
:10E7B000DE4F59834883CE51D140C25EDE4F8881FF
:10E7C0009981CE51D140019711F00D9410FEC05D9A
:10E7D000DE4F19821882C053D14060E0C15DDE4F28
:10E7E0001882CF52D14088249924C35DDE4F19820C
:10E7F0001882CD52D140C05EDE4F188219821A8233
:10E800001B82C052D140CE5CDE4F188219821A8220
:10E810001B82C253D140EE24FF2487010BBFF701B6
:10E8200007911691C45CDE4F19830883CC53D14005
:10E830000D940BFEC25EDE4F28813981CE51D1404E
:10E840002130310509F52091C600C25EDE4F1982E4
:10E850001882CE51D14022C02F5F3F4F4F4F5F4FA4
:10E86000213082E138078AE7480780E0580780F0C6
:10E87000C45CDE4FE881F981CC53D140EF5FFF4F9C
:10E8800019F0EE27FF27099420E030E040E050E047
:10E890008091C00087FFE0CF2091C600C35DDE4FAE
:10E8A00048815981CD52D1404F5F5F4FC35DDE4FEC
:10E8B00059834883CD52D140213209F063C64A3092
:10E8C000510508F05FC60894811C911C53E0851621
:10E8D000910409F059C600E010E018C081E280936D
:10E8E000C6008091C00086FFFCCF8091C00080648C
:10E8F0008093C0002F5F3F4F2931310579F70F9486
:10E90000DCF10F5F1F4F0530110519F020E030E0FA
:10E91000E5CF10920A0210920B0210920C02109294
:10E920000D02109206021092070210920802109235
:10E930000902109202021092030210920402109235
:10E9400005028FEE90EE60E00F94F5F180E191EE1C
:10E9500060E00F94C2F18091C00087FFFCCF9091DE
:10E96000C600903608F09F759032B8F09093C600BC
:10E970008091C00086FFFCCF8091C00080648093AE
:10E98000C000A0E2A093C6008091C00086FFFCCF2B
:10E990008091C00080648093C000983409F4D7C18E
:10E9A0009934B8F4923409F459C1933458F490333B
:10E9B00019F1903308F4E3C59F33A1F1903409F0C5
:10E9C000DEC5BDC0953409F470C1963409F0D7C5D1
:10E9D00098C1923509F42BC2933538F49C3409F46C
:10E9E000F5C1913509F0CBC518C2963509F445C279
:10E9F000993509F0C4C567C483E792EE62E00F94CD
:10EA0000F5F110920602109207021092080210927D
:10EA1000090210920A0210920B0210920C0210923C
:10EA20000D0213C18FE792EE62E00F94F5F18FEEC5
:10EA300090EE60E00F94F5F181E291EE60E00F94CA
:10EA4000C2F187EB91EE60E00F94F5F180E391EE77
:10EA500060E00F94C2F184EE90EE60E00F94F5F167
:10EA60008FE391EE60E00F94C2F186E090E061E008
:10EA700070E00F9434F20F94DCF18DE591EE60E0DC
:10EA80000F94C2F189EC91EE60E00F94F5F18EE401
:10EA900091EE60E00F94C2F183EC91EE60E00F9490
:10EAA000F5F18CE691EE60E00F94C2F18EE10F94E7
:10EAB0000DF288E90F940DF281E00F940DF20F949E
:10EAC000DCF18BE791EE60E00F94C2F119E0E0E039
:10EAD000F0E010935700E4918E2F0F940DF20F94F5
:10EAE000DCF18AE891EE60E00F94C2F1E3E0F0E03F
:10EAF00010935700E4918E2F0F940DF20F94DCF1D8
:10EB000089E991EE60E00F94C2F1E2E0F0E0109349
:10EB10005700E4918E2F0F940DF20F94DCF188EAE8
:10EB200091EE60E00F94C2F1E1E0F0E01093570045
:10EB30001491812F0F940DF20F94DCF107CF8BE825
:10EB400092EE62E00F94F5F18BE492EE60E00F94A8
:10EB5000F5F10F94DCF100E010E019C0C8016F2D51
:10EB60000F947FFEFF2031F489E492EE60E00F9471
:10EB7000C2F10BC0F092C6008091C00086FFFCCFAE
:10EB80008091C00080648093C0000F5F1F4FC80158
:10EB900081519F41A0E0B0E0ABBFFC01F790BAE229
:10EBA000FB1621F0E2E000301E07C1F60F94DCF105
:10EBB0000F94DCF187E592EE60E00F94F5F10F948D
:10EBC000DCF1CC24DD2400E010E01EC0C8010F946D
:10EBD00077FEF82E882331F489E492EE60E00F94FA
:10EBE000C2F10BC08093C6008091C00086FFFCCFAD
:10EBF0008091C00080648093C000FE1419F00894D6
:10EC0000C11CD11C0F5F1F4FC80181519F41A0E063
:10EC1000B0E0ABBFFC01E790FAE2EF1621F022E092
:10EC20000030120799F60F94DCF10F94DCF182E6C4
:10EC300092EE60E00F94C2F1C60161E070E00F94C3
:10EC400034F20F94DCF10F94DCF110920202109276
:10EC50000302109204021092050278CE89E992EE26
:10EC600062E00F94F5F1279A2F9A16C02F9880E052
:10EC700090E0E0EDF7E03197F1F7019684369105E9
:10EC8000C1F72F9A80E090E0E0EDF7E03197F1F7DF
:10EC9000019684369105C1F78091C00087FFE6CFC9
:10ECA0008091C00087FFFCCF64C485EA92EE62E0E9
:10ECB0000F94F5F140910202509103026091040219
:10ECC0007091050281E020E10F9491F2809102029F
:10ECD00090910302A0910402B091050280509F4FD1
:10ECE000AF4FBF4F8093020290930302A0930402A0
:10ECF000B093050280509041A040B04008F426CE69
:10ED0000A4CF83EB92EE62E00F94F5F140910602FE
:10ED100050910702609108027091090280E020E1A1
:10ED20000F9491F28091060290910702A09108023F
:10ED3000B091090280509F4FAF4FBF4F80930602A2
:10ED400090930702A0930802B0930902FFCD80ECD4
:10ED500092EE62E00F94F5F183E792EE60E00F949B
:10ED6000F5F18FE792EE60E00F94F5F18BE892EE0B
:10ED700060E00F94F5F189E992EE60E00F94F5F10F
:10ED800085EA92EE60E00F94F5F183EB92EE60E09D
:10ED90000F94F5F180EC92EE60E00F94F5F187ECC2
:10EDA00092EE60E00F94F5F188ED92EE60E00F9442
:10EDB000F5F18FED92EE60E00F94F5F18AEE92EEB0
:10EDC00060E00F94F5F183E093EEBDCD87EC92EE19
:10EDD00062E00F94F5F181E40F947BF282E40F94EA
:10EDE0007BF283E40F947BF284E40F947BF285E45E
:10EDF0000F947BF286E40F947BF287E40F947BF20E
:10EE000088E40F947BF28AE40F947BF28BE40F94F6
:10EE10007BF28CE40F947BF299CD88ED92EE62E068
:10EE20000F94F5F1772473948824992409C48FED05
:10EE300092EE62E00F94F5F140910A0250910B02BC
:10EE400060910C0270910D0282E020E10F9491F22A
:10EE500080910A0290910B02A0910C02B0910D02D8
:10EE600080509F4FAF4FBF4F80930A0290930B0289
:10EE7000A0930C02B0930D0269CD8AEE92EE62E08F
:10EE80000F94F5F184EE90EE60E00F94F5F18FECC5
:10EE900091EE60E00F94F5F1662477244301CC5D98
:10EEA000DE4F19821882C452D140D401C301B695F5
:10EEB000A79597958795CA5DDE4F88839983AA8326
:10EEC000BB83C652D140CC5DDE4FA881B981C4520C
:10EED000D1401196CC5DDE4FB983A883C452D14096
:10EEE000CD0162E070E00F9434F2B0E2B093C6005E
:10EEF0008091C00086FFFCCF8091C0008064809329
:10EF0000C000EDE2E093C6008091C00086FFFCCF18
:10EF10008091C00080648093C000F0E2F093C6004E
:10EF20008091C00086FFFCCF8091C00080648093F8
:10EF3000C000CA5DDE4FE880F9800A811B81C6529D
:10EF4000D140BB27A12F902F8F2D0F940DF2CA5DBA
:10EF5000DE4F8881C652D1400F940DF2B0E2FB2EF5
:10EF6000F092C6008091C00086FFFCCF8091C00067
:10EF700080648093C0000DE30093C6008091C000C0
:10EF800086FFFCCF8091C00080648093C00010E2B7
:10EF90001093C6008091C00086FFFCCF8091C00016
:10EFA00080648093C0008BBEF3012791C65DDE4F65
:10EFB0002883CA52D140A22EBB24CC24DD2408943D
:10EFC000611C711C811C911C8BBEF3018791282E42
:10EFD0003324442455240894611C711C811C911C09
:10EFE0008BBEF3013791C55DDE4F3883CB52D140E4
:10EFF0000894611C711C811C911C8BBEF30147910C
:10F00000C45DDE4F4883CC52D140ADEFEA2EAFEF66
:10F01000FA2EAFEF0A2FAFEF1A2F6E0C7F1C801E57
:10F02000911E142D032DF22CEE24EA0CFB1C0C1D5A
:10F030001D1D0F940DF220E22093C6008091C000A8
:10F0400086FFFCCF8091C00080648093C000C65DC5
:10F05000DE4F8881CA52D1400F940DF230E23093D6
:10F06000C6008091C00086FFFCCF8091C000806404
:10F070008093C000C45DDE4F8881CC52D1400F9494
:10F080000DF240E24093C6008091C00086FFFCCFA5
:10F090008091C00080648093C000C55DDE4F888190
:10F0A000CB52D1400F940DF250E25093C6008091A4
:10F0B000C00086FFFCCF8091C00080648093C000B8
:10F0C0008FEFE8168FEFF80680E0080780E018075A
:10F0D00031F484E092EE60E00F94C2F1DFC0D80119
:10F0E000C7018070907CA070B0708050904CA040A0
:10F0F000B040D1F52FEF3FE340E050E0E222F322B1
:10F1000004231523CA5DDE4FA880B980CA80DB8046
:10F11000C652D140AE0CBF1CC01ED11EAA0CBB1CD7
:10F12000CC1CDD1C8EE092EE60E00F94C2F1BB2798
:10F13000A12F902F8F2D0F940DF28E2D0F940DF285
:10F1400030E23093C6008091C00086FFFCCF8091F2
:10F15000C00080648093C0004EE34093C60080915D
:10F16000C00086FFFCCF87C08EE09EEFA0E0B0E03D
:10F17000E822F9220A231B239CE0E91694E9F90608
:10F1800090E0090790E0190709F088C0C45DDE4FE0
:10F19000A881CC52D140EA2EFF2400E010E0102FCD
:10F1A0000F2DFE2CEE24C55DDE4FB881CB52D14031
:10F1B000EB0EF11C011D111DD601C501817090706F
:10F1C000A070B070DC0199278827E80EF91E0A1F8D
:10F1D0001B1F20EF30E040E050E0A222B322C42207
:10F1E000D52241E1AA0CBB1CCC1CDD1C4A95D1F7F1
:10F1F000EA0CFB1C0C1D1D1D81E090E0A0E0B0E0BE
:10F20000282239224A225B2235E1220C331C441C7D
:10F21000551C3A95D1F7E20CF31C041D151D57013E
:10F220006801AA0CBB1CCC1CDD1C85E192EE60E0E1
:10F230000F94C2F1C801AA27BB270F940DF2BB2778
:10F24000A12F902F8F2D0F940DF28E2D0F940DF274
:10F2500090E29093C6008091C00086FFFCCF809121
:10F26000C00080648093C000AEE3A093C60080918C
:10F27000C00086FFFCCF8091C00080648093C000F6
:10F28000C601AA27BB270F940DF2BB27AD2D9C2DDD
:10F290008B2D0F940DF28A2D0F940DF20F94DCF14B
:10F2A000CC5DDE4FE881F981C452D140F99709F471
:10F2B0004DCBF4E0EF2EF12C012D112D6E0C7F1CA7
:10F2C000801E911EF2CD83E093EE62E00F94F5F183
:10F2D0008AE192EE60E00F94C2F18091C00087FF56
:10F2E000FCCF1091C6001F751093C6008091C0001E
:10F2F00086FFFCCF8091C00080648093C0000F9493
:10F30000DCF1812F81548A3108F036C1163409F4BA
:10F3100095C0173490F4133409F44EC0143430F40B
:10F320001134F1F0123409F01DC130C0143409F465
:10F3300059C0153409F016C16BC01A3409F4C4C0A1
:10F340001B3438F4173409F48FC0183409F00AC19B
:10F35000A1C01B3409F4D2C01C3409F003C1E8C0B9
:10F360008FEF81B90DC082B1809582B980E090E0C5
:10F37000E0EDF7E03197F1F70196883C9105C1F790
:10F380008091C00087FFEFCF12B8EFC08FEF84B934
:10F390000DC085B1809585B980E090E0E0EDF7E0A3
:10F3A0003197F1F70196883C9105C1F78091C00033
:10F3B00087FFEFCF15B8D9C08FEF87B90DC088B1DF
:10F3C000809588B980E090E0E0EDF7E03197F1F7C3
:10F3D0000196883C9105C1F78091C00087FFEFCF6F
:10F3E00018B8C3C08FEF8AB90DC08BB180958BB9A7
:10F3F00080E090E0E0EDF7E03197F1F70196883C8E
:10F400009105C1F78091C00087FFEFCF1BB8ADC059
:10F410008FEF8DB90DC08EB180958EB980E090E0F0
:10F42000E0EDF7E03197F1F70196883C9105C1F7DF
:10F430008091C00087FFEFCF1EB897C08FEF80BBD1
:10F440000DC081B3809581BB80E090E0E0EDF7E0F6
:10F450003197F1F70196883C9105C1F78091C00082
:10F4600087FFEFCF11BA81C08FEF83BB0DC084B38C
:10F47000809584BB80E090E0E0EDF7E03197F1F714
:10F480000196883C9105C1F78091C00087FFEFCFBE
:10F4900014BA6BC08FEF809301010FC080910201FD
:10F4A00080958093020180E090E0E0EDF7E03197F5
:10F4B000F1F70196883C9105C1F78091C00087FF64
:10F4C000EDCF1092020151C08FEF809304010FC065
:10F4D0008091050180958093050180E090E0E0ED4A
:10F4E000F7E03197F1F70196883C9105C1F78091DB
:10F4F000C00087FFEDCF1092050137C08FEF8093DA
:10F5000007010FC08091080180958093080180E079
:10F5100090E0E0EDF7E03197F1F70196883C910536
:10F52000C1F78091C00087FFEDCF109208011DC088
:10F530008FEF80930A010FC080910B01809580931B
:10F540000B0180E090E0E0EDF7E03197F1F70196F4
:10F55000883C9105C1F78091C00087FFEDCF1092E4
:10F560000B0103C085E292EEEEC98091C00087FFD7
:10F57000FCCF8091C600EAC988E392EEE4C98CE131
:10F5800091EEE1C988249924933011F1943028F444
:10F59000913089F09230B8F408C0953061F195301F
:10F5A000F0F0963009F048C043C02B3109F042C951
:10F5B00091E06BE13FC96227C15DDE4F2883CF52E6
:10F5C000D14092E037C9B22FA0E0622793E032C960
:10F5D000822F90E0A82BB92B622794E02BC92E3004
:10F5E00009F039C3622795E0C05DDE4F19821882A9
:10F5F000C053D1401FC9E1E0F0E0EC0FFD1FC05D3A
:10F60000DE4F08811981C053D140E00FF11F2083E4
:10F610000F5F1F4FC05DDE4F19830883C053D14079
:10F6200062270A171B0709F005C9D80196E002C92D
:10F63000261709F010C303C0973009F0FBC87724E0
:10F640009981933109F412C19431C8F4963009F4C8
:10F65000D8C0973050F4923009F406C1933009F4C1
:10F660006DC0913009F059C253C0913109F477C08F
:10F67000923108F0BBC0903109F04FC2F5C098310B
:10F6800009F487C0993150F4953109F4EFC09531F0
:10F6900008F4C6C1963109F040C2C2C19A3109F4DA
:10F6A0006CC09A3108F491C09B3109F45BC09D3164
:10F6B00009F033C29D81903359F48F81882311F46E
:10F6C0009EE11CC0813011F091E018C098E916C08D
:10F6D000892F807591F0903539F4E0E0F0E089E011
:10F6E0008093570094910AC0983539F4E3E0F0E034
:10F6F00089E080935700949101C090E01A821B82A8
:10F700008D818C831D829E831F8227E030E009C299
:10F710001A8288E08B8381E48C8386E58D8382E581
:10F720008E8389E48F8383E5888780E589878FE5E9
:10F730008A8782E38B872BE030E0F3C18A818139AD
:10F7400041F0823941F0803911F48FE005C080E04A
:10F7500003C082E001C08AE01A828B8344C0772410
:10F76000739482C08D81882311F48EE12CC0813086
:10F7700011F081E028C088E926C01A82E1E0F0E0BB
:10F7800089E08093570084918B831C8224E030E0D1
:10F79000C8C18B81803589F48C81883039F4E2E0EE
:10F7A000F0E089E08093570084910DC0E0E0F0E044
:10F7B00089E080935700849106C0E3E0F0E089E09F
:10F7C0008093570084911A82DFCF8D81836C99E0FA
:10F7D000E1E0F0E0082E90935700E89507B600FCB2
:10F7E000FDCF1A821B8223E030E09BC180EC8A832C
:10F7F000CE5CDE4F188219821A821B82C253D1401E
:10F800008EC18A8190E0A0E0B0E0582F44273327D2
:10F8100022278B8190E0A0E0B0E0DC0199278827C7
:10F82000282B392B4A2B5B2B8D8190E0A0E0B0E098
:10F83000282B392B4A2B5B2B8C8190E0A0E0B0E089
:10F84000BA2FA92F982F8827282B392B4A2B5B2BCF
:10F85000220F331F441F551FC05EDE4F288339839C
:10F860004A835B83C052D1401A8259C13A81C95C34
:10F87000DE4F3883C753D140CA5CDE4F1882C6536F
:10F88000D1408B81C82EDD24CA5CDE4F488159816E
:10F89000C653D140C42AD52A933109F082C0CE5C28
:10F8A000DE4F88819981AA81BB81C253D1408050AB
:10F8B000904CA340B04030F583E0CE5CDE4FE88052
:10F8C000F9800A811B81C253D140F70100935B008C
:10F8D00080935700E89507B600FCFDCFCE5CDE4F65
:10F8E000088119812A813B81C253D14000501F4FAA
:10F8F0002F4F3F4FCE5CDE4F088319832A833B8313
:10F90000C253D140C05EDE4F488159816A817B81FC
:10F91000C052D140DE011B9631E08C9111962C91A2
:10F9200011971296C75CDE4F2883C953D140C85C3B
:10F93000DE4F1882C853D14090E0C85CDE4FE881AA
:10F94000F981C853D1408E2B9F2B0C01FA01609393
:10F950005B0030935700E89511244E5F5F4F6F4F67
:10F960007F4F0EEFE02E0FEFF02ECE0CDF1CC114F8
:10F97000D10499F685E0C05EDE4F088119812A81A5
:10F980003B81C052D140F80120935B008093570027
:10F99000E89507B600FCFDCF81E180935700E8951C
:10F9A00035C0C05EDE4F88819981AA81BB81C0527B
:10F9B000D140B695A795979587957C018601ABE0D8
:10F9C000AA2EB12CAC0EBD1E0BC0D5016D915D01F0
:10F9D000C7010F947FFE0894E11CF11C01501040F8
:10F9E0000115110591F7A60160E070E0440F551F65
:10F9F000661F771FC05EDE4FE880F9800A811B8199
:10FA0000C052D1404E0D5F1D601F711F1A82C05E33
:10FA1000DE4F488359836A837B83C052D1407FC0C5
:10FA2000FA80C55CDE4FF882CB53D140C65CDE4F16
:10FA30001882CA53D1408B81C82EDD24C65CDE4FAC
:10FA400008811981CA53D140C02AD12A1A828981DA
:10FA5000BE016D5F7F4F843121F59601C05EDE4FA0
:10FA6000E880F9800A811B81C052D1400BBFF701A9
:10FA700087919691DB018C9311969C936E5F7F4FDB
:10FA8000D801C7010296A11DB11DC05EDE4F88835B
:10FA90009983AA83BB83C052D14022503040F1F6F3
:10FAA00036C0C05EDE4F288139814A815B81C052F9
:10FAB000D1400894C108D108760100E010E0089414
:10FAC000C11CD11C0894E11CF11C011D111DE20E8A
:10FAD000F31E041F151F21BDBB27A52F942F832FB5
:10FAE00082BD2F5F3F4F4F4F5F4FF89A80B5DB01CC
:10FAF0008D93BD012E153F054007510761F7C05E8C
:10FB0000DE4F288339834A835B83C052D1409601FC
:10FB10002D5F3F4FFB01108204C080EC8A8322E0FE
:10FB200030E08BE18093C6008091C00086FFFCCF5F
:10FB30008091C00080648093C000C15DDE4FF88179
:10FB4000CF52D140F093C6008091C00086FFFCCF19
:10FB50008091C00080648093C000432F3093C60022
:10FB60008091C00086FFFCCF8091C00080648093AC
:10FB7000C000922F2093C6008091C00086FFFCCF6A
:10FB80008091C00080648093C0008EE08093C600A6
:10FB90008091C00086FFFCCF8091C000806480937C
:10FBA000C00065E1C15DDE4FE880CF52D1406E25D7
:10FBB00069276427FE01319610C090819093C6009A
:10FBC0008091C00086FFFCCF31968091C000806498
:10FBD0008093C0006927215030402115310569F715
:10FBE0006093C6008091C00086FFFCCF8091C0006A
:10FBF00080648093C00085B1805885B9772081F4F6
:10FC0000C15DDE4F0881CF52D1400F5FC15DDE4F35
:10FC10000883CF52D14090E0A0E0B0E00D941AF4F8
:10FC200027982F9880E090E020ED37E0F901319798
:10FC3000F1F7019684369105C9F700008091C00064
:10FC40008D7F8093C00081E180935700E895EE2777
:10FC5000FF270994FFCF90E00D941AF497FB092E2B
:10FC600007260AD077FD04D02ED006D000201AF443
:10FC7000709561957F4F0895F6F7909581959F4F08
:10FC80000895A1E21A2EAA1BBB1BFD010DC0AA1FDD
:10FC9000BB1FEE1FFF1FA217B307E407F50720F0F5
:10FCA000A21BB30BE40BF50B661F771F881F991F70
:10FCB0001A9469F760957095809590959B01AC01B9
:10FCC000BD01CF010895AA1BBB1B51E107C0AA1FAC
:10FCD000BB1FA617B70710F0A61BB70B881F991FED
:10FCE0005A95A9F780959095BC01CD010895F99991
:10FCF000FECF92BD81BDF89A992780B50895262F31
:10FD0000F999FECF1FBA92BD81BD20BD0FB6F89400
:0EFD1000FA9AF99A0FBE01960895F894FFCF63
:040000033000E000E9
:00000001FF
