:100000000C9414010C943C010C943C010C943C01A4
:100010000C943C010C943C010C943C010C943C016C
:100020000C943C010C943C010C94CE190C94721865
:100030000C943C010C943C010C943C010C943C014C
:100040000C943C010C94720D0C943C010C943C01FA
:100050000C943C010C943C010C943C010C94B512A2
:100060000C943C010C943C010C943C010C943C011C
:100070000C943C010C943C010C943C010C943C010C
:100080000C943C010C943C010C943C010C943C01FC
:100090000C948A110C943C010C943C010C943C018E
:1000A0000C943C010C943C010C943C01B80CD40C15
:1000B000F80BD40C690CD40CD60B850BD40CD40CD7
:1000C000D40CD40CD40C9C0AD40C6B0BD40CBD0BEC
:1000D0000E141314181422142C1476147614761497
:1000E000361440144A145414611476146914971485
:1000F0009A1489148D149314BB14BB14BB149E144E
:10010000A214A614AC14B014BB14B614070605044C
:100110000100080A0B0C0D090000000200090F0085
:1001200000030401000C00000000000000000000BB
:100130000000000000000408020110408040102070
:10014000408040800802040180402010020110809D
:1001500010204040040404040403040502020202C7
:100160000403020202020606060606060404020250
:100170000204000000002300260029002C002F00AC
:1001800000000000250028002B002E003100000098
:100190000000240027002A002D003000080B000278
:1001A000020201000904000001020200000524000F
:1001B00010010524010101042402060524060001A2
:1001C0000705810310004009040100020A00000035
:1001D00007050202400000070583024000001201EB
:1001E0000002EF02014041233780000101020001BB
:1001F000120100020000004041233780000101028B
:10020000000141726475696E6F204C4C430041726D
:100210006475696E6F204D6963726F000403090491
:10022000EF04010AA8104A1611241FBECFEFDAE02E
:10023000DEBFCDBF12E0A0E0B1E0E4E1FAE302C02E
:1002400005900D92A832B107D9F724E0A8E2B2E0F8
:1002500001C01D92A83DB207E1F712E0C8E2D2E06A
:1002600004C02297FE010E948F1BC032D107C9F73C
:100270000E94AE1A0C94081D0C9400000F931F935B
:10028000CF93DF93EC018B0188819981DC01ED91A3
:10029000FC916F770190F081E02D0995888199811B
:1002A000DC01ED91FC91B801660F672F661F770B9B
:1002B0006F770190F081E02DDF91CF911F910F9129
:1002C0000994DC018D919C91DC01ED91FC910190F0
:1002D000F081E02D60EF0994DC018D919C91DC01AF
:1002E000ED91FC910190F081E02D67EF0994CF939F
:1002F000DF93EC0188819981DC01ED91FC91019003
:10030000F081E02D69EF099588819981DC01ED91FB
:10031000FC910190F081E02D62E00995888199813E
:10032000DC01ED91FC910190F081E02D64E0DF9122
:10033000CF9109941F93CF93DF93EC018A81882397
:10034000D9F1CE010E94610188819981DC01ED9192
:10035000FC910190F081E02D69E7099588819981F0
:10036000DC01ED91FC91AB81BC810190F081E02D2D
:100370006C91099588819981DC01ED91FC91AB81AB
:10038000BC810190F081E02D11966C91099512E0ED
:100390008A81181758F4EB81FC81E10FF11D60810F
:1003A00070E0CE010E943E011F5FF2CFCE01DF91CF
:1003B000CF911F910C946C01DF91CF911F91089503
:1003C000CF92DF92EF92FF920F931F93CF93DF9321
:1003D0008C01EB01C42ED22E61E271E0CE010E94AD
:1003E000EE1C7C016FE270E0CE010E94E31C0097DE
:1003F00039F46CE570E0CE010E94E31C009711F027
:10040000EC012196E114F10451F4FE010190002069
:10041000E9F7EC1BEF5FD8011296EC9306C0EC1ADB
:10042000FD0AE394E394F801E282D80113968D91DA
:100430009C9114970E94451CF801E280F12CC701A1
:1004400001960E94AD1BD80114969C938E9313972E
:10045000FC01EE0DFF1D1082FC01C082D1821296BC
:100460004C9150E042505109BE010296DF91CF916C
:100470001F910F91FF90EF90DF90CF900C94D41CC0
:10048000DC018D919C91DC01ED91FC910480F58162
:10049000E02D09940F931F93CF93DF93FC012085E8
:1004A000213749F0293709F049C0DF91CF911F91D9
:1004B0000F910C949A01FC01E95AFF4F0190F081D1
:1004C000E02D309709F450C0DC01A75BBF4F4D9180
:1004D0005C919A012150310937FD9A01B901759556
:1004E0006795062F40E050E020E030E04E5F5F4F20
:1004F0002017A0F4EC01C40FD51F1F81DC01A20F4F
:10050000B31F18961C931897C885D0E8CD9F101973
:10051000112418961C932F5F3F4FE8CFDC01A60FE4
:10052000B11D17962C911797222311F018961C9243
:100530000896DF91CF911F910F910994FC01E75A22
:10054000FF4F0190F081E02D309771F0AC01475FD3
:100550005F4FDC01A75BBF4F6C916150822FDF9131
:10056000CF911F910F910994DF91CF911F910F911E
:1005700008950F931F93CF93DF93EC018A01888135
:100580009981DC01ED91FC916F70606E0190F081BA
:10059000E02D0995B801CE01DF91CF911F910F9108
:1005A0000C943E010F931F93CF93DF93EC018A01CC
:1005B00088819981DC01ED91FC916F7060690190F7
:1005C000F081E02D099588819981DC01ED91FC9104
:1005D000602F6F770190F081E02D099588819981D6
:1005E000DC01ED91FC91B801660F672F661F770B58
:1005F0000190F081E02DDF91CF911F910F9109942F
:10060000CF92DF92EF92FF920F931F93CF93DF93DE
:1006100000D01F92CDB7DEB78C01F42E2A833B8326
:1006200069830E946101D8018D919C91DC01ED915B
:10063000FC910190F081E02D698109952A81E22EDB
:10064000C22E3B81D32E8C2D8E198F1540F4F601CE
:1006500061916F0170E0C8010E943E01F4CFC801B2
:100660000F900F900F90DF91CF911F910F91FF90FE
:10067000EF90DF90CF900C946C019A01FA010190F9
:100680000020E9F73197E41BF50B4E2F0C94000383
:10069000AB0161E70C943D03DC018D919C91DC0181
:1006A000ED91FC910190F081E02D0994603DB9F04D
:1006B00028F4603961F0603C71F00895603E19F0F3
:1006C000643F89F00895FC01E55BFF4F0FC0FC011A
:1006D000E35BFF4F0BC0FC01E15BFF4F07C0FC0178
:1006E000EF5AFF4F03C0FC01ED5AFF4F5183408387
:1006F00008956F3F29F4FC01EB5AFF4F518340836B
:100700000895875A9F4FFC01518340830895FC014F
:1007100015821682178280E090E0DF01A80FB91FD2
:1007200018961C92019680349105B9F7DF01A85BF9
:10073000BF4F1C9211961D921C92EB5AFF4F0190D5
:10074000F081E02D309709F009940895FC011282A0
:10075000148213820C948703CF93DF93EC0188817A
:100760009981DC01ED91FC910680F781E02D0995DE
:10077000FE01E85BFF4F20812223B1F0873F910506
:1007800031F41082CE01DF91CF910C944A02FE0128
:10079000E75BFF4F20813181C20FD31F88872F5F16
:1007A0003F4F318320839DC02D81222309F45EC0F9
:1007B000803891050CF05AC09FEF920F9D83FE0187
:1007C000E90FF11D808791118CC08E81882309F477
:1007D00088C0803DE9F148F48039E9F0803C09F0B7
:1007E00043C0FE01E15BFF4F36C0803E19F0843FFD
:1007F00019F13AC0FE01E55BFF4F0190F081E02D59
:10080000309791F18885698570E0B0E88B9F600D25
:10081000711D112427C0FE01E35BFF4F0190F081A1
:10082000E02D309709F18885698570E090E8899F0F
:10083000600D711D112416C0FE01ED5AFF4F01908D
:10084000F081E02D309781F0688570E089850BC0DC
:10085000FE01EF5AFF4F0190F081E02D309721F01B
:10086000688570E08F8109951E823BC0803F9105AD
:100870002CF4282F2F702F83807F9927803E91059D
:1008800021F154F4803C910511F1803D9105F9F07E
:100890008039910531F519C0843F9105B1F054F4C8
:1008A000803F9105F1F481E08083C75BDF4F1982BF
:1008B000188217C0893F910571F08F3F910589F427
:1008C000CE01DF91CF910C94870392E001C091E0BB
:1008D0009D838E8306C088E292E0DF91CF910C94D5
:1008E0007701DF91CF9108958F929F92AF92BF923F
:1008F000CF92DF92EF92FF921F93CF93DF93EB01A2
:100900004A01690161E08DE00E94BC1410E0EE2410
:10091000D7FCE094FE2CAA2497FCA094BA2C812F3B
:1009200090E08C179D0794F4C701B6010E942E1326
:1009300061E08DE00E94F514C501B4010E942E1300
:1009400060E08DE00E94F5141F5FE9CFDF91CF9149
:100950001F91FF90EF90DF90CF90BF90AF909F904E
:100960008F900895CF93DF93EC0161E08DE00E94BA
:10097000BC1422ED30E048E250E062E070E0CE01CD
:100980000E9474046AEF70E080E090E00E942E13F1
:1009900022ED30E048E250E064E070E0CE010E94D9
:1009A00074046DE770E080E090E0DF91CF910C94EB
:1009B0002E13CF93DF93EC0186E794E00E94351667
:1009C00086E794E099838883CE010E94B204CE0129
:1009D0000E947701CE01DF91CF910C949A0188E2B9
:1009E00092E00C94A6031F93CF93DF93162F8430CD
:1009F00008F06CC0982F990F990F990F985F9F314D
:100A000008F09EE1D82FDD0FDD0FDD0F8D2FC0E048
:100A100041E08917C8F4E82FF0E0DF01A15ABC4F8C
:100A20002C91223070F4C42BEE0FFF1FE15EFC4FBF
:100A300021E030E0542F512311F420E030E03183E5
:100A40002083440F8F5FE5CFC0FF05C0612F617029
:100A50008D2F0E94F514C1FF06C0612F627081E0E6
:100A60008D0F0E94F514C2FF06C0612F647082E0F2
:100A70008D0F0E94F514C3FF06C0612F687083E0DC
:100A80008D0F0E94F514C4FF06C0612F607184E0D1
:100A90008D0F0E94F514C5FF06C0612F607285E0BE
:100AA0008D0F0E94F514C6FF06C0612F607486E0AA
:100AB0008D0F0E94F514C7FF09C0612F607887E091
:100AC0008D0FDF91CF911F910C94F514DF91CF9191
:100AD0001F9108950F931F93CF93DF93EB018E31F6
:100AE00078F5082F10E0F801E15AFC4F908193301F
:100AF00089F0943029F5F801EE56FD4F208130E061
:100B0000C901880F991F820F931F80559D4F0E9426
:100B10000F0F0FC0833051F09BEF980F923030F0E1
:100B200097EF980F933010F08D3019F4BE010E94AA
:100B3000E813F801EE0FFF1FE15EFC4FD183C08385
:100B4000DF91CF911F910F910895CF93C82F8C30D3
:100B500058F5409185035091860321E030E0082E3E
:100B600002C0220F331F0A94E2F7672B49F4209545
:100B7000309524233523309386032093850314C0B6
:100B8000242B352B30938603209385038091830299
:100B900081110AC08C2F0E94B713AC016C2F88E220
:100BA00092E0CF910C94B902CF910895DB019A01A4
:100BB000909184029C30D0F540918502682F70E0BE
:100BC000442369F0E42FF0E0EB57FD4F8081FB01F7
:100BD000EE56FD4F808341504093850207C0FB01D4
:100BE000EE56FD4F90839F5F90938402FB01EE567B
:100BF000FD4F1A161B067CF41216130664F440818E
:100C000050E0CA01880F991F840F951FAD018055D0
:100C10009D4F0C944A0E208130E0C901880F991F26
:100C2000820F931F80559D4F0C94C80E66E271E0B1
:100C300088E292E00C944803CF93DF93C82FD0E072
:100C4000CE56DD4F288130E0C901880F991F820FF1
:100C5000931F80559D4F0E94CE0E888190918402F3
:100C6000891306C0882379F08150809384020BC0D9
:100C7000992349F0E0918502EF5FE0938502F0E06F
:100C8000EB57FD4F80838FEF8883DF91CF910895DD
:100C90001F93CF93DF93162FC82FD0E0FE01E55AA4
:100CA000FC4F90811923C358DC4F411103C0988138
:100CB000911741F0412F50E0682F88E292E00E94A6
:100CC000D2021883DF91CF911F910895EF92FF9286
:100CD0000F931F93CF93DF93E82E83E08E1508F4D4
:100CE00075C02E2D30E0F901EF57FC4F6083672B64
:100CF00009F46CC0F901E55AFC4FF0800E2D000F8D
:100D0000000F000FF0FE52C0802F0E942B15892B80
:100D100009F44CC011E0C02FD0E0F1FE07C081E023
:100D2000800F0E942B15892B09F042C0F2FE06C0ED
:100D300082E0800F0E942B15892BE1F5F3FE06C09F
:100D400083E0800F0E942B15892BB1F5F4FE06C0BD
:100D500084E0800F0E942B15892B81F5F5FE06C0DB
:100D600085E0800F0E942B15892B51F5C831D105E4
:100D700041F0F6FE06C086E0800F0E942B15892BFD
:100D800009F5679744F4F7FE06C087E0800F0E94DC
:100D90002B15892BC9F441E0612F8E2DDF91CF9166
:100DA0001F910F91FF90EF900C94480610E0B3CF85
:100DB0001260BCCF1460C2CF1860C8CF1061CECF14
:100DC0001062D4CF1064DDCF1068E5CFDF91CF91F2
:100DD0001F910F91FF90EF900895CF93DF93809133
:100DE0008103882309F448C0D0915B03D0FF1DC163
:100DF00080E00E942B15892B09F417C1C1E0D1FFB7
:100E000006C081E00E942B15892B09F010C1D2FF8A
:100E100006C082E00E942B15892B09F00AC1D3FF7E
:100E200006C083E00E942B15892B09F004C1D4FF72
:100E300006C084E00E942B15892B09F0FEC0D5FF67
:100E400006C085E00E942B15892B09F0F8C0D6FF5B
:100E500006C086E00E942B15892B09F0F2C0D7FF4F
:100E600006C087E00E942B15892B09F0ECC040E0FA
:100E70006C2F80E00E94480680918203882309F449
:100E800048C0D0915C03D0FFE0C088E00E942B15E1
:100E9000892B09F4DAC0C1E0D1FF06C089E00E94C5
:100EA0002B15892B09F0D3C0D2FF06C08AE00E941F
:100EB0002B15892B09F0CDC0D3FF06C08BE00E9413
:100EC0002B15892B09F0C7C0D4FF06C08CE00E9407
:100ED0002B15892B09F0C1C0D5FF06C08DE00E94FB
:100EE0002B15892B09F0BBC0D6FF06C08EE00E94EF
:100EF0002B15892B09F0B5C0D7FF06C08FE00E94E3
:100F00002B15892B09F0AFC040E06C2F81E00E94C7
:100F1000480680918303882309F448C0D0915D037B
:100F2000D0FFA3C080E10E942B15892B09F49DC03E
:100F3000C1E0D1FF06C081E10E942B15892B09F089
:100F400096C0D2FF06C082E10E942B15892B09F0C2
:100F500090C0D3FF06C083E10E942B15892B09F0B6
:100F60008AC0D4FF06C084E10E942B15892B09F0AA
:100F700084C0D5FF06C085E10E942B15892B09F09E
:100F80007EC0D6FF06C086E10E942B15892B09F092
:100F900078C0D7FF06C087E10E942B15892B09F086
:100FA00072C040E06C2F82E00E944806809184036A
:100FB000882309F476C0D0915E03D0FF66C088E133
:100FC0000E942B15892B09F460C0C1E0D1FF06C037
:100FD00089E10E942B15892B09F059C0D2FF06C068
:100FE0008AE10E942B15892B09F053C0D3FF06C05C
:100FF0008BE10E942B15892B09F04DC0D4FF06C050
:101000008CE10E942B15892B09F047C0D5FF06C043
:101010008DE10E942B15892B09F041C040E06C2F17
:1010200083E0DF91CF910C944806C0E0E8CEC26027
:10103000EECEC460F4CEC860FACEC06100CFC0620C
:1010400006CFC0640CCFC06812CFC0E025CFC2600D
:101050002BCFC46031CFC86037CFC0613DCFC062F5
:1010600043CFC06449CFC0684FCFC0E062CFC260F9
:1010700068CFC4606ECFC86074CFC0617ACFC062E1
:1010800080CFC06486CFC0688CCFC0E09FCFC260E5
:10109000A5CFC460ABCFC860B1CFC061B7CFC062CD
:1010A000BDCFDF91CF9108951092D6028FEF80933C
:1010B0000A010895CF92DF92EF92FF920F931F9350
:1010C000CF93DF93182FEB01E82EF12CC701815A43
:1010D0009C4F6C01FC0180818F3709F4EEC0863093
:1010E00051F48091D602882331F06630710509F4FD
:1010F000E0C00E9454081E31A8F4C430D10591F01C
:10110000F701EE56FD4F20812C3060F430E0C9012C
:10111000880F991F820F931F80559D4F0E94740F57
:101120008111B4C00EEE010F0C3058F461E070E094
:10113000C230D10511F060E070E0802F0E94A5055B
:1011400002C01E31D0F4E12FE695E695E695812F99
:101150008770F0E0E55AFC4F21E030E0082E01C036
:10116000220F0A94EAF7209721F48081822B808352
:1011700004C02095808128232083F701EE0FFF1FF4
:10118000E15EFC4F11821082C230D10579F02CF45F
:101190002097C9F0219729F16BC0C430D10509F41B
:1011A00045C064F1269709F45BC062C00C3008F0BA
:1011B00084C060E0812F0E94BC1460E0812F0E94F7
:1011C000F51482E052C01E3108F077C060E0812F34
:1011D0000E94BC1460E0812F0E94F514F601108279
:1011E0006CC01E3108F069C060E0812F0E94F514C8
:1011F00061E0812F0E94BC1481E037C0133059F0A8
:101200008BEF810F823038F087EF810F833018F039
:101210001D3009F052C061E0812F0E94BC1460E0D3
:1012200070E0812F0E94E81383E01FC01E3108F098
:1012300044C084E0F6018083F701EE56FD4F8081C3
:101240008F3F41F190E09C01220F331F280F391F7F
:10125000C90180559D4F0E94740F81112EC01AC084
:101260008EEF810F823048F586E0F601808325C03D
:101270006AE371E088E292E0DF91CF911F910F91D4
:10128000FF90EF90DF90CF900C944803812F0E9445
:101290001C0648CF4FEF5FEF6FEF7FEF812FDF919D
:1012A000CF911F910F91FF90EF90DF90CF900C9412
:1012B000D6051E3108F424CF35CFDF91CF911F9191
:1012C0000F91FF90EF90DF90CF900895CF93C0E003
:1012D0008EEF8C0F823028F466E070E08C2F0E9435
:1012E0005A08CF5FCE31A1F781E08093D6028DEA14
:1012F00093E0CF910C941A100F931F93CF93DF9329
:1013000081E0809383028091D60281110E9454086B
:10131000E1E8F3E0CBE5D3E0ADE7B3E01192199259
:101320001D9283E0E538F807C9F7C2E9D2E010E082
:101330000FEF8EEE810F8C3018F462E070E002C087
:1013400061E070E0812F0E945A0809931F5F1E31EF
:1013500081F71092860310928503109285021092F5
:10136000840210928302DF91CF911F910F91089513
:1013700024E042E06BE471E088E292E00E94E00148
:101380004AE655E060EE88E292E00E94560343EFA1
:1013900054E060E988E292E00E94560345EA55E095
:1013A00060EC88E292E00E94560346E656E060ED6B
:1013B00088E292E00E9456034AE558E064EF88E232
:1013C00092E00E94560348E85AE060EF88E292E01B
:1013D0000E9481034CE759E06FEF88E292E00E949F
:1013E000790340E051EE60E070E088E292E00E9414
:1013F000D90486E794E00E943B168823D1F30C942D
:101400007C09CF93DF93C0EBD2E0CE010E942E0E79
:10141000239682E0C43DD807C1F7DF91CF910895AC
:10142000682F8DEA93E00C94DB0F8DEA93E00E9425
:101430008B0F0895DF92EF92FF920F931F93CF933C
:10144000DF93F82EEB01D42E6F3F8FEF7807A9F0D2
:101450006F2D8DEA93E00E9424108C2F0E94100AB9
:101460008DEA93E00E94A5108091D4029091D5025C
:10147000009729F00E94561302C0C0E0D0E04D2D25
:101480006F2D8DEA93E00E94A2100D2D10E08DEAE1
:1014900093E00E94830F081719071CF46DE971E0AF
:1014A00009C08DEA93E00E94830F8017910734F4FE
:1014B0006AEB71E088E292E00E944803F092D70262
:1014C000C093D80289EDE82E82E0F82EC0E0D0E08B
:1014D000C017D10784F042E04D0D27ED32E067E7F9
:1014E00088E292E0DF91CF911F910F91FF90EF90F2
:1014F000DF900C9400038DEA93E00E94830F892B08
:1015000051F30E94150AF70181937F012196E0CFE4
:10151000EF92FF920F931F93CF93DF93162FEA0161
:1015200090E0FC01E956F109E231F10508F03CC216
:10153000EA5AFF4F0C948D1B8981982F987185FF73
:1015400003C066ED71E056C08881983071F148F4AF
:1015500091112AC2682F8DEA93E00E94241002E0C4
:1015600007C0903109F440C0983109F471C01CC221
:10157000011768F4FE01E00FF11D9181808120E8E0
:10158000929F801911240E94100A0E5FF1CF8DEAFC
:1015900093E00E94A51086E490E0DF91CF911F9127
:1015A0000F91FF90EF900C9456134A816B81163087
:1015B00069F430E8639FB0011124640F711D9D81AF
:1015C0004C8150E8959F4019112406C090E8699F0E
:1015D000401911246FEF7FEFDF91CF911F910F9191
:1015E000FF90EF900C941A0AE0910A01E73064F042
:1015F00066EF71E088E292E0DF91CF911F910F9149
:10160000FF90EF900C9448039A812B81F0E86630AC
:1016100061F42F9F90011124290F311D4D819C8170
:1016200050E8459F9019112405C02F9F901911244F
:101630002FEF3FEFEF5FE0930A0144E0E402F00197
:101640001124E950FD4F8083328321839383ACC101
:1016500050910A01151634F440E0252F332727FD59
:1016600030950EC08FEF80930A019EC1EE0FFF1FD1
:10167000EE0FFF1FE950FD4F9081981719F14F5F52
:10168000E42FF0E02E173F078CF740E01BC04830F6
:10169000C0F4DF01AA0FBB1FAA0FBB1FA550BD4F8F
:1016A0008C91EE0FFF1FEE0FFF1FE950FD4F80835F
:1016B00011968D919C9112979283818313968C91B0
:1016C00083834F5FE42FF0E02E173F0704F751505C
:1016D00050930A0169C12881898150E8859FC00122
:1016E0001124820F911D009721F09093D5028093D1
:1016F000D4028091D602811157C1DF91CF911F9101
:101700000F91FF90EF900C946609653008F44CC17E
:1017100018810981FA80EB80CC811E3108F044C128
:10172000E12FF0E0EE56FD4FE081EC3060F4F0E0A8
:10173000CF01880F991F8E0F9F1F80559D4F0E94CC
:10174000740F81112DC180E8C89FA00111244E0D96
:10175000511D90E8F99EB0011124600F711D812F79
:101760000E94D60564E070E0812FDF91CF911F9138
:101770000F91FF90EF900C945A08623008F414C156
:1017800028818981E0E88E9FC0011124820F911D7C
:1017900090930C0180930B010A9708F005C18AE031
:1017A00090E090930C0180930B01FEC0623008F42E
:1017B000FBC0698170E0123091F08A81F0E88F9F60
:1017C000C0011124682B792B133049F08B8190E0F4
:1017D00090E4899F902D88271124682B792B88818C
:1017E000DF91CF911F910F91FF90EF900C946A05BC
:1017F00060EF88E292E00E944C036CE688E292E09F
:101800000E944C03C0E060E088E292E00E944C033A
:1018100061E088E292E00E944C0361E088E292E09D
:101820000E944C0361E088E292E00E944C038EEE3D
:101830008C0F8C3058F462E088E292E00E944C03F6
:101840006AE088E292E00E944C030DC0C33059F474
:1018500063E088E292E00E944C0368E088E292E054
:101860000E944C030AC08BEF8C0F823088F387EF05
:101870008C0F833068F3CD3059F364E088E292E056
:101880000E944C036EE088E292E00E944C038EEFCF
:101890008C0F823050F466E088E292E00E944C03A4
:1018A00061E088E292E00E944C036FE788E292E0F8
:1018B0000E944C03CF5FCE3109F0A5CF67EF88E2DD
:1018C00092E0DF91CF911F910F91FF90EF900C94D8
:1018D0004C03662309F468C0C88160EF88E292E097
:1018E0000E944C036EE688E292E00E944C036C2F4B
:1018F00088E292E00E944C03CE3100F7D0E0FE0176
:10190000E15AFC4F608188E292E00E944C03CC0FC8
:10191000DD1F8E01015E1C4FF80160816F7788E248
:1019200092E00E944C03F80160817181CB018078C4
:10193000892B49F0660F672F661F770B6F7788E258
:1019400092E00E944C03C15EDC4F68817981CB013B
:101950008827907C892B09F4B1CF770F660B770F1E
:10196000762F661F6F7788E292E00E944C03A6CF25
:1019700060EF88E292E00E944C036AE688E292E01F
:101980000E944C03CEEECC3010F06FE701C06C2FFC
:1019900088E292E00E944C03CF5FCC30A1F78ECF5B
:1019A000812F0E941C06CFCEDF91CF911F910F9106
:1019B000FF90EF9008958F929F92AF92BF92CF9237
:1019C000DF92EF92FF920F931F93CF93DF930E94CA
:1019D000ED0688E292E00E944002892B29F088E21D
:1019E00092E00E94AC03F5CF0E94FF1260931B03AC
:1019F00070931C0380931D0390931E03C0901703E4
:101A0000D0901803E0901903F0901A0340910B0155
:101A100050910C014A01A12CB12C8B019C010C1995
:101A20001D092E093F0980169106A206B30608F08B
:101A30004CC0D501C4018C0D9D1DAE1DBF1D8093F2
:101A4000170390931803A0931903B0931A03CFE5DB
:101A5000D3E01EEE1C30C0F488818230A9F42091BE
:101A6000850330918603012E02C0359527950A948F
:101A7000E2F720FF09C0812F0E94B713AC01612F4C
:101A800088E292E00E94B9021F5F21961C3011F794
:101A900080910A0187FD19C0C0E0EC2FF0E0809131
:101AA0000A01992787FD90958E179F0774F0EE0F16
:101AB000FF1FEE0FFF1FE950FD4F618172814381CF
:101AC00080810E941A0ACF5FE8CFDF91CF911F91EA
:101AD0000F91FF90EF90DF90CF90BF90AF909F90CD
:101AE0008F9008951F920F920FB60F9211242F938B
:101AF0003F934F935F936F937F938F939F93AF9396
:101B0000BF93EF93FF938091880387FF05C01092E6
:101B10008500109284001AC020918803332727FD86
:101B200030958091870390E0281739077CF48091E5
:101B30008803992787FD9095FC01EE0FFF1FE80FA2
:101B4000F91FE757FC4F808186FD15C080918803FF
:101B50008F5F8093880320918803332727FD30957A
:101B60008091870390E028173907BCF4809188039F
:101B70008C305CF112C080918803992787FD909585
:101B8000FC01EE0FFF1FE80FF91FE757FC4F8081A4
:101B900060E08F730E94F514D9CF809184009091FA
:101BA0008500049680349C4918F480E49CE905C0C3
:101BB0008091840090918500049690938900809391
:101BC00088008FEF8093880338C020918400309183
:101BD000850080918803992787FD9095FC01EE0F81
:101BE000FF1FE80FF91FE757FC4F81819281820F99
:101BF000931F909389008093880080918803992790
:101C000087FD9095FC01EE0FFF1FE80FF91FE757C6
:101C1000FC4F808186FF11C080918803992787FD42
:101C20009095FC01EE0FFF1FE80FF91FE757FC4FDF
:101C3000808161E08F730E94F514FF91EF91BF9155
:101C4000AF919F918F917F916F915F914F913F9154
:101C50002F910F900FBE0F901F9018952091870322
:101C60002C30A0F431E0320F30938703FC01208345
:101C7000822F90E0FC01EE0FFF1FE80FF91FE757DE
:101C8000FC4F88EB9BE09283818308952FEFFC014A
:101C900020830895DF92EF92FF920F931F93CF93CB
:101CA000DF93EC01D62E7A01890188818C3008F00F
:101CB00066C061E08D2D0E94BC148881A82FB0E021
:101CC000FD01EE0FFF1FEA0FFB1FE757FC4F2D2D05
:101CD0002F739081907C922B908360E272E06E195A
:101CE0007F0977FF02C06D5F7F4F7595679575958A
:101CF0006795698340E659E0401B510B57FF02C0CE
:101D00004D5F5F4F55954795559547954A836CE0D4
:101D10000E94401B9CE0899FB001112420E030E02C
:101D2000A901460F571FFA01EE0FFF1FE40FF51F21
:101D3000E757FC4F908196FD16C02F5F3F4F2C3028
:101D4000310571F781110FC01092800082E08093FD
:101D500081001092850010928400B19A80916F00EA
:101D6000826080936F00888190E0FC01EE0FFF1F7E
:101D7000E80FF91FE757FC4F8081806480838881DA
:101D8000DF91CF911F910F91FF90EF90DF90089519
:101D900020E639E040E252E00C944A0EFC018081DA
:101DA00090E0FC01EE0FFF1FE80FF91FE757FC4F13
:101DB00080818F7B80830895FC0180818C3070F559
:101DC000918128E830E0291B310997FD3395220FD6
:101DD000331F220F331F621773077CF0928128E5AF
:101DE00032E0291B310997FD3395220F331F220F53
:101DF000331F621773070CF49B0122503109220F25
:101E0000331F4FB7F89490E0FC01EE0FFF1FE80F6F
:101E1000F91FE757FC4F328321834FBF08954F923C
:101E20005F926F927F92AF92BF92CF92DF92EF92CA
:101E3000FF920F931F93CF93DF93EC01603282E008
:101E400078070CF040C077FD06C0653B71052CF0AB
:101E500064EB70E002C060E070E0898128E830E067
:101E6000281B310987FD3395220F331F220F331FA3
:101E70005901CC24B7FCC094DC2C882777FD8095D1
:101E8000982F2A8148E552E0421B510927FD5395BE
:101E9000440F551F440F551F2A01662457FC6094B8
:101EA000762C7F926F925F924F9214EBE12EF12C81
:101EB00000E010E020E030E0A9010E94661A0F90D7
:101EC0000F900F900F90CE01DF91CF911F910F9146
:101ED000FF90EF90DF90CF90BF90AF907F906F908A
:101EE0005F904F900C94DC0EFC01808190E0FC012F
:101EF000EE0FFF1FE80FF91FE757FC4F808186FBAD
:101F0000882780F908958091DD0390E02091DE0319
:101F1000821B910908952091DE038091DD0328172B
:101F200050F4E22FF0E0E152FC4F808190E02F5F0F
:101F30002093DE0308958FEF9FEF0895E091DE0375
:101F40008091DD03E81730F4F0E0E152FC4F80812E
:101F500090E008958FEF9FEF08950895CF92DF925C
:101F6000EF92FF920F931F93CF93DF937C01CB01EE
:101F70008A012091B903222389F0EB016B01C40E81
:101F8000D51ECC15DD0569F06991D701ED91FC9165
:101F90000190F081E02DC7010995F3CF642F0E94D5
:101FA0006111C801DF91CF911F910F91FF90EF90C8
:101FB000DF90CF900895CF93DF931F92CDB7DEB718
:101FC00069832091B9032223D1F02091BA032032F2
:101FD00040F021E030E0FC013383228380E090E098
:101FE00015C08091BB03E82FF0E0E454FC4F9981C9
:101FF00090838F5F8093BB038093BA0305C061E039
:10200000CE0101960E94611181E090E00F90DF9176
:10201000CF910895FC011382128248EE53E060E0F4
:1020200070E044835583668377838BE092E09183ED
:10203000808308951092DE031092DD031092BB039B
:102040001092BA030C94AC1081E08093B9036093B2
:10205000DC031092BB031092BA0308950F93062F6E
:1020600021E04091BA036CEB73E08091DC030E94A5
:102070000E111092BB031092BA031092B9030F9184
:1020800008958F929F92AF92BF92CF92DF92EF927C
:10209000FF920F931F93CF93DF93EC01F62ED42E74
:1020A00048015901EE2019F10E9424101E2D143010
:1020B00008F013E01150B8F0E881F98128E0129F90
:1020C000B0011124A501940104C056954795379598
:1020D00027956A95D2F7CA01B9010190F081E02DE8
:1020E000CE010995E7CF60E0CE010E942E104D2D64
:1020F000413208F040E22C2D6FED73E08F2D0E94ED
:10210000CA101092DE038093DD03DF91CF911F91FF
:102110000F91FF90EF90DF90CF90BF90AF909F9086
:102120008F900895CF92EF920F931F93C22EE12CC0
:1021300000E010E098010E9441101F910F91EF9074
:10214000CF90089521E00C94921061E00C942E1031
:102150008DEA93E00C940A1010926C0481E0809355
:102160006A041092690461E082E00E94F51461E063
:1021700083E00E94F514E9EBF0E080818E7F80839C
:1021800080818D7F808388E48093B80085E480938C
:10219000BC000895413208F03FC090916C04911149
:1021A000FCCF91E090936C0420936A042FEF20936E
:1021B000FF0310924404240F2093430490936B0474
:1021C00090916B04880F892B80936B048091690434
:1021D000813041F41092690480916B048093BB00BC
:1021E00085EC01C085EE8093BC0080916C04813049
:1021F000E1F380914404841710F44091440425E4F1
:1022000034E0FB01D9018A2F821B841718F48D91C9
:102210008193F9CF842F089580E008950F93413280
:1022200008F046C090916C049111FCCF92E090931D
:102230006C0400936A049FEF9093FF031092440490
:1022400040934304FB0165E474E0DB019A2F961B85
:10225000941718F491919D93F9CF10926B0490917B
:102260006B04880F892B80936B0480916904813003
:1022700041F41092690480916B048093BB0085EC5B
:1022800001C085EE8093BC00222321F080916C0474
:102290008230E1F38091FF038F3F61F08091FF0373
:1022A000803251F08091FF03803341F483E007C016
:1022B00081E005C080E003C082E001C084E00F91AE
:1022C0000895613298F420916C04243089F460936D
:1022D0002104FC0183E294E0DC012A2F281B26174D
:1022E00018F421912D93F9CF80E0089581E00895AD
:1022F00082E0089585ED8093BC008091BC0084FD50
:10230000FCCF10926C04089585EC8093BC00109271
:102310006C0408951F920F920FB60F9211242F9301
:102320003F934F935F936F937F938F939F93AF935D
:10233000BF93EF93FF938091B900887F803609F4B3
:102340009CC068F5883209F45BC090F4803109F4D0
:1023500054C038F4882309F4F3C0883009F44DC020
:10236000F3C0883109F44CC0803209F45DC0ECC080
:10237000803409F468C048F4803309F455C08833C8
:1023800009F0E2C08093FF03A6C0803509F44FC076
:10239000883509F45DC0883409F0D6C0D3C08839C7
:1023A00009F4C4C0A8F4883709F467C038F4883643
:1023B00009F463C0803709F460C0C6C0883809F4E6
:1023C000B5C0803909F45FC0803809F0BDC05BC07A
:1023D000803B09F483C038F4803A09F466C0883A37
:1023E00009F47CC0B1C0803C09F4A4C0883C09F465
:1023F000A1C0883B09F487C0A7C080916B0410C0BE
:102400009091440480914304981770F5E09144043E
:1024100081E08E0F80934404F0E0EB5BFB4F808102
:102420008093BB0085EC83C08093FF038BC0E09159
:10243000440481E08E0F809344048091BB00F0E05F
:10244000EB5BFB4F808390914404809143046BC00D
:10245000E091440481E08E0F809344048091BB009E
:10246000F0E0EB5BFB4F808380916A0481116AC0CE
:1024700081E08093690484EA5EC083E080936C0409
:1024800010920004CFCF80910004803208F04EC03B
:10249000E091000481E08E0F809300048091BB00E6
:1024A000F0E0EF5FFB4F8083BDCF8091000480326E
:1024B00030F4E0910004F0E0EF5FFB4F1082609198
:1024C000000470E0E0916504F091660481E094E01E
:1024D0000995109200040E94841136C084E0809314
:1024E0006C041092220410922104E0916704F09190
:1024F0006804099580912104811105C081E08093D1
:10250000210410922304E091220481E08E0F809335
:102510002204F0E0ED5DFB4F80818093BB00909141
:10252000220480912104981708F47CCF85E88093D9
:10253000BC000AC085EC8093BC0010926C0404C0FF
:102540001092FF030E947A11FF91EF91BF91AF911A
:102550009F918F917F916F915F914F913F912F91BB
:102560000F900FBE0F901F9018951F920F920FB6ED
:102570000F9211242F933F938F939F93AF93BF9309
:1025800080916E0490916F04A0917004B0917104D9
:1025900030916D0423E0230F2D3720F40196A11D07
:1025A000B11D05C026E8230F0296A11DB11D209381
:1025B0006D0480936E0490936F04A0937004B093A5
:1025C00071048091720490917304A0917404B0918D
:1025D00075040196A11DB11D80937204909373043C
:1025E000A0937404B0937504BF91AF919F918F91A4
:1025F0003F912F910F900FBE0F901F9018952FB7FE
:10260000F89460916E0470916F04809170049091C1
:1026100071042FBF08953FB7F89480917204909190
:102620007304A0917404B091750426B5A89B05C0ED
:102630002F3F19F00196A11DB11D3FBF6627782FCE
:10264000892F9A2F620F711D811D911D42E0660F27
:10265000771F881F991F4A95D1F70895CF92DF926F
:10266000EF92FF92CF93DF936B017C010E940B13DB
:10267000EB01C114D104E104F10489F00E94C11AF4
:102680000E940B136C1B7D0B683E734090F381E03E
:10269000C81AD108E108F108C851DC4FEACFDF9130
:1026A000CF91FF90EF90DF90CF9008958230910509
:1026B00038F0880F991F880F991F05970197F1F738
:1026C0000895789484B5826084BD84B5816084BDAA
:1026D00085B5826085BD85B5816085BDEEE6F0E09B
:1026E000808181608083E1E8F0E0108280818260F7
:1026F0008083808181608083E0E8F0E08081816078
:102700008083E1E9F0E08081826080838081816064
:102710008083E0E9F0E0808181608083E1ECF0E09B
:1027200080818460808380818260808380818160F9
:102730008083E3ECF0E0808181608083E0ECF0E076
:10274000808182608083E2ECF0E080818160808320
:10275000EAE7F0E08081846080838081826080830A
:102760008081816080838081806880830895823148
:1027700008F08251E82FF0E0E45FFE4FE491809191
:102780007B00E3FB222720F930E095E0220F331F86
:102790009A95E1F78F7D822B80937B00E770809183
:1027A0000D0120E4829FC0011124E82BE0937C00FE
:1027B00080917A00806480937A0080917A0086FD0F
:1027C000FCCF809178002091790090E0922B0895C1
:1027D0001F93CF93DF93182FEB0161E00E94BC148D
:1027E000209711F460E004C0CF3FD10539F461E0D7
:1027F000812FDF91CF911F910C94F514E12FF0E020
:10280000E85EFE4F449150E0FA013197EF30F10558
:1028100008F06CC0E859FF4F0C948D1B84B580689C
:1028200084BDC7BD68C084B5806284BDC8BD63C0B7
:1028300080918000806880938000D0938900C0934D
:10284000880059C080918000806280938000D0937E
:102850008B00C0938A004FC0809180008860809375
:102860008000D0938D00C0938C0045C08091900073
:10287000806880939000D0939900C09398003BC0EB
:1028800080919000806280939000D0939B00C093D1
:102890009A0031C080919000886080939000D0931E
:1028A0009D00C0939C0027C08091C00080688093E9
:1028B000C0008091C0008F7B8093C000C093CF0088
:1028C0001AC08091C00080628093C000C093D00085
:1028D00012C08091C20088608093C2008091C200C3
:1028E0008B7F8093C200C093D20005C0C038D10551
:1028F0000CF07DCF77CFDF91CF911F91089590E0BD
:10290000FC013197EF30F105B0F5E958FF4F0C9419
:102910008D1B809180008F7703C0809180008F7D18
:1029200080938000089580918000877FF9CF84B5DF
:102930008F7702C084B58F7D84BD0895809190000B
:102940008F7707C0809190008F7D03C080919000A9
:10295000877F8093900008958091C0008F7703C097
:102960008091C0008F7D8093C00008958091C20047
:10297000877F8093C2000895CF93DF9390E0FC019E
:10298000EA5CFE4F2491FC01EC5AFE4F84918823AF
:1029900049F190E0880F991FFC01E257FE4FA59185
:1029A000B49180589E4FFC01C591D4919FB761119D
:1029B00008C0F8948C91209582238C93888182237F
:1029C0000AC0623051F4F8948C91322F30958323F1
:1029D0008C938881822B888304C0F8948C91822BFD
:1029E0008C939FBFDF91CF9108950F931F93CF9347
:1029F000DF931F92CDB7DEB7282F30E0F901E85EF4
:102A0000FE4F8491F901EA5CFE4F1491F901EC5AF2
:102A1000FE4F04910023C9F0882321F069830E94AE
:102A20007F146981E02FF0E0EE0FFF1FE058FE4FAA
:102A3000A591B4919FB7F8948C91611103C0109542
:102A4000812301C0812B8C939FBF0F90DF91CF9189
:102A50001F910F910895CF93DF93282F30E0F90154
:102A6000E85EFE4F8491F901EA5CFE4FD491F901D2
:102A7000EC5AFE4FC491CC2391F081110E947F1437
:102A8000EC2FF0E0EE0FFF1FEE58FE4FA591B49132
:102A90002C912D2381E090E021F480E002C080E0C1
:102AA00090E0DF91CF910895CF93DF931F92CDB740
:102AB000DEB76983DC01ED91FC910280F381E02DAA
:102AC00041E050E0BE016F5F7F4F09950F90DF91AD
:102AD000CF910895CF93DF93EC018C859D8597FF6F
:102AE00005C082E00E945B179D878C878C859D8541
:102AF000DF91CF91089583E00C94C419FC01848583
:102B0000958597FD06C082E00E94031790E001962C
:102B1000089582E00E94031790E00895FC018485E7
:102B2000958597FD05C02FEF3FEF358724870895E2
:102B300082E00C945B17CF93DF93EC018091190135
:102B4000882331F083E00E948C171816190634F0A0
:102B500081E090E09B838A8380E090E0DF91CF91D9
:102B60000895FC0120812E5F208342E450E06CE94F
:102B700071E080E80C942718FC0121818081813A62
:102B800059F4213209F05CC047E050E062E171E0A5
:102B900080E00E94271867C0813209F051C02332BB
:102BA00089F4838190E0982F88273281832BA0E0DD
:102BB000B0E080930E0190930F01A0931001B093A9
:102BC00011010FC0203239F467E070E082E191E03A
:102BD0000E9458180AC0223221F482818093190180
:102BE00004C02D7F203209F03EC0809112019091E7
:102BF0001301A0911401B0911501803B9440A105EF
:102C0000B10501F58091190180FD1CC0809100087B
:102C1000909101089093FF0A8093FE0A87E797E757
:102C200090930108809300082BE088E190E00FB6B4
:102C3000F894A895809360000FBE2093600013C0A5
:102C400080E0089588E10FB6F894809360001092B8
:102C500060000FBEA8958091FE0A9091FF0A9093A4
:102C600001088093000881E008952FEF3FEFFC01F9
:102C7000358724870895CF93C09119016AE070E0E9
:102C800080E090E00E942E1381E0C11101C080E03D
:102C9000CF910895109279041092780488EE93E011
:102CA000A0E0B0E080937A0490937B04A0937C042E
:102CB000B0937D048BE192E0909377048093760447
:102CC0008FEF9FEF90938304809382040895615067
:102CD00030F02091F100FC0120830196F8CF289A72
:102CE00084E68093CF0408954091CA045091CB04A8
:102CF0002091C8043091C90442175307B4F490914D
:102D0000E8009570E1F39091E80092FD19C080937E
:102D1000F1008091CA049091CB0401968F7399279A
:102D2000892B19F48EEF8093E8008091CA0490916A
:102D3000CB0401969093CB048093CA0481E008955C
:102D400080E00895CF92DF92FF920F931F93CF936D
:102D5000DF931F92CDB7DEB7082F162F862F880F6F
:102D60008E5F99830E94741683E00E947416F02E81
:102D7000C02E9981D92E8C2D8F19811778F4F601E8
:102D800084910E947416082F80E00E94741680239C
:102D9000FFEFCF1ADF0A8111EECF01C081E00F9063
:102DA000DF91CF911F910F91FF90DF90CF90089509
:102DB0008091D70081608093D70080EA8093D8000B
:102DC00089B5806189BD89B5826089BD09B400FE7D
:102DD000FDCF61E070E080E090E00E942E138091D2
:102DE000D8008F7C80618093D8008091E000807F44
:102DF0008093E00008952FB7FC012083F89467705A
:102E00006093E9000895CF93DF931F92CDB7DEB7AB
:102E1000682FCE0101960E94FB168091F2009981E5
:102E20009FBF0F90DF91CF910895FF920F931F9353
:102E3000CF93DF9300D0CDB7DEB7F62E8A01909105
:102E4000CE04992311F057FF03C08FEF9FEF2BC0E3
:102E5000682FCE0101967A830E94FB168091F200C2
:102E600090E0A8017A81801791070CF4AC01EF2D56
:102E7000F72FF40E84E6FE1639F0289A8093CF04DB
:102E80009091F1009193F7CF4115510521F0809178
:102E9000F200882321F089818FBFCA0104C08BE62C
:102EA0008093E800F8CF0F900F90DF91CF911F91A2
:102EB0000F91FF900895CF93DF931F92CDB7DEB7A8
:102EC00041E050E0BE016F5F7F4F0E9415170197F0
:102ED00019F4898190E002C08FEF9FEF0F90DF918E
:102EE000CF910895CF93DF931F92CDB7DEB7682FB0
:102EF000CE0101960E94FB169091E800892F807206
:102F000095FF04C09091F20080E4891B99819FBFD6
:102F10000F90DF91CF9108956F927F928F929F9241
:102F2000AF92BF92CF92DF92EF92FF920F931F93D7
:102F3000CF93DF931F92CDB7DEB7782E7B01C42EDF
:102F4000B52E8091CE04882369F0042F152F8AEFC7
:102F5000D82E872D8072982E9AE3A92E872D807403
:102F6000882E11C08FEF9FEF57C0872D0E947217D8
:102F7000682E81110CC0DA94A9F361E070E080E062
:102F800090E00E942E130115110579F73BC0282F00
:102F900030E0021713070CF4602E672DCE01019666
:102FA0000E94FB168091E80085FF29C0262D30E0A5
:102FB000021B130B992039F06A948FEF6816B1F059
:102FC0001092F100F9CFF701862D77FE07C08150EE
:102FD00058F094919093F1003196F9CF815020F000
:102FE00091919093F100FACFE20EF31E8091E800E8
:102FF00085FF0FC00115110511F481100AC08981E8
:103000008FBFC1CF5D9A84E68093D0048C2D9B2D19
:1030100003C0A092E800F3CF0F90DF91CF911F91F2
:103020000F91FF90EF90DF90CF90BF90AF909F9067
:103030008F907F906F9008951092E9001092CB04CA
:103040001092CA049093C9048093C8040895CF9243
:10305000DF92FF920F931F93CF93DF9300D0CDB7F2
:10306000DEB7F82E8A016B0101151105B1F0F601EA
:10307000F7FE02C0849101C0808149835A830E9477
:10308000741601501109FFEFCF1ADF0A49815A81E6
:103090008111EACF8FEF9FEF01C0CA010F900F900F
:1030A000DF91CF911F910F91FF90DF90CF90089506
:1030B0001F93CF93DF931F92CDB7DEB7162F2091CA
:1030C000E80022FFFCCF612F79830E9467168BEF07
:1030D0008093E800812F7981972F0F90DF91CF9116
:1030E0001F9108951F920F920FB60F921124DF9235
:1030F000EF92FF920F931F932F933F934F935F9302
:103100006F937F938F939F93AF93BF93EF93FF93AF
:10311000CF93DF93CDB7DEB76297DEBFCDBF1092FE
:10312000E9008091E80083FF11C168E0CE010A96B2
:103130000E94671682EF8093E8008A8587FF05C0AA
:103140009091E80090FFFCCF03C09EEF9093E800C1
:10315000982F907609F0E3C09B854C85DD84911112
:103160000CC0803829F48091CD048093F10002C016
:103170001092F1001092F100E2C0242F30E03D29BE
:10318000913051F48111DBC02130310509F0D7C0F5
:103190008091CD048D7F0BC0933061F48111CFC03D
:1031A0002130310509F0CBC08091CD04826080933D
:1031B000CD04C5C0953041F48091E80080FFFCCF7C
:1031C00040684093E300BBC0963009F07FC0E888B8
:1031D000F98822E0D21239C080E090E00E941C18E9
:1031E00019828E010F5F1F4FC8010E94B115C801DF
:1031F0000E94C21A998189E0F801282F11922A951C
:10320000E9F78983DA8281E08E8380EA88878AEF12
:1032100089872091CA043091CB04275F3F4F3C83BC
:103220002B839D83C7010E941C1849E050E0B80120
:1032300080E00E9427181A8ACE0142960E94B1159A
:10324000CE0142960E94C21A7AC0C7010E941C1881
:103250008D2D0E94E51A009719F00CF070C073C014
:1032600081E0D8120EC088899989089719F481E005
:103270008093C7048091C704811118C060EF71E08A
:103280001AC0E3E0DE125FC08C85882391F08230A3
:1032900021F46DE08EE092E006C0813009F053C069
:1032A0006BE082E092E00E94A21647C06EED71E0F2
:1032B00002C06CE172E06115710509F444C0FB01C4
:1032C000449150E080E80E94271839C09730D9F126
:1032D000983021F481E08093F10031C0993079F584
:1032E000837089F5EBE1F1E081E021E036E3908144
:1032F000992361F08093E9002093EB0091919093E2
:10330000EC003093ED008F5F873089F78EE7809374
:10331000EA001092EA008C858093CE0410C0888960
:1033200099890E941C186E85CE010A96611103C00E
:103330000E94BC1502C00E94081B882321F08EEF5A
:103340008093E80003C081E28093EB0062960FB6A1
:10335000F894DEBF0FBECDBFDF91CF91FF91EF910B
:10336000BF91AF919F918F917F916F915F914F919D
:103370003F912F911F910F91FF90EF90DF900F9051
:103380000FBE0F901F9018958093E9008091F20076
:10339000882319F08AE38093E80008951F920F9222
:1033A0000FB60F9211242F933F934F935F936F9318
:1033B0007F938F939F93AF93BF93CF93EF93FF939D
:1033C000C091E1008091E100837F8093E1008093D0
:1033D000E100C3FF0FC01092E90081E08093EB0091
:1033E0001092EC0082E38093ED001092CE0488E00E
:1033F0008093F000C2FF19C083E00E94C41980913D
:10340000D004882339F08091D00481508093D00477
:10341000882389F18091CF04882339F08091CF04EB
:1034200081508093CF04882341F1C4FF10C0809164
:10343000E2008E7E81608093E2008091E1008F7EC9
:103440008093E1008091CC048E7E806111C0C0FF2A
:1034500016C08091E2008E7E80618093E2008091B0
:10346000E1008E7E8093E1008091CC048E7E8160AD
:103470008093CC0404C05D98CDCF2898D6CFFF911F
:10348000EF91CF91BF91AF919F918F917F916F916C
:103490005F914F913F912F910F900FBE0F901F9012
:1034A00018951092CE041092CD041092CC040E9474
:1034B000D816E1EEF0E080818E7E80838DE08093EF
:1034C000E200559A209A5D98289808954F925F924D
:1034D0006F927F92AF92BF92CF92DF92EF92FF9264
:1034E0000F931F93CF93DF93CDB7DEB729013A0136
:1034F000621B730B840B950B29893A894B895C8974
:103500002A193B094C095D09298B3A8B4B8B5C8B43
:103510009B01AC0169897A898B899C890E94301B47
:10352000E418F50806091709A80197010E946E1B07
:103530002A0D3B1D4C1D5D1DCA01B901DF91CF91C4
:103540001F910F91FF90EF90DF90CF90BF90AF90C1
:103550007F906F905F904F90089508950E9461133F
:103560000E94AD1A86EC94E00E94511A0E94B8099C
:10357000C0E0D0E00E94DB0C2097E1F30E94000045
:10358000F9CF0895FF920F931F93CF93DF938C0190
:10359000C091D104D091D204F12C80E090E0209130
:1035A000D304F21660F4EA81FB810280F381E02DFE
:1035B000C80109950990D881C02DF394F0CFDF910F
:1035C000CF911F910F91FF9008950F931F93CF9369
:1035D000DF93082FC091D104D091D20410E080E095
:1035E00090E02091D304121770F4009761F4EA81FF
:1035F000FB810480F581E02D802F09950990D88109
:10360000C02D1F5FEECFDF91CF911F910F910895D5
:10361000EF92FF920F931F93CF93DF938C01E62ECF
:10362000C091D104D091D204F12C80E09091D304C8
:10363000F91678F481110DC0EA81FB810190F081C7
:10364000E02D6E2DC80109950990D881C02DF39405
:10365000EDCFDF91CF911F910F91FF90EF900895E3
:10366000DB018F939F930E94931BBF91AF91A29F09
:10367000800D911DA39F900DB29F900D1124089570
:10368000991B79E004C0991F961708F0961B881FB4
:103690007A95C9F780950895A1E21A2EAA1BBB1B43
:1036A000FD010DC0AA1FBB1FEE1FFF1FA217B3070E
:1036B000E407F50720F0A21BB30BE40BF50B661F24
:1036C000771F881F991F1A9469F7609570958095E8
:1036D00090959B01AC01BD01CF010895052E97FB8C
:1036E0001EF400940E94851B57FD07D00E944C1BBE
:1036F00007FC03D04EF40C94851B509540953095F3
:1037000021953F4F4F4F5F4F08959095809570954D
:1037100061957F4F8F4F9F4F0895EE0FFF1F0590CC
:10372000F491E02D09940E949E1BA59F900DB49FDB
:10373000900DA49F800D911D11240895A29FB001AA
:10374000B39FC001A39F700D811D1124911DB29FD5
:10375000700D811D1124911D0895CF93DF93823048
:10376000910510F482E090E0E091D604F091D70446
:1037700020E030E0A0E0B0E0309739F140815181A5
:1037800048175907B8F04817590771F48281938197
:10379000109729F013969C938E9312972CC09093B8
:1037A000D7048093D60427C02115310531F0421784
:1037B000530718F0A901DB0101C0EF019A01BD0117
:1037C000DF010280F381E02DD7CF21153105F9F01B
:1037D000281B390B2430310580F48A819B816115C7
:1037E000710521F0FB019383828304C09093D70479
:1037F0008093D604FE01329644C0FE01E20FF31F0F
:103800008193919322503109398328833AC02091C2
:10381000D4043091D504232B41F42091020130913E
:1038200003013093D5042093D404209100013091FA
:1038300001012115310541F42DB73EB74091040136
:1038400050910501241B350BE091D404F091D5046F
:10385000E217F307A0F42E1B3F0B2817390778F067
:10386000AC014E5F5F4F2417350748F04E0F5F1FC6
:103870005093D5044093D4048193919302C0E0E027
:10388000F0E0CF01DF91CF910895CF93DF930097C0
:1038900009F487C0FC01329713821282C091D604CA
:1038A000D091D704209781F420813181280F391FCE
:1038B0008091D4049091D5048217930779F5F09301
:1038C000D504E093D4046DC0DE0120E030E0AE17F3
:1038D000BF0750F412964D915C9113979D014115CD
:1038E000510509F1DA01F3CFB383A28340815181FD
:1038F000840F951F8A179B0771F48D919C911197E6
:10390000840F951F02969183808312968D919C91CE
:103910001397938382832115310529F4F093D704FB
:10392000E093D6043EC0D9011396FC93EE93129710
:103930004D915D91A40FB51FEA17FB0779F48081C3
:103940009181840F951F0296D90111969C938E93B5
:103950008281938113969C938E931297E0E0F0E01E
:103960008A819B81009719F0FE01EC01F9CFCE010D
:10397000029628813981820F931F2091D4043091BF
:10398000D5042817390769F4309729F41092D70421
:103990001092D60402C013821282D093D504C09331
:1039A000D404DF91CF910895FB01DC0141505040D8
:1039B00048F001900D920020C9F701C01D924150BE
:1039C0005040E0F70895FC0181E090E00190061678
:1039D00009F4CF010020D1F701970895FB0151911F
:1039E0005523A9F0BF01DC014D9145174111E1F7C5
:1039F00059F4CD010190002049F04D91401541113D
:103A0000C9F3FB014111EFCF81E090E001970895E8
:043A1000F894FFCF58
:103A14000000D804800001000000FF130001FFFF34
:103A2400FFFF00E100000000000000C180810000F1
:103A3400002E637070004D617820736572766F7329
:103A440020617474616368656400556E6B6E6F7792
:103A54006E2070696E206D6F6465002F55736572FA
:103A6400732F616A6669736865722F6465762F695E
:103A74006E7465726368616E67652D6669726D61E7
:103A840074612F6275696C642F5374616E64617222
:103A9400644669726D6174612F5374616E646172FE
:103AA400644669726D6174612E696E6F00493243B8
:103AB4003A20546F6F206D616E792062797465735A
:103AC400207265636569766564004932433A20541F
:103AD4006F6F206665772062797465732072656301
:103AE40065697665640031302D62697420616464AF
:103AF40072657373696E67206E6F7420737570706E
:103B04006F7274656400746F6F206D616E792071DB
:103B14007565726965730000000000DB0FAE0F83EA
:103B24000F8B0F9E0FAD0F0000000054159B157EE8
:083B3400158E156A157B1500C2
:00000001FF
