:100000000C9420010C9448010C9448010C94480174
:100010000C9448010C9448010C9448010C9448013C
:100020000C9448010C9448010C94011B0C949319F6
:100030000C9448010C9448010C9448010C9448011C
:100040000C9448010C946C0E0C9448010C944801DB
:100050000C9448010C9448010C9448010C94B91379
:100060000C9448010C9448010C9448010C944801EC
:100070000C9448010C9448010C9448010C944801DC
:100080000C9448010C9448010C9448010C944801CC
:100090000C948C120C9448010C9448010C94480167
:1000A0000C9448010C9448010C9448019009B9093A
:1000B0008709C609DE09010AFB09010A010A010ACA
:1000C0001E0AA109B10DCD0DDA0CCD0D550DCD0DCA
:1000D000B80C670CCD0DCD0DCD0DCD0DCD0D6D0B2F
:1000E000CD0D4D0CCD0D9F0C121517151C15261599
:1000F00030157A157A157A153A1544154E15581596
:1001000065157A156D159B159E158D15911597150D
:10011000BF15BF15BF15A215A615AA15B015B415A4
:10012000BF15BA15070605040100080A0B0C0D09D6
:100130000000000200090F0000030401000C000091
:1001400000000000000000000000000000000408A3
:1001500002011040804010204080408008020401CD
:10016000804020100201108010204040040404044C
:10017000040304050202020204030202020206064C
:100180000606060604040202020400000000230022
:10019000260029002C002F00000000002500280068
:1001A0002B002E00310000000000240027002A0050
:1001B0002D003000080B00020202010009040000BB
:1001C00001020200000524001001052401010104C0
:1001D00024020605240600010705810310004009DA
:1001E000040100020A0000000705020240000007A7
:1001F00005830240000012010002EF02014041238A
:1002000037800001010203011201000200000040DA
:100210004123378000010102030141726475696E58
:100220006F204C4C430041726475696E6F204D69BC
:1002300063726F00040309044505C50AA2114E1735
:1002400011241FBECFEFDAE0DEBFCDBF12E0A0E089
:10025000B1E0E4EDFCE302C005900D92A832B107D5
:10026000D9F725E0A8E2B2E001C01D92AC30B20798
:10027000E1F712E0C0E4D2E004C02297FE010E9440
:10028000EF1CC833D107C9F70E94E11B0C94681E0C
:100290000C9400000F931F93CF93DF93EC018B011D
:1002A00088819981DC01ED91FC916F770190F0815B
:1002B000E02D099588819981DC01ED91FC91B801CF
:1002C000660F672F661F770B6F770190F081E02D27
:1002D000DF91CF911F910F910994DC018D919C9139
:1002E000DC01ED91FC910190F081E02D60EF09942B
:1002F000DC018D919C91DC01ED91FC910190F081EC
:10030000E02D67EF0994CF93DF93EC018881998109
:10031000DC01ED91FC910190F081E02D69EF0995F0
:1003200088819981DC01ED91FC910190F081E02DB3
:1003300062E0099588819981DC01ED91FC91019041
:10034000F081E02D65E0DF91CF9109941F93CF9369
:10035000DF93EC018A818823D9F1CE010E946D01DF
:1003600088819981DC01ED91FC910190F081E02D73
:1003700069E7099588819981DC01ED91FC91AB8158
:10038000BC810190F081E02D6C9109958881998163
:10039000DC01ED91FC91AB81BC810190F081E02DFD
:1003A00011966C91099512E08A81181758F4EB8127
:1003B000FC81E10FF11D608170E0CE010E944A01D5
:1003C0001F5FF2CFCE01DF91CF911F910C94780186
:1003D000DF91CF911F910895CF92DF92EF92FF921C
:1003E0000F931F93CF93DF938C01EB01C42ED22E7A
:1003F00061E271E0CE010E944E1E7C016FE270E06E
:10040000CE010E94431E009739F46CE570E0CE01E6
:100410000E94431E009711F0EC012196E114F104B3
:1004200051F4FE0101900020E9F7EC1BEF5FD801C9
:100430001296EC9306C0EC1AFD0AE394E394F801DB
:10044000E282D80113968D919C9114970E94A51D6C
:10045000F801E280F12CC70101960E940D1DD80120
:1004600014969C938E931397FC01EE0DFF1D108242
:10047000FC01C082D18212964C9150E04250510949
:10048000BE010296DF91CF911F910F91FF90EF90E7
:10049000DF90CF900C94341EDC018D919C91DC0197
:1004A000ED91FC910480F581E02D09940F931F9349
:1004B000CF93DF93FC012085213749F0293709F0DC
:1004C00049C0DF91CF911F910F910C94A601FC01BF
:1004D000ED54FF4F0190F081E02D309709F450C0AA
:1004E000DC01A75BBF4F4D915C919A01215031090E
:1004F00037FD9A01B90175956795062F40E050E0E8
:1005000020E030E04E5F5F4F2017A0F4EC01C40FF5
:10051000D51F1F81DC01A20FB31F18961C931897DB
:10052000C885D0E8CD9F1019112418961C932F5F11
:100530003F4FE8CFDC01A60FB11D17962C911797FE
:10054000222311F018961C920896DF91CF911F91EB
:100550000F910994FC01EB54FF4F0190F081E02DC5
:10056000309771F0AC01475F5F4FDC01A75BBF4F75
:100570006C916150822FDF91CF911F910F9109945F
:10058000DF91CF911F910F9108950F931F93CF93F8
:10059000DF93EC018A0188819981DC01ED91FC9166
:1005A0006F70606E0190F081E02D0995B801CE0169
:1005B000DF91CF911F910F910C944A010F931F93DC
:1005C000CF93DF93EC018A0188819981DC01ED9161
:1005D000FC916F7060690190F081E02D0995888130
:1005E0009981DC01ED91FC91602F6F770190F08192
:1005F000E02D099588819981DC01ED91FC91B8018C
:10060000660F672F661F770B0190F081E02DDF9159
:10061000CF911F910F910994CF92DF92EF92FF92A9
:100620000F931F93CF93DF9300D01F92CDB7DEB708
:100630008C01F42E2A833B8369830E946D01D801CB
:100640008D919C91DC01ED91FC910190F081E02D68
:10065000698109952A81E22EC22E3B81D32E8C2DF1
:100660008E198F1540F4F60161916F0170E0C80199
:100670000E944A01F4CFC8010F900F900F90DF91B4
:10068000CF911F910F91FF90EF90DF90CF900C943E
:1006900078019A01613751F4FA0101900020E9F7DD
:1006A0003197E41BF50B4E2F0C940C030895AB010E
:1006B00061E70C944903DC018D919C91DC01ED9183
:1006C000FC910190F081E02D0994603DC1F028F487
:1006D000603969F0603C79F00895643FA1F0653FAE
:1006E000B1F0603EC9F4FC01EB55FF4F13C0FC01B3
:1006F000E955FF4F0FC0FC01E755FF4F0BC0FC0150
:10070000E555FF4F07C0FC01E355FF4F03C0FC0157
:10071000E155FF4F5183408308956F3F29F4FC0159
:10072000EF54FF4F5183408308958B549F4FFC013A
:10073000518340830895860F911DFC01E55BFF4FB7
:1007400080810895860F911DFC01E55BFF4F80813C
:100750008F3709F040830895860F911D860F911DF4
:10076000FC01E759FF4F808191810895860F911D0B
:10077000860F911DFC01E759FF4F51834083089577
:10078000FC0115821682178280E090E0DF01A80F3D
:10079000B91F18961C92019680349105B9F7DF01B4
:1007A000A85BBF4F1C9211961D921C92EF54FF4FF5
:1007B0000190F081E02D309709F009940895FC0133
:1007C000E954FF4F1082FC011282148213820C94B0
:1007D000C003CF93DF93EC01FC01E85BFF4F808106
:1007E0008823A1F0673F31F41082CE01DF91CF91D1
:1007F0000C945602FE01E75BFF4F80819181C80F88
:10080000D91F688701969183808398C08D81882342
:1008100009F452C067FD50C081508D83FE01E80F7E
:10082000F11D608781118AC08E81882309F486C0FA
:10083000803DA1F140F4803981F0803CD9F5FE0182
:10084000E755FF4F2EC0843FC9F0853FD9F0803E69
:1008500089F5FE01EB55FF4F03C0FE01E955FF4F3F
:100860000190F081E02D309729F18885698570E04D
:1008700090E8899F600D711D11241AC0FE01E35597
:10088000FF4F03C0FE01E155FF4F0190F081E02DC5
:10089000309781F0688570E089850BC0FE01E555D1
:1008A000FF4F0190F081E02D309721F0688570E0D6
:1008B0008F8109951E8242C0862F603F28F4807F79
:1008C00090E06F706F8301C090E0803F910549F127
:1008D0007CF4803C910509F124F480399105D9F02C
:1008E0002DC0803D9105C9F0803E9105A1F026C044
:1008F000893F9105E9F03CF49C01245F31092230E5
:10090000310548F01BC08F3F9105C1F4CE01DF9146
:10091000CF910C94C00392E001C091E09D838E833F
:100920000DC081E08083C75BDF4F1982188206C04B
:1009300088E292E0DF91CF910C948301DF91CF9117
:100940000895CF93DF93EC0188819981DC01ED91CB
:10095000FC910680F781E02D09958F3FBFEF9B0743
:1009600031F0682FCE01DF91CF910C94E903DF9134
:10097000CF9108957F928F929F92AF92BF92CF9224
:10098000DF92EF92FF920F931F93CF93DF93762E18
:10099000EA01680110E0EE24D7FCE094FE2C490146
:1009A000AA2497FCA094BA2C212F30E02C173D07E5
:1009B00094F4C701B6010E94321461E0872D0E94B1
:1009C000F915C501B4010E94321460E0872D0E9420
:1009D000F9151F5FE9CFDF91CF911F910F91FF9024
:1009E000EF90DF90CF90BF90AF909F908F907F90CF
:1009F00008950F931F93CF93DF93EC01FC01E9540B
:100A0000FF4F8081811126C061E08DE00E94C015FA
:100A100002ED10E028E230E042E050E06DE0CE016F
:100A20000E94BA046AEF70E080E090E00E94321405
:100A300028E230E045E050E06DE0CE010E94BA04CB
:100A40006DE770E080E090E0DF91CF911F910F9112
:100A50000C943214DF91CF911F910F910895CF9391
:100A6000DF93EC0181EA94E00E94391781EA94E077
:100A700099838883CE010E94F904CE010E948301EC
:100A8000CE01DF91CF910C94A60188E292E00C9404
:100A9000DF030F931F93CF93DF931F92CDB7DEB782
:100AA000182F062F8E31C0F4682F88E292E07983E8
:100AB0000E949B035981813079F4402F612F88E295
:100AC00092E00E94B603602F812F0F90DF91CF91AB
:100AD0001F910F910C94F9150F90DF91CF911F91F9
:100AE0000F9108951F93CF93DF93182FEB018E3151
:100AF00098F5682F88E292E00E949B03833099F07A
:100B0000843051F5E12FF0E0E151FD4F408150E09C
:100B1000CA01880F991F840F951FBE01835F9C4FE8
:100B20000E94091010C0133051F08BEF810F8230FA
:100B300030F087EF810F833010F01D3021F4BE01BB
:100B4000812F0E94EC14AE01612F88E292E0DF91C8
:100B5000CF911F910C94B603DF91CF911F9108950F
:100B6000DF92EF92FF920F931F93CF93DF93062FA5
:100B7000843008F099C0F82EFF0CFF0CFF0C98E0B1
:100B8000F90E9EE19F1510F43EE1F32E182F110F80
:100B9000110F110FC12FD0E0EE24E394CF1538F5DB
:100BA0006C2F88E292E00E949B03813039F06C2F19
:100BB00088E292E00E949B03811116C0DD24D39449
:100BC0008E2D802309F4D12C6C2F88E292E00E94B4
:100BD0009B03813009F051C0DE294D2D50E06C2F70
:100BE00088E292E00E94B603EE0CCF5FD7CFD0FF31
:100BF00005C0602F6170812F0E94F915D1FF06C0DA
:100C0000602F627081E0810F0E94F915D2FF06C04B
:100C1000602F647082E0810F0E94F915D3FF06C037
:100C2000602F687083E0810F0E94F915D4FF06C021
:100C3000602F607184E0810F0E94F915D5FF06C016
:100C4000602F607285E0810F0E94F915D6FF06C003
:100C5000602F607486E0810F0E94F915D7FF24C0D1
:100C6000602F607887E0810FDF91CF911F910F9106
:100C7000FF90EF90DF900C94F9156C2F88E292E0D2
:100C80000E949B038111A9CFDD2009F4A6CF6C2F10
:100C900088E292E00E94AC03019709F49ECF62E0E3
:100CA0008C2F0E94C01599CFDF91CF911F910F918A
:100CB000FF90EF90DF900895CF93C82F8C3058F5B8
:100CC0004091B0035091B10321E030E0082E02C002
:100CD000220F331F0A94E2F7672B49F420953095D1
:100CE000242335233093B1032093B00314C0242B65
:100CF000352B3093B1032093B0038091E002811132
:100D00000AC08C2F0E94BB14AC016C2F88E292E0C9
:100D1000CF910C94C502CF910895DB019A01909177
:100D2000E1029C30D0F54091E202682F70E044234C
:100D300069F0E42FF0E0EE51FD4F8081FB01E151BD
:100D4000FD4F808341504093E20207C0FB01E15117
:100D5000FD4F90839F5F9093E102FB01E151FD4FB6
:100D60001A161B067CF41216130664F4408150E038
:100D7000CA01880F991F840F951FAD01835F9C4F97
:100D80000C94440F208130E0C901880F991F820F15
:100D9000931F835F9C4F0C94C20F66E271E088E260
:100DA00092E00C945703CF93DF93C82FD0E0C1514A
:100DB000DD4F288130E0C901880F991F820F931FF2
:100DC000835F9C4F0E94C80F88819091E102891334
:100DD00006C0882379F081508093E1020BC09923EB
:100DE00049F0E091E202EF5FE093E202F0E0EE51C1
:100DF000FD4F80838FEF8883DF91CF9108951F93FC
:100E0000CF93DF93162FC82FD0E0FE01EC55FC4F97
:100E100090811923C855DC4F411103C09881911767
:100E200041F0412F50E0682F88E292E00E94DE02FC
:100E30001883DF91CF911F910895EF92FF920F9346
:100E40001F93CF93DF93E82E83E08E1508F475C0CF
:100E50002E2D30E0F901E455FC4F6083672B09F437
:100E60006CC0F901EC55FC4FF0800E2D000F000F07
:100E7000000FF0FE52C0802F0E942F16892B09F41C
:100E80004CC011E0C02FD0E0F1FE07C081E0800F20
:100E90000E942F16892B09F042C0F2FE06C082E0A4
:100EA000800F0E942F16892BE1F5F3FE06C083E028
:100EB000800F0E942F16892BB1F5F4FE06C084E046
:100EC000800F0E942F16892B81F5F5FE06C085E064
:100ED000800F0E942F16892B51F5C831D10541F0A2
:100EE000F6FE06C086E0800F0E942F16892B09F5BA
:100EF000679744F4F7FE06C087E0800F0E942F1624
:100F0000892BC9F441E0612F8E2DDF91CF911F9184
:100F10000F91FF90EF900C94FF0610E0B3CF12609A
:100F2000BCCF1460C2CF1860C8CF1061CECF1062A2
:100F3000D4CF1064DDCF1068E5CFDF91CF911F9142
:100F40000F91FF90EF900895CF93DF938091AC03C2
:100F5000882309F448C0D091A403D0FF1DC180E0CC
:100F60000E942F16892B09F417C1C1E0D1FF06C0DA
:100F700081E00E942F16892B09F010C1D2FF06C014
:100F800082E00E942F16892B09F00AC1D3FF06C008
:100F900083E00E942F16892B09F004C1D4FF06C0FC
:100FA00084E00E942F16892B09F0FEC0D5FF06C0F1
:100FB00085E00E942F16892B09F0F8C0D6FF06C0E5
:100FC00086E00E942F16892B09F0F2C0D7FF06C0D9
:100FD00087E00E942F16892B09F0ECC040E06C2FAF
:100FE00080E00E94FF068091AD03882309F448C089
:100FF000D091A503D0FFE0C088E00E942F16892B76
:1010000009F4DAC0C1E0D1FF06C089E00E942F16C2
:10101000892B09F0D3C0D2FF06C08AE00E942F16A8
:10102000892B09F0CDC0D3FF06C08BE00E942F169C
:10103000892B09F0C7C0D4FF06C08CE00E942F1690
:10104000892B09F0C1C0D5FF06C08DE00E942F1684
:10105000892B09F0BBC0D6FF06C08EE00E942F1678
:10106000892B09F0B5C0D7FF06C08FE00E942F166C
:10107000892B09F0AFC040E06C2F81E00E94FF0691
:101080008091AE03882309F448C0D091A603D0FF15
:10109000A3C080E10E942F16892B09F49DC0C1E0F6
:1010A000D1FF06C081E10E942F16892B09F096C05E
:1010B000D2FF06C082E10E942F16892B09F090C052
:1010C000D3FF06C083E10E942F16892B09F08AC046
:1010D000D4FF06C084E10E942F16892B09F084C03A
:1010E000D5FF06C085E10E942F16892B09F07EC02E
:1010F000D6FF06C086E10E942F16892B09F078C022
:10110000D7FF06C087E10E942F16892B09F072C015
:1011100040E06C2F82E00E94FF068091AF0388239D
:1011200009F476C0D091A703D0FF66C088E10E9481
:101130002F16892B09F460C0C1E0D1FF06C089E1F8
:101140000E942F16892B09F059C0D2FF06C08AE1F0
:101150000E942F16892B09F053C0D3FF06C08BE1E4
:101160000E942F16892B09F04DC0D4FF06C08CE1D8
:101170000E942F16892B09F047C0D5FF06C08DE1CC
:101180000E942F16892B09F041C040E06C2F83E0AC
:10119000DF91CF910C94FF06C0E0E8CEC260EECEA6
:1011A000C460F4CEC860FACEC06100CFC06206CF82
:1011B000C0640CCFC06812CFC0E025CFC2602BCF77
:1011C000C46031CFC86037CFC0613DCFC06243CF6C
:1011D000C06449CFC0684FCFC0E062CFC26068CF63
:1011E000C4606ECFC86074CFC0617ACFC06280CF58
:1011F000C06486CFC0688CCFC0E09FCFC260A5CF4F
:10120000C460ABCFC860B1CFC061B7CFC062BDCF43
:10121000DF91CF910895109233038FEF80930A01ED
:1012200008950F931F93CF93DF93182FEB01682F2F
:1012300088E292E00E949B038F3709F4FFC0612F80
:1012400088E292E00E949B03863051F48091330340
:10125000882331F0C630D10509F4ECC00E940B0997
:101260001E31B8F4C430D105A1F0E12FF0E0E15116
:10127000FD4F80818C3068F490E09C01220F331F79
:10128000280F391FC901835F9C4F0E946E10811186
:10129000C2C00EEE010F0C3058F461E070E0C230B5
:1012A000D10511F060E070E0802F0E945C0602C062
:1012B0001E31E8F4E12FE695E695E695812F8770DB
:1012C000F0E0EC55FC4F21E030E0082E01C0220F89
:1012D0000A94EAF7209719F0CB30D10521F48081E8
:1012E000822B808304C0209580812823208340E0C6
:1012F00050E0612F88E292E00E94B603CC30D10525
:1013000008F07FC0FE01EA5AFF4F0C94ED1C0C3030
:1013100008F094C060E0812F0E94C01542E008C030
:101320001E3108F08BC060E0812F0E94C01540E0A4
:10133000612F88E292E0DF91CF911F910F910C9481
:10134000A2031E3108F07AC062E0812F0E94C0150E
:101350004BE0612F88E292E00E94A20341E050E05E
:10136000612F88E292E0DF91CF911F910F910C9451
:10137000B6031E3108F062C060E0812F0E94F915AB
:1013800061E0812F0E94C01541E0D2CF133059F0A7
:101390008BEF810F823038F087EF810F833018F0A8
:1013A0001D3009F04BC061E0812F0E94C01560E044
:1013B00070E0812F0E94EC1443E0BACF1E31F0F5AB
:1013C00044E0612F88E292E00E94A203E12FF0E066
:1013D000E151FD4F80818F3F11F190E09C01220F80
:1013E000331F280F391FC901835F9C4F0E946E1065
:1013F000811124C014C08EEF810F8230F8F446E0D2
:1014000097CF6AE371E088E292E0DF91CF911F917C
:101410000F910C945703812F0E94D3063ACF4FEFC0
:101420005FEF6FEF7FEF812FDF91CF911F910F91D2
:101430000C948D061E3108F418CF2BCFDF91CF917D
:101440001F910F910895CF93C0E08EEF8C0F8230E3
:1014500028F466E070E08C2F0E941109CF5FCE3136
:10146000A1F781E08093330388ED93E0CF910C9452
:1014700014110F931F93CF93DF9381E08093E002C9
:101480008091330381110E940B09ECEAF3E0C4EA76
:10149000D3E0A8EAB3E0119219921D9283E0E03BF9
:1014A000F807C9F7CFEED2E010E00FEF8EEE810F14
:1014B0008C3018F462E070E002C061E070E0812FCF
:1014C0000E94110909931F5F1E3181F71092B10329
:1014D0001092B0031092E2021092E1021092E00228
:1014E000DF91CF911F910F91089525E042E06BE4C9
:1014F00071E088E292E00E94EC0142E755E060EE84
:1015000088E292E00E94650340EB55E060E988E2E2
:1015100092E00E9465034CE556E060EC88E292E0C0
:101520000E9465034DE157E060ED88E292E00E9481
:10153000650341E159E064EF88E292E00E946503AF
:1015400049E455E065EF88E292E00E94650349E5D1
:101550005BE060EF88E292E00E94950349E35AE085
:101560006FEF88E292E00E948D0340E051EE60E070
:1015700070E088E292E00E942F0581EA94E00E94E8
:101580003F178823D1F30C94390ACF93DF93CDE032
:10159000D3E0CE010E94280F239683E0C133D80701
:1015A000C1F7DF91CF910895682F88ED93E00C94F7
:1015B000D51088ED93E00E9485100895AF92BF92F8
:1015C000DF92EF92FF920F931F93CF93DF931F92BF
:1015D000CDB7DEB7F82E5B01D42E6F3F8FEF7807C3
:1015E000C1F06F2D88ED93E029830E941E118A2D92
:1015F0000E94D40A2981622F88ED93E00E9428116D
:101600008091310390913203009729F00E945A147F
:1016100002C0A12CB12C4D2D6F2D88ED93E00E94BE
:101620009C110D2D10E088ED93E00E947D100817AD
:1016300019071CF46DE971E009C088ED93E00E9480
:101640007D108017910734F46AEB71E088E292E034
:101650000E945703F0923403A092350386E3E82EEC
:1016600083E0F82EA12CB12CA016B1069CF042E02C
:101670004D0D24E333E067E788E292E00F90DF91BD
:10168000CF911F910F91FF90EF90DF90BF90AF909F
:101690000C940C0388ED93E00E947D10892B39F3A4
:1016A0000E94D90AF70181937F01FFEFAF1ABF0AA9
:1016B000DBCFEF92FF920F931F93CF93DF93162F01
:1016C000EA0190E0FC01E956F109E231F10508F088
:1016D00064C2EE59FF4F0C94ED1C2981922F987132
:1016E00025FF03C066ED71E05BC0888126FB2227E1
:1016F00020F931E02327983071F148F491114DC25F
:10170000682F88ED93E00E941E1102E007C090311F
:1017100009F440C0983109F472C03FC2011768F45F
:10172000FE01E00FF11D9181808120E8929F8019D8
:1017300011240E94D40A0E5FF1CF88ED93E00E943D
:101740009F1186E490E0DF91CF911F910F91FF9060
:10175000EF900C945A144A816B81163069F430E88A
:10176000639FB0011124640F711D9D814C8130E88D
:10177000939F4019112406C090E8699F40191124D5
:101780006FEF7FEFDF91CF911F910F91FF90EF905F
:101790000C94DE0AE0910A01E73064F066EF71E034
:1017A00088E292E0DF91CF911F910F91FF90EF902F
:1017B0000C9457039A814B8130E8663061F4439F63
:1017C000A0011124490F511D3D819C8160E8369F85
:1017D0009019112405C0439F901911244FEF5FEF1A
:1017E000EF5FE0930A0165E0E602F0011124EC5896
:1017F000FC4F80835283418393832483CEC16091C5
:101800000A0116163CF470E0262F332727FD309589
:1018100095E00FC08FEF80930A01BFC1949FF00144
:10182000959FF00D1124EC58FC4F4081481739F07A
:101830007F5F472F50E02417350784F770E0C5E03D
:10184000872F90E02817390724F1783000F5AC0194
:101850004F5F5F4FC49FD001C59FB00D1124AC589E
:10186000BC4F4C91C89FF001C99FF00D1124EC585A
:10187000FC4F408311968D919C91129792838183A6
:1018800013968C911397838314968C9184837F5F36
:10189000D7CF615060930A0180C12881898130E8E7
:1018A000839FC0011124820F911D009721F0909316
:1018B0003203809331038091330381116EC1DF9134
:1018C000CF911F910F91FF90EF900C94230A6530F8
:1018D00008F463C118810981FA80EB80CC811E3144
:1018E00008F05BC1E12FF0E0E151FD4FE081EC3009
:1018F00060F4F0E0CF01880F991F8E0F9F1F835F68
:101900009C4F0E946E10811144C160E8C69FA001E7
:1019100011244E0D511D80E8F89EB0011124600F76
:10192000711D812F0E948D0664E070E0812FDF9190
:10193000CF911F910F91FF90EF900C94110962309D
:1019400008F42BC12881898130E8839FC0011124CC
:10195000820F911D90930C0180930B01892B09F04C
:101960001CC181E090E090930C0180930B0115C1A4
:10197000623008F412C1698170E0123091F08A81FE
:1019800020E8829FC0011124682B792B133049F085
:101990008B8190E090E4899F902D88271124682BFB
:1019A000792B8881DF91CF911F910F91FF90EF905C
:1019B0000C94720560EF88E292E00E945B036CE693
:1019C00088E292E00E945B03C0E060E088E292E07F
:1019D0000E945B0361E088E292E00E945B036BE09F
:1019E00088E292E00E945B0361E088E292E00E945C
:1019F0005B0361E088E292E00E945B0361E088E2C1
:101A000092E00E945B038EEE8C0F8C3058F462E003
:101A100088E292E00E945B036AE088E292E00E9422
:101A20005B030DC0C33059F463E088E292E00E948A
:101A30005B0368E088E292E00E945B030AC08BEFE0
:101A40008C0F823088F387EF8C0F833068F3CD30B2
:101A500059F364E088E292E00E945B036EE088E262
:101A600092E00E945B038EEF8C0F823050F466E0B0
:101A700088E292E00E945B0361E088E292E00E94CB
:101A80005B036FE788E292E00E945B03CF5FCE3199
:101A900009F09BCF67EF88E292E0DF91CF911F9131
:101AA0000F91FF90EF900C945B03662309F475C0CF
:101AB000C88160EF88E292E00E945B036EE688E2F4
:101AC00092E00E945B036C2F88E292E00E945B032D
:101AD000CE3100F76C2F88E292E00E949B03682FC2
:101AE00088E292E00E945B036C2F88E292E00E9401
:101AF000AC03682F6F7788E292E00E945B036C2F43
:101B000088E292E00E94AC038078892B79F06C2FF8
:101B100088E292E00E94AC03880F892F881F990BFE
:101B2000682F6F7788E292E00E945B036C2F88E257
:101B300092E00E94AC038827907C892B09F4AACFFD
:101B40006C2F88E292E00E94AC03990F880B990FEA
:101B5000982F881F682F6F7788E292E00E945B03BE
:101B600099CF60EF88E292E00E945B036AE688E228
:101B700092E00E945B03CEEECC3010F06FE701C024
:101B80006C2F88E292E00E945B03CF5FCC30A1F71C
:101B900081CF812F0E94D306B8CEDF91CF911F91C4
:101BA0000F91FF90EF9008958F929F92AF92BF9206
:101BB000CF92DF92EF92FF920F931F930E94A407A0
:101BC00088E292E00E944C02892B29F088E292E0A0
:101BD0000E94A104F5CF0E9403146093A0037093A8
:101BE000A1038093A2039093A303C0909C03D09081
:101BF0009D03E0909E03F0909F0340910B01509154
:101C00000C014A01A12CB12C8B019C010C191D095E
:101C10002E093F0980169106A206B30608F051C0AE
:101C2000D501C4018C0D9D1DAE1DBF1D80939C036D
:101C300090939D03A0939E03B0939F031EEE62E1D9
:101C4000610F1C30D8F488E292E00E949B0382303E
:101C5000A9F42091B0033091B103012E02C0359553
:101C600027950A94E2F720FF09C0812F0E94BB1438
:101C7000AC01612F88E292E00E94C5021F5F1C3018
:101C8000F1F680910A0187FD1CC010E005E0812F6C
:101C900090E020910A01332727FD30952817390756
:101CA00084F0089FF001099FF00D1124EC58FC4FBF
:101CB000618172812481438180810E94DE0A1F5FDD
:101CC000E6CF1F910F91FF90EF90DF90CF90BF90E4
:101CD000AF909F908F9008951F920F920FB60F9222
:101CE00011242F933F934F935F936F937F938F9321
:101CF0009F93AF93BF93EF93FF938091B30387FFBD
:101D000005C010928500109284001AC02091B30380
:101D1000332727FD30958091B20390E028173907CB
:101D20007CF48091B303992787FD9095FC01EE0F19
:101D3000FF1FE80FF91FEC54FC4F808186FD15C092
:101D40008091B3038F5F8093B3032091B303332754
:101D500027FD30958091B20390E028173907BCF435
:101D60008091B3038C305CF112C08091B30399274A
:101D700087FD9095FC01EE0FFF1FE80FF91FEC5453
:101D8000FC4F808160E08F730E94F915D9CF80915C
:101D9000840090918500049680349C4918F480E476
:101DA0009CE905C0809184009091850004969093F1
:101DB0008900809388008FEF8093B30338C020910F
:101DC0008400309185008091B303992787FD909519
:101DD000FC01EE0FFF1FE80FF91FEC54FC4F81814F
:101DE0009281820F931F9093890080938800809145
:101DF000B303992787FD9095FC01EE0FFF1FE80FB5
:101E0000F91FEC54FC4F808186FF11C08091B30311
:101E1000992787FD9095FC01EE0FFF1FE80FF91F32
:101E2000EC54FC4F808161E08F730E94F915FF91A3
:101E3000EF91BF91AF919F918F917F916F915F9142
:101E40004F913F912F910F900FBE0F901F901895BB
:101E50002091B2032C30A0F431E0320F3093B20362
:101E6000FC012083822F90E0FC01EE0FFF1FE80FA2
:101E7000F91FEC54FC4F88EB9BE09283818308951B
:101E80002FEFFC0120830895DF92EF92FF920F93D2
:101E90001F93CF93DF93EC01D62E7A0189018881BD
:101EA0008C3008F066C061E08D2D0E94C0158881DD
:101EB000A82FB0E0FD01EE0FFF1FEA0FFB1FEC544F
:101EC000FC4F2D2D2F739081907C922B908360E29C
:101ED00072E06E197F0977FF02C06D5F7F4F7595C5
:101EE000679575956795698340E659E0401B510BEE
:101EF00057FF02C04D5F5F4F5595479555954795E4
:101F00004A836CE00E94A01C9CE0899FB0011124D0
:101F100020E030E0A901460F571FFA01EE0FFF1F26
:101F2000E40FF51FEC54FC4F908196FD16C02F5F17
:101F30003F4F2C30310571F781110FC01092800096
:101F400082E0809381001092850010928400B19A03
:101F500080916F00826080936F00888190E0FC0127
:101F6000EE0FFF1FE80FF91FEC54FC4F80818064D7
:101F700080838881DF91CF911F910F91FF90EF9027
:101F8000DF90089520E639E040E252E00C94440FDF
:101F9000FC01808190E0FC01EE0FFF1FE80FF91FAC
:101FA000EC54FC4F80818F7B80830895FC018081FD
:101FB0008C3070F5918128E830E0291B310997FDBC
:101FC0003395220F331F220F331F621773077CF0E4
:101FD000928128E532E0291B310997FD3395220FC4
:101FE000331F220F331F621773070CF49B0122501B
:101FF0003109220F331F4FB7F89490E0FC01EE0F28
:10200000FF1FE80FF91FEC54FC4F328321834FBFB1
:1020100008954F925F926F927F92AF92BF92CF924C
:10202000DF92EF92FF920F931F93CF93DF93EC0118
:10203000603282E078070CF040C077FD06C0653B57
:1020400071052CF064EB70E002C060E070E0898103
:1020500028E830E0281B310987FD3395220F331F14
:10206000220F331F5901CC24B7FCC094DC2C8827E5
:1020700077FD8095982F2A8148E552E0421B51094F
:1020800027FD5395440F551F440F551F2A01662401
:1020900057FC6094762C7F926F925F924F9214EB74
:1020A000E12EF12C00E010E020E030E0A9010E94D8
:1020B000991B0F900F900F900F90CE01DF91CF9151
:1020C0001F910F91FF90EF90DF90CF90BF90AF9056
:1020D0007F906F905F904F900C94D60FFC018081A1
:1020E00090E0FC01EE0FFF1FE80FF91FEC54FC4FCE
:1020F000808186FB882780F908958091080490E00C
:1021000020910904821B910908952091090480916E
:102110000804281750F4E22FF0E0E65FFB4F8081BF
:1021200090E02F5F2093090408958FEF9FEF0895AB
:10213000E091090480910804E81730F4F0E0E65FCC
:10214000FB4F808190E008958FEF9FEF08950895F1
:10215000CF92DF92EF92FF920F931F93CF93DF9373
:102160007C01CB018A012091E403222389F0EB0159
:102170006B01C40ED51ECC15DD0569F06991D70140
:10218000ED91FC910190F081E02DC7010995F3CF0D
:10219000642F0E946312C801DF91CF911F910F91AC
:1021A000FF90EF90DF90CF900895CF93DF931F9231
:1021B000CDB7DEB769832091E4032223D1F02091CB
:1021C000E503203240F021E030E0FC01338322833C
:1021D00080E090E015C08091E603E82FF0E0E9513F
:1021E000FC4F998190838F5F8093E6038093E50392
:1021F00005C061E0CE0101960E94631281E090E08B
:102200000F90DF91CF910895FC011382128248EE66
:1022100053E060E070E044835583668377838BE00E
:1022200092E091838083089510920904109208042B
:102230001092E6031092E5030C94A61181E08093BE
:10224000E403609307041092E6031092E5030895F7
:102250000F93062F21E04091E50367EE73E0809134
:1022600007040E940C121092E6031092E5031092EC
:10227000E4030F9108958F929F92AF92BF92CF92F5
:10228000DF92EF92FF920F931F93CF93DF93EC01B6
:10229000F62ED42E48015901EE2019F10E941E118C
:1022A0001E2D143008F013E01150B8F0E881F981C8
:1022B00028E0129FB0011124A501940104C0569595
:1022C0004795379527956A95D2F7CA01B9010190CC
:1022D000F081E02DCE010995E7CF60E0CE010E94AC
:1022E00028114D2D413208F040E22C2D6AE074E0B7
:1022F0008F2D0E94C4111092090480930804DF916D
:10230000CF911F910F91FF90EF90DF90CF90BF90F2
:10231000AF909F908F900895CF92EF920F931F935D
:10232000C22EE12C00E010E098010E943B111F91A9
:102330000F91EF90CF90089521E00C948C1161E003
:102340000C94281188ED93E00C94041110929704DA
:1023500081E0809395041092940461E082E00E94F1
:10236000F91561E083E00E94F915E9EBF0E0808166
:102370008E7F808380818D7F808388E48093B80006
:1023800085E48093BC000895413208F043C09091E9
:1023900097049111FCCF91E09093970420939504BA
:1023A0002FEF20932A0410926F04240F20936E04C1
:1023B0009093960490919604880F892B80939604AD
:1023C00080919404813061F4109294048091960479
:1023D0008093BB008091BC0083FDF8CF85EC01C0E9
:1023E00085EE8093BC00809197048130E1F3809169
:1023F0006F04841710F440916F0420E734E0FB0170
:10240000D9018A2F821B841718F48D918193F9CFFB
:10241000842F089580E008950F93413208F04AC058
:10242000909197049111FCCF92E0909397040093C0
:1024300095049FEF90932A0410926F0440936E04CA
:10244000FB0160E774E0DB019A2F961B941718F4E8
:1024500091919D93F9CF1092960490919604880FD4
:10246000892B8093960480919404813061F41092BA
:102470009404809196048093BB008091BC0083FDFE
:10248000F8CF85EC01C085EE8093BC00222321F0BB
:10249000809197048230E1F380912A048F3F61F0AC
:1024A00080912A04803251F080912A04803341F4D3
:1024B00083E007C081E005C080E003C082E001C086
:1024C00084E00F910895613298F4209197042430AC
:1024D00089F460934C04FC018EE494E0DC012A2F23
:1024E000281B261718F421912D93F9CF80E0089529
:1024F00081E0089582E0089585ED8093BC0080918D
:10250000BC0084FDFCCF10929704089585EC809365
:10251000BC001092970408951F920F920FB60F926D
:1025200011242F933F934F935F936F937F938F93D8
:102530009F93AF93BF93EF93FF938091B900887FF0
:10254000803609F49EC078F5883209F45DC090F4B5
:10255000803109F456C038F4882309F4F5C0883076
:1025600009F44FC0F5C0883109F44EC0803209F437
:102570005FC0EEC0803409F46AC058F4803309F4B7
:1025800057C0883309F0E4C080932A040E94861261
:10259000DFC0803509F44FC0883509F45DC0883448
:1025A00009F0D6C0D3C0883909F4C4C0A8F488376C
:1025B00009F467C038F4883609F463C0803709F439
:1025C00060C0C6C0883809F4B5C0803909F45FC05E
:1025D000803809F0BDC05BC0803B09F483C038F48B
:1025E000803A09F466C0883A09F47CC0B1C0803CE6
:1025F00009F4A4C0883C09F4A1C0883B09F487C051
:10260000A7C08091960410C090916F0480916E04D1
:10261000981770F5E0916F0481E08E0F80936F043E
:10262000F0E0E059FB4F80818093BB0085EC83C0D4
:1026300080932A048BC0E0916F0481E08E0F809319
:102640006F048091BB00F0E0E059FB4F80839091D4
:102650006F0480916E046BC0E0916F0481E08E0F77
:1026600080936F048091BB00F0E0E059FB4F8083C2
:102670008091950481116AC081E08093940484EA7A
:102680005EC083E08093970410922B04CFCF80919B
:102690002B04803208F04EC0E0912B0481E08E0FB5
:1026A00080932B048091BB00F0E0E45DFB4F8083BE
:1026B000BDCF0E94861280912B04803230F4E091CD
:1026C0002B04F0E0E45DFB4F108260912B0470E07E
:1026D000E0919004F09191048CE294E009951092BD
:1026E0002B0436C084E08093970410924D0410921E
:1026F0004C04E0919204F0919304099580914C046C
:10270000811105C081E080934C0410924E04E09149
:102710004D0481E08E0F80934D04F0E0E25BFB4FAF
:1027200080818093BB0090914D0480914C04981758
:1027300008F47CCF85E88093BC000AC085EC8093C8
:10274000BC001092970404C010922A040E947C12CC
:10275000FF91EF91BF91AF919F918F917F916F9179
:102760005F914F913F912F910F900FBE0F901F904F
:1027700018951F920F920FB60F9211242F933F932B
:102780008F939F93AF93BF938091990490919A04F4
:10279000A0919B04B0919C043091980423E0230FF6
:1027A0002D3720F40196A11DB11D05C026E8230F89
:1027B0000296A11DB11D20939804809399049093D3
:1027C0009A04A0939B04B0939C0480919D049091E3
:1027D0009E04A0919F04B091A0040196A11DB11D7B
:1027E00080939D0490939E04A0939F04B093A004B3
:1027F000BF91AF919F918F913F912F910F900FBEFD
:102800000F901F9018952FB7F894609199047091CC
:102810009A0480919B0490919C042FBF08953FB728
:10282000F89480919D0490919E04A0919F04B09192
:10283000A00426B5A89B05C02F3F19F00196A11D45
:10284000B11D3FBF6627782F892F9A2F620F711D08
:10285000811D911D42E0660F771F881F991F4A95C1
:10286000D1F70895CF92DF92EF92FF92CF93DF934B
:102870006B017C010E940F14EB01C114D104E1042F
:10288000F10489F00E94F41B0E940F146C1B7D0B55
:10289000683E734090F381E0C81AD108E108F1085E
:1028A000C851DC4FEACFDF91CF91FF90EF90DF90DE
:1028B000CF9008958230910538F0880F991F880FC6
:1028C000991F05970197F1F70895789484B5826070
:1028D00084BD84B5816084BD85B5826085BD85B5C4
:1028E000816085BDEEE6F0E0808181608083E1E873
:1028F000F0E01082808182608083808181608083AB
:10290000E0E8F0E0808181608083E1E9F0E08081AF
:1029100082608083808181608083E0E9F0E0808153
:1029200081608083E1ECF0E080818460808380813D
:1029300082608083808181608083E3ECF0E080812D
:1029400081608083E0ECF0E0808182608083E2EC53
:10295000F0E0808181608083EAE7F0E0808184603C
:102960008083808182608083808181608083808198
:10297000806880830895823108F08251E82FF0E06A
:10298000EC5DFE4FE49180917B00E3FB222720F970
:1029900030E095E0220F331F9A95E1F78F7D822B6F
:1029A00080937B00E77080910D0120E4829FC0013D
:1029B0001124E82BE0937C0080917A00806480935E
:1029C0007A0080917A0086FDFCCF8091780020917A
:1029D000790090E0922B08951F93CF93DF93182FE7
:1029E000EB0161E00E94C015209711F460E004C083
:1029F000CF3FD10539F461E0812FDF91CF911F9155
:102A00000C94F915E12FF0E0E05DFE4F449150E0A9
:102A1000FA013197EF30F10508F06CC0EC58FF4F28
:102A20000C94ED1C84B5806884BDC7BD68C084B5B6
:102A3000806284BDC8BD63C080918000806880933F
:102A40008000D0938900C093880059C08091800095
:102A5000806280938000D0938B00C0938A004FC027
:102A600080918000886080938000D0938D00C09317
:102A70008C0045C080919000806880939000D09336
:102A80009900C09398003BC0809190008062809331
:102A90009000D0939B00C0939A0031C08091900029
:102AA000886080939000D0939D00C0939C0027C0C5
:102AB0008091C00080688093C0008091C0008F7BAF
:102AC0008093C000C093CF001AC08091C000806284
:102AD0008093C000C093D00012C08091C200886073
:102AE0008093C2008091C2008B7F8093C200C0930C
:102AF000D20005C0C038D1050CF07DCF77CFDF9173
:102B0000CF911F91089590E0FC013197EF30F105CE
:102B1000B0F5ED57FF4F0C94ED1C809180008F773E
:102B200003C0809180008F7D809380000895809104
:102B30008000877FF9CF84B58F7702C084B58F7D01
:102B400084BD0895809190008F7707C08091900098
:102B50008F7D03C080919000877F809390000895BF
:102B60008091C0008F7703C08091C0008F7D8093DB
:102B7000C00008958091C200877F8093C2000895AD
:102B8000CF93DF9390E0FC01E25BFE4F2491FC01C8
:102B9000E459FE4F8491882349F190E0880F991FF2
:102BA000FC01EA55FE4FA591B49188569E4FFC0159
:102BB000C591D4919FB7611108C0F8948C9120956C
:102BC00082238C93888182230AC0623051F4F89466
:102BD0008C91322F309583238C938881822B88832C
:102BE00004C0F8948C91822B8C939FBFDF91CF917E
:102BF00008950F931F93CF93DF931F92CDB7DEB746
:102C0000282F30E0F901E05DFE4F8491F901E25B8D
:102C1000FE4F1491F901E459FE4F04910023C9F0CD
:102C2000882321F069830E9483156981E02FF0E0F9
:102C3000EE0FFF1FE856FE4FA591B4919FB7F89491
:102C40008C91611103C01095812301C0812B8C935D
:102C50009FBF0F90DF91CF911F910F910895CF9358
:102C6000DF93282F30E0F901E05DFE4F8491F901F8
:102C7000E25BFE4FD491F901E459FE4FC491CC239D
:102C800091F081110E948315EC2FF0E0EE0FFF1FF1
:102C9000E657FE4FA591B4912C912D2381E090E051
:102CA00021F480E002C080E090E0DF91CF910895B0
:102CB000CF93DF931F92CDB7DEB76983DC01ED912F
:102CC000FC910280F381E02D41E050E0BE016F5F96
:102CD0007F4F09950F90DF91CF910895CF93DF93A8
:102CE000EC018C859D8597FF05C082E00E947C18D1
:102CF0009D878C878C859D85DF91CF91089583E09A
:102D00000C94F71AFC018485958597FD06C082E036
:102D10000E94241890E00196089582E00E942418F1
:102D200090E00895FC018485958597FD05C02FEFFF
:102D30003FEF35872487089582E00C947C18CF9369
:102D4000DF93EC0180911901882331F083E00E9428
:102D5000AD181816190634F081E090E09B838A8341
:102D600080E090E0DF91CF910895FC0120812E5FFB
:102D7000208342E450E064EB71E080E80C94481951
:102D8000FC0121818081813A59F4213209F05CC033
:102D900047E050E062E171E080E00E94481967C0BE
:102DA000813209F051C0233289F4838190E0982F59
:102DB00088273281832BA0E0B0E080930E019093AE
:102DC0000F01A0931001B09311010FC0203239F40C
:102DD00067E070E082E191E00E9479190AC0223236
:102DE00021F482818093190104C02D7F203209F0E3
:102DF0003EC08091120190911301A0911401B091F5
:102E00001501803B9440A105B10501F580911901A0
:102E100080FD1CC080910008909101089093FF0AEA
:102E20008093FE0A87E797E7909301088093000854
:102E30002BE088E190E00FB6F894A89580936000AD
:102E40000FBE2093600013C080E0089588E10FB6A4
:102E5000F89480936000109260000FBEA895809156
:102E6000FE0A9091FF0A909301088093000881E088
:102E700008952FEF3FEFFC01358724870895CF9306
:102E8000C09119016AE070E080E090E00E94321485
:102E900081E0C11101C080E0CF9108951092A40497
:102EA0001092A30488EE93E0A0E0B0E08093A50424
:102EB0009093A604A093A704B093A8048BE192E09A
:102EC0009093A2048093A1048FEF9FEF9093AE04A0
:102ED0008093AD040895615030F02091F100FC0121
:102EE00020830196F8CF289A84E68093FA04089507
:102EF0004091F5045091F6042091F3043091F404CC
:102F000042175307B4F49091E8009570E1F3909163
:102F1000E80092FD19C08093F1008091F504909132
:102F2000F60401968F739927892B19F48EEF8093FD
:102F3000E8008091F5049091F60401969093F604D0
:102F40008093F50481E0089580E00895CF92DF92A8
:102F5000EF92FF920F931F93CF93DF931F92CDB702
:102F6000DEB7082F162FF42E862F880F8E5F9983D9
:102F70000E94781783E00E947817E02EC02E998176
:102F8000D92E8C2D8E19811798F4F601F7FE02C008
:102F9000849101C080810E947817082F80E00E94F0
:102FA00078178023FFEFCF1ADF0A8111EACF01C023
:102FB00081E00F90DF91CF911F910F91FF90EF90E3
:102FC000DF90CF9008958091D70081608093D700E3
:102FD00080EA8093D80089B5806189BD89B5826017
:102FE00089BD09B400FEFDCF61E070E080E090E0B3
:102FF0000E9432148091D8008F7C80618093D80029
:103000008091E000807F8093E0000895CF93DF936C
:103010001F92CDB7DEB71982CE0101960E94B51678
:103020000E947C1CBE016F5F7F4F0E94F51B89814F
:103030000F90DF91CF9108952FB7FC012083F89472
:1030400067706093E9000895CF93DF931F92CDB727
:10305000DEB7682FCE0101960E941C188091F20005
:1030600099819FBF0F90DF91CF910895FF920F93A9
:103070001F93CF93DF9300D0CDB7DEB7F62E8A0132
:103080009091F904992311F057FF03C08FEF9FEF40
:103090002BC0682FCE0101967A830E941C18809164
:1030A000F20090E0A8017A81801791070CF4AC013E
:1030B000EF2DF72FF40E84E6FE1639F0289A809350
:1030C000FA049091F1009193F7CF4115510521F049
:1030D0008091F200882321F089818FBFCA0104C04A
:1030E0008BE68093E800F8CF0F900F90DF91CF919F
:1030F0001F910F91FF900895CF93DF931F92CDB74B
:10310000DEB741E050E0BE016F5F7F4F0E9436188E
:10311000019719F4898190E002C08FEF9FEF0F9023
:10312000DF91CF910895CF93DF931F92CDB7DEB794
:10313000682FCE0101960E941C189091E800892FFB
:10314000807295FF04C09091F20080E4891B998100
:103150009FBF0F90DF91CF9108956F927F928F92D2
:103160009F92AF92BF92CF92DF92EF92FF920F9316
:103170001F93CF93DF931F92CDB7DEB7782E7B01DD
:10318000C42EB52E8091F904882369F0042F152FE1
:103190008AEFD82E872D8072982E9AE3A92E872D3C
:1031A0008074882E11C08FEF9FEF57C0872D0E942B
:1031B0009318682E81110CC0DA94A9F361E070E0D5
:1031C00080E090E00E9432140115110579F73BC0B0
:1031D000282F30E0021713070CF4602E672DCE0164
:1031E00001960E941C188091E80085FF29C0262DB9
:1031F00030E0021B130B992039F06A948FEF6816A8
:10320000B1F01092F100F9CFF701862D77FE07C0DB
:10321000815058F094919093F1003196F9CF8150FC
:1032200020F091919093F100FACFE20EF31E80917D
:10323000E80085FF0FC00115110511F481100AC0C7
:1032400089818FBFC1CF5D9A84E68093FB048C2D6A
:103250009B2D03C0A092E800F3CF0F90DF91CF9198
:103260001F910F91FF90EF90DF90CF90BF90AF90A4
:103270009F908F907F906F9008951092E900109228
:10328000F6041092F5049093F4048093F3040895E7
:10329000CF92DF92FF920F931F93CF93DF9300D0D3
:1032A000CDB7DEB7F82E8A016B0101151105B1F01B
:1032B000F601F7FE02C0849101C0808149835A83E0
:1032C0000E94781701501109FFEFCF1ADF0A4981D8
:1032D0005A818111EACF8FEF9FEF01C0CA010F9091
:1032E0000F90DF91CF911F910F91FF90DF90CF90C2
:1032F00008951F93CF93DF931F92CDB7DEB7162F9C
:103300002091E80022FFFCCF612F79830E946B1788
:103310008BEF8093E800812F7981972F0F90DF91B9
:10332000CF911F9108951F920F920FB60F92112403
:10333000DF92EF92FF920F931F932F933F934F9340
:103340005F936F937F938F939F93AF93BF93EF930D
:10335000FF93CF93DF93CDB7DEB76C97DEBFCDBFC2
:103360001092E9008091E80083FF23C168E0CE015C
:1033700045960E946B1782EF8093E8003D8937FFE6
:1033800005C08091E80080FFFCCF03C08EEF8093E2
:10339000E800832F807609F0F0C02E894F89D88C01
:1033A00021110CC0303829F48091F8048093F10089
:1033B00002C01092F1001092F100F4C0842F90E04E
:1033C0009D29213049F43111EDC0019709F0EAC07F
:1033D0008091F8048D7F0AC0233059F43111E2C086
:1033E000019709F0DFC08091F80482608093F804AF
:1033F000D9C0253041F48091E80080FFFCCF4068BF
:103400004093E300CFC0263009F08DC0EB8CFC8CDC
:1034100022E0D2122CC080E090E00E943D190E9470
:10342000061899E08E010F5F1F4FF801292F1192A6
:103430002A95E9F79983DA8291E09E8390EA98874A
:103440009AEF99872091F5043091F604275F3F4F5A
:103450003C832B838D83C7010E943D1949E050E0D6
:10346000B80180E00E9448190E9406189BC0C7015D
:103470000E943D190E947C1CBE016B5E7F4F0E9422
:103480001E1C009719F00CF08DC090C081E0D8127E
:103490000EC08B8D9C8D089719F481E08093F20407
:1034A0008091F20481112FC068E072E031C0E3E046
:1034B000DE127CC08F89882349F1823029F440E8EC
:1034C0006DE086E292E01CC0813029F440E86BE0B8
:1034D0008AE192E015C0833009F068C00E947C1C2C
:1034E0008E010F5F1F4FB8010E943D1CF801019033
:1034F0000020E9F73197E01BF10B40E06E2FC80187
:103500000E94A6174DC066EF71E002C064E372E04E
:103510006115710509F44AC0FB01449150E080E84F
:103520000E9448193FC0273009F440C0283021F4D8
:1035300081E08093F10036C02930A1F53370B1F5F8
:10354000EBE1F1E081E021E036E39081992361F045
:103550008093E9002093EB0091919093EC003093DD
:10356000ED008F5F873089F78EE78093EA00109235
:10357000EA008F898093F90415C08B8D9C8D0E9481
:103580003D19898D811105C0CE0145960E94C01656
:1035900007C00E947C1CBE016B5E7F4F0E945C1CBA
:1035A000882321F08EEF8093E80003C081E28093AE
:1035B000EB006C960FB6F894DEBF0FBECDBFDF9167
:1035C000CF91FF91EF91BF91AF919F918F917F919B
:1035D0006F915F914F913F912F911F910F91FF90AC
:1035E000EF90DF900F900FBE0F901F901895809373
:1035F000E9008091F200882319F08AE38093E800C3
:1036000008951F920F920FB60F9211242F933F939C
:103610004F935F936F937F938F939F93AF93BF93DA
:10362000CF93EF93FF93C091E1008091E100837FFE
:103630008093E1008093E100C3FF0FC01092E90086
:1036400081E08093EB001092EC0082E38093ED0028
:103650001092F90488E08093F000C2FF19C083E063
:103660000E94F71A8091FB04882339F08091FB04B3
:1036700081508093FB04882389F18091FA04882388
:1036800039F08091FA0481508093FA04882341F143
:10369000C4FF10C08091E2008E7E81608093E200C2
:1036A0008091E1008F7E8093E1008091F7048E7E0F
:1036B000806111C0C0FF16C08091E2008E7E8061E3
:1036C0008093E2008091E1008E7E8093E100809102
:1036D000F7048E7E81608093F70404C05D98CDCF9F
:1036E0002898D6CFFF91EF91CF91BF91AF919F9145
:1036F0008F917F916F915F914F913F912F910F909B
:103700000FBE0F901F9018951092F9041092F804B4
:103710001092F7040E94E317E1EEF0E080818E7EC4
:1037200080838DE08093E200559A209A5D982898D6
:1037300008954F925F926F927F92AF92BF92CF9215
:10374000DF92EF92FF920F931F93CF93DF93CDB74A
:10375000DEB729013A01621B730B840B950B298993
:103760003A894B895C892A193B094C095D09298BE7
:103770003A8B4B8B5C8B9B01AC0169897A898B8975
:103780009C890E94901CE418F50806091709A801F5
:1037900097010E94CE1C2A0D3B1D4C1D5D1DCA01C8
:1037A000B901DF91CF911F910F91FF90EF90DF90C2
:1037B000CF90BF90AF907F906F905F904F900895A3
:1037C00008950E9465140E94E01B81EF94E00E941E
:1037D000841B0E94750AC0E0D0E00E94D40D20979F
:1037E000E1F30E940000F9CF0895EF92FF920F934A
:1037F0001F93CF93DF937B01FC01C281D38100E053
:1038000010E0209781F0E881F9810280F381E02DBA
:10381000B701CE01099597FD08C0080F191F08844C
:10382000D985C02DEECFC80102C08FEF9FEFDF9189
:10383000CF911F910F91FF90EF9008950F931F93D9
:10384000CF93DF938B01FC01C281D381209771F06C
:10385000E881F9810480F581E02DB801CE01099558
:10386000009731F40884D985C02DF0CF80E090E036
:10387000DF91CF911F910F9108950F931F93CF93D5
:10388000DF938B01FC01C281D381209771F0E88125
:10389000F9810680F781E02DB801CE010995080F66
:1038A000111D0884D985C02DF0CFF8011082DF9159
:1038B000CF911F910F9108950F931F93CF93DF9393
:1038C0008B01FC01C281D381209771F0E881F981DD
:1038D0000190F081E02DB801CE010995811106C05B
:1038E0000884D985C02DF0CF80E001C081E0DF9150
:1038F000CF911F910F9108958091000581110DC006
:1039000082E08093FC0484E08093FD041092FF0425
:103910001092FE0481E0809300058CEF94E00895FE
:10392000DB018F939F930E94F31CBF91AF91A29FE5
:10393000800D911DA39F900DB29F900D11240895AD
:10394000991B79E004C0991F961708F0961B881FF1
:103950007A95C9F780950895A1E21A2EAA1BBB1B80
:10396000FD010DC0AA1FBB1FEE1FFF1FA217B3074B
:10397000E407F50720F0A21BB30BE40BF50B661F61
:10398000771F881F991F1A9469F760957095809525
:1039900090959B01AC01BD01CF010895052E97FBC9
:1039A0001EF400940E94E51C57FD07D00E94AC1C39
:1039B00007FC03D04EF40C94E51C509540953095CF
:1039C00021953F4F4F4F5F4F08959095809570958B
:1039D00061957F4F8F4F9F4F0895EE0FFF1F05900A
:1039E000F491E02D09940E94FE1CA59F900DB49FB8
:1039F000900DA49F800D911D11240895A29FB001E8
:103A0000B39FC001A39F700D811D1124911DB29F12
:103A1000700D811D1124911D0895CF93DF93823085
:103A2000910510F482E090E0E0910A05F0910B0519
:103A300020E030E0A0E0B0E0309739F140815181E2
:103A400048175907B8F04817590771F482819381D4
:103A5000109729F013969C938E9312972CC09093F5
:103A60000B0580930A0527C02115310531F0421757
:103A7000530718F0A901DB0101C0EF019A01BD0154
:103A8000DF010280F381E02DD7CF21153105F9F058
:103A9000281B390B2430310580F48A819B81611504
:103AA000710521F0FB019383828304C090930B0581
:103AB00080930A05FE01329644C0FE01E20FF31F17
:103AC0008193919322503109398328833AC0209100
:103AD000080530910905232B41F420910201309112
:103AE00003013093090520930805209100013091CE
:103AF00001012115310541F42DB73EB74091040174
:103B000050910501241B350BE0910805F091090542
:103B1000E217F307A0F42E1B3F0B2817390778F0A4
:103B2000AC014E5F5F4F2417350748F04E0F5F1F03
:103B300050930905409308058193919302C0E0E0FA
:103B4000F0E0CF01DF91CF910895CF93DF930097FD
:103B500009F487C0FC01329713821282C0910A05D2
:103B6000D0910B05209781F420813181280F391FD6
:103B700080910805909109058217930779F5F093D4
:103B80000905E09308056DC0DE0120E030E0AE17C6
:103B9000BF0750F412964D915C9113979D0141150A
:103BA000510509F1DA01F3CFB383A283408151813A
:103BB000840F951F8A179B0771F48D919C91119723
:103BC000840F951F02969183808312968D919C910C
:103BD0001397938382832115310529F4F0930B0504
:103BE000E0930A053EC0D9011396FC93EE93129719
:103BF0004D915D91A40FB51FEA17FB0779F4808101
:103C00009181840F951F0296D90111969C938E93F2
:103C10008281938113969C938E931297E0E0F0E05B
:103C20008A819B81009719F0FE01EC01F9CFCE014A
:103C3000029628813981820F931F209108053091C7
:103C400009052817390769F4309729F410920B05F4
:103C500010920A0502C013821282D0930905C09304
:103C60000805DF91CF910895FB01DC0141505040E0
:103C700048F001900D920020C9F701C01D924150FB
:103C80005040E0F70895FC0181E090E001900616B5
:103C900009F4CF010020D1F701970895FB0151915C
:103CA0005523A9F0BF01DC014D9145174111E1F702
:103CB00059F4CD010190002049F04D91401541117A
:103CC000C9F3FB014111EFCF81E090E00197089526
:043CD000F894FFCF96
:103CD40000000C05800001000000FF130001FFFF3D
:103CE400FFFF00E100000000000000C1808100002F
:103CF400002E637070004D617820736572766F7367
:103D040020617474616368656400556E6B6E6F77CF
:103D14006E2070696E206D6F6465002F5573657237
:103D2400732F616A6669736865722F6465762F699B
:103D34006E7465726368616E67652D6669726D6124
:103D440074612F6275696C642F5374616E6461725F
:103D5400644669726D6174612F5374616E6461723B
:103D6400644669726D6174612E696E6F00493243F5
:103D74003A20546F6F206D616E7920627974657397
:103D8400207265636569766564004932433A20545C
:103D94006F6F20666577206279746573207265633E
:103DA40065697665640031302D62697420616464EC
:103DB40072657373696E67206E6F742073757070AB
:103DC4006F7274656400746F6F206D616E79207119
:103DD4007565726965730000000000D510A8107D38
:103DE4001085109810A7100000000058169F168226
:083DF4001692166E167F1600F0
:00000001FF
