:100000000C9472000C949A000C949A000C949A0030
:100010000C949A000C949A000C949A000C949A00F8
:100020000C949A000C949A000C949A000C94470B30
:100030000C949A000C949A000C949A000C949A00D8
:100040000C948A100C949A000C94CA130C94FC1310
:100050000C949A000C949A000C949A000C949A00B8
:100060000C945F0F0C949A008D0AA90ACB09A90A77
:10007000340AA90AA9095609A90AA90AA90AA90AB2
:10008000A90A6D08A90A3C09A90A900900000008FC
:10009000000201000003040700000000000000004F
:1000A000010204081020408001020408102001020F
:1000B00004081020040404040404040402020202DC
:1000C00002020303030303030000000025002800CD
:1000D0002B0000000000240027002A004E04D20755
:1000E0007D0E2C1411241FBECFEFD8E0DEBFCDBF94
:1000F00012E0A0E0B1E0E2E9FDE202C005900D925D
:10010000A431B107D9F724E0A4E1B2E001C01D9207
:10011000A03EB207E1F710E0C4EED0E004C02297A1
:10012000FE010E944E15CC3DD107C9F70E94DF1495
:100130000C94C7160C9400000F931F93CF93DF937A
:10014000EC018B0188819981DC01ED91FC916F7745
:100150000190F081E02D099588819981DC01ED9174
:10016000FC91B801660F672F661F770B6F770190C0
:10017000F081E02DDF91CF911F910F910994DC0167
:100180008D919C91DC01ED91FC910190F081E02D2D
:1001900060EF0994DC018D919C91DC01ED91FC9163
:1001A0000190F081E02D67EF0994CF93DF93EC018C
:1001B00088819981DC01ED91FC910190F081E02D25
:1001C00069EF099588819981DC01ED91FC9101909D
:1001D000F081E02D62E0099588819981DC01ED9143
:1001E000FC910190F081E02D64E0DF91CF910994C2
:1001F0001F93CF93DF93EC018A818823D9F1CE013D
:100200000E94BF0088819981DC01ED91FC910190F1
:10021000F081E02D69E7099588819981DC01ED91F4
:10022000FC91AB81BC810190F081E02D6C9109952E
:1002300088819981DC01ED91FC91AB81BC810190B9
:10024000F081E02D11966C91099512E08A811817C2
:1002500058F4EB81FC81E10FF11D608170E0CE016B
:100260000E949C001F5FF2CFCE01DF91CF911F91C2
:100270000C94CA00DF91CF911F910895CF92DF9225
:10028000EF92FF920F931F93CF93DF938C01EB01BB
:10029000C42ED22E6EE071E0CE010E94AD167C011C
:1002A0006FE270E0CE010E94A216009739F46CE56F
:1002B00070E0CE010E94A216009711F0EC01219689
:1002C000E114F10451F4FE0101900020E9F7EC1B68
:1002D000EF5FD8011296EC9306C0EC1AFD0AE39486
:1002E000E394F801E282D80113968D919C911497C2
:1002F0000E940416F801E280F12CC70101960E94C9
:100300006C15D80114969C938E931397FC01EE0DF7
:10031000FF1D1082FC01C082D18212964C9150E0E8
:1003200042505109BE010296DF91CF911F910F916A
:10033000FF90EF90DF90CF900C949316DC018D919D
:100340009C91DC01ED91FC910480F581E02D0994F4
:100350000F931F93CF93DF93FC012085213749F042
:10036000293709F049C0DF91CF911F910F910C946B
:10037000F800FC01E95AFF4F0190F081E02D309721
:1003800009F450C0DC01A75BBF4F4D915C919A010D
:100390002150310937FD9A01B90175956795062FEE
:1003A00040E050E020E030E04E5F5F4F2017A0F4C7
:1003B000EC01C40FD51F1F81DC01A20FB31F1896DB
:1003C0001C931897C885D0E8CD9F10191124189652
:1003D0001C932F5F3F4FE8CFDC01A60FB11D17968E
:1003E0002C911797222311F018961C920896DF91F2
:1003F000CF911F910F910994FC01E75AFF4F019093
:10040000F081E02D309771F0AC01475F5F4FDC0168
:10041000A75BBF4F6C916150822FDF91CF911F91ED
:100420000F910994DF91CF911F910F9108950F9330
:100430001F93CF93DF93EC018A0188819981DC01BE
:10044000ED91FC916F70606E0190F081E02D099547
:10045000B801CE01DF91CF911F910F910C949C00B8
:100460000F931F93CF93DF93EC018A0188819981C9
:10047000DC01ED91FC916F7060690190F081E02DDD
:10048000099588819981DC01ED91FC91602F6F774E
:100490000190F081E02D099588819981DC01ED9131
:1004A000FC91B801660F672F661F770B0190F081F2
:1004B000E02DDF91CF911F910F910994CF92DF92A0
:1004C000EF92FF920F931F93CF93DF9300D01F9271
:1004D000CDB7DEB78C01F42E2A833B8369830E945B
:1004E000BF00D8018D919C91DC01ED91FC910190B0
:1004F000F081E02D698109952A81E22EC22E3B818F
:10050000D32E8C2D8E198F1540F4F60161916F0159
:1005100070E0C8010E949C00F4CFC8010F900F90BA
:100520000F90DF91CF911F910F91FF90EF90DF908F
:10053000CF900C94CA009A01FA0101900020E9F7CB
:100540003197E41BF50B4E2F0C945E02AB0161E773
:100550000C949B02DC018D919C91DC01ED91FC914E
:100560000190F081E02D0994603DB9F028F46039E4
:1005700061F0603C71F00895603E19F0643F89F0CD
:100580000895FC01E55BFF4F0FC0FC01E35BFF4FEB
:100590000BC0FC01E15BFF4F07C0FC01EF5AFF4FAE
:1005A00003C0FC01ED5AFF4F5183408308956F3F14
:1005B00029F4FC01EB5AFF4F518340830895875A79
:1005C0009F4FFC01518340830895FC0115821682E0
:1005D000178280E090E0DF01A80FB91F18961C92E7
:1005E000019680349105B9F7DF01A85BBF4F1C92DB
:1005F00011961D921C92EB5AFF4F0190F081E02D55
:10060000309709F009940895FC0112821482138234
:100610000C94E502CF93DF93EC0188819981DC0192
:10062000ED91FC910680F781E02D0995FE01E85BD4
:10063000FF4F20812223B1F0873F910531F41082D2
:10064000CE01DF91CF910C94A801FE01E75BFF4F33
:1006500020813181C20FD31F88872F5F3F4F3183A5
:1006600020839DC02D81222309F45EC0803891052E
:100670000CF05AC09FEF920F9D83FE01E90FF11D10
:10068000808791118CC08E81882309F488C0803DB9
:10069000E9F148F48039E9F0803C09F043C0FE01FB
:1006A000E15BFF4F36C0803E19F0843F19F13AC03C
:1006B000FE01E55BFF4F0190F081E02D309791F155
:1006C0008885698570E0B0E88B9F600D711D1124ED
:1006D00027C0FE01E35BFF4F0190F081E02D3097D2
:1006E00009F18885698570E090E8899F600D711D2A
:1006F000112416C0FE01ED5AFF4F0190F081E02D4C
:10070000309781F0688570E089850BC0FE01EF5A53
:10071000FF4F0190F081E02D309721F0688570E067
:100720008F8109951E823BC0803F91052CF4282FB4
:100730002F702F83807F9927803E910521F154F4FB
:10074000803C910511F1803D9105F9F080399105CA
:1007500031F519C0843F9105B1F054F4803F910503
:10076000F1F481E08083C75BDF4F1982188217C0E4
:10077000893F910571F08F3F910589F4CE01DF919A
:10078000CF910C94E50292E001C091E09D838E83AD
:1007900006C084E192E0DF91CF910C94D500DF9107
:1007A000CF9108958F929F92AF92BF92CF92DF9296
:1007B000EF92FF921F93CF93DF93EB014A01690100
:1007C00061E08DE00E94161210E0EE24D7FCE09468
:1007D000FE2CAA2497FCA094BA2C812F90E08C17B1
:1007E0009D0794F4C701B6010E94031161E08DE0FA
:1007F0000E944F12C501B4010E94031160E08DE018
:100800000E944F121F5FE9CFDF91CF911F91FF90A0
:10081000EF90DF90CF90BF90AF909F908F90089512
:10082000CF93DF93EC0161E08DE00E94161222ED80
:1008300030E048E250E062E070E0CE010E94D20376
:100840006AEF70E080E090E00E94031122ED30E05A
:1008500048E250E064E070E0CE010E94D2036DE710
:1008600070E080E090E0DF91CF910C940311CF9382
:10087000DF93EC0126E08FE394E00E9468138FE39E
:1008800094E099838883CE010E941004CE010E94D7
:10089000D500CE01DF91CF910C94F80084E192E075
:1008A0000C940403833008F062C0482F440F440FB7
:1008B000440F485F473108F046E1582F550F550F58
:1008C000550F90E071E05417E8F42EEF250F223118
:1008D000B0F4E52FF0E0DF01AE5CBC4F2C9122308C
:1008E00070F4972BEE0FFF1FED5FFC4F21E030E01F
:1008F000A72FA62311F420E030E031832083770F67
:100900005F5FE1CF81110AC09C7FF8942BB1892FE2
:10091000809582239623892B8BB928C08130C9F416
:100920006923F89425B1892F8F7380958223262F10
:100930002F73822B85B988B1629566956695637031
:10094000929596959695937090959823692B68B992
:100950000DC09F70F89428B1892F880F880F80955B
:1009600082236923660F660F862B88B978940895D1
:100970000F931F93CF93DF93EB01863180F5082F00
:1009800010E0F801EE5CFC4F90819330A1F09430C0
:1009900031F582508231E0F4F801E258FD4F2081B8
:1009A00030E0C901880F991F820F931F8C569D4F0D
:1009B0000E94E40C0DC0833041F09BEF980F923001
:1009C00020F097EF980F933018F4BE010E948E111B
:1009D000F801EE0FFF1FED5FFC4FD183C083DF9165
:1009E000CF911F910F910895CF93C82F883058F55C
:1009F00040914E0350914F0321E030E0082E02C099
:100A0000220F331F0A94E2F7672B49F420953095A3
:100A10002423352330934F0320934E0314C0242BFB
:100A2000352B30934F0320934E0380916F02811139
:100A30000AC08C2F0E947111AC016C2F84E192E0EE
:100A4000CF910C941702CF910895DB019A019091F8
:100A500070029C30D0F540917102682F70E0442301
:100A600069F0E42FF0E0EF58FD4F8081FB01E25880
:100A7000FD4F808341504093710207C0FB01E25853
:100A8000FD4F90839F5F90937002FB01E258FD4FF2
:100A90001A161B067CF41216130664F4408150E00B
:100AA000CA01880F991F840F951FAD018C569D4F69
:100AB0000C941F0C208130E0C901880F991F820F10
:100AC000931F8C569D4F0C949D0C63E171E084E163
:100AD00092E00C94A602CF93DF93C82FD0E0C258C7
:100AE000DD4F288130E0C901880F991F820F931FC5
:100AF0008C569D4F0E94A30C88819091700289139F
:100B000006C0882379F08150809370020BC099232E
:100B100049F0E0917102EF5FE0937102F0E0EF586D
:100B2000FD4F80838FEF8883DF91CF9108951F93CE
:100B3000CF93DF93162FC82FD0E0FE01E15DFC4F6D
:100B400090811923C85BDC4F411103C09881911734
:100B500041F0412F50E0682F84E192E00E94300282
:100B60001883DF91CF911F910895833020F5282FAE
:100B700030E0F901E55BFC4F6083672BE1F0F901A0
:100B8000E15DFC4F9081811103C069B16C7F0FC0A2
:100B9000813049F463B126B140E4249F90011124CF
:100BA0006F73622B04C066B16C736695669569239A
:100BB00041E00C949705089580914B03882349F0F8
:100BC00069B180912F0368236C7F40E080E00E9430
:100BD000970580914C03882379F063B186B120E4B6
:100BE000829FC00111246F73682B809130036823AA
:100BF00040E081E00E94970580914D03882359F0E1
:100C000066B16C736695669580913103682340E008
:100C100082E00C94970508951092BA028FEF8093AA
:100C20000A010895AF92BF92DF92EF92FF920F9365
:100C30001F93CF93DF9300D0CDB7DEB7D82E5B01E3
:100C4000E82EF12C87010E5C1C4FF80180818F3754
:100C500009F402C1863049F48091BA02882329F050
:100C60006630710511F00E940C064EEF4D0D4231B9
:100C7000C0F484E0A816B104A1F0F701E258FD4FDA
:100C800020812C3070F430E0C901880F991F820F49
:100C9000931F8C569D4F4A830E94490D4A818111B2
:100CA000C3C092EF9D0D983078F461E070E0E2E00F
:100CB000AE16B10411F060E070E0892F4A83998389
:100CC0000E94F40499814A814231D8F4ED2DE695D1
:100CD000E695E6958D2D8770F0E0E15DFC4F21E013
:100CE00030E0082E01C0220F0A94EAF7A114B104E3
:100CF00021F48081822B808304C020958081282369
:100D00002083F701EE0FFF1FED5FFC4F1182108271
:100D1000F2E0AF16B104A1F03CF4A114B104F9F073
:100D2000AA94AB2851F16FC0F4E0AF16B10409F4F6
:100D300048C084F1E6E0AE16B10409F45CC063C0BB
:100D4000983008F089C0423140F460E08D2D0E9457
:100D5000161260E08D2D0E944F1282E051C0423188
:100D600008F07AC060E08D2D0E94161260E08D2D93
:100D70000E944F12F80110826FC0423108F06CC01F
:100D800060E08D2D0E944F1261E08D2D0E941612A1
:100D900081E036C0F3E0DF1649F08BEF8D0D823035
:100DA00028F087EF8D0D833008F056C061E08D2D5F
:100DB0000E94161260E070E08D2D0E948E1183E07B
:100DC0001FC0423108F048C084E0F8018083F70179
:100DD000E258FD4F80818F3F69F190E09C01220F26
:100DE000331F280F391FC9018C569D4F0E94490D92
:100DF000811132C01FC08EEE8D0D823068F586E005
:100E0000F801808329C067E271E084E192E00F90ED
:100E10000F90DF91CF911F910F91FF90EF90DF9096
:100E2000BF90AF900C94A6028D2D4A830E946B0553
:100E30004A8137CF4FEF5FEF6FEF7FEF8D2D0F9030
:100E40000F90DF91CF911F910F91FF90EF90DF9066
:100E5000BF90AF900C9425050F900F90DF91CF912C
:100E60001F910F91FF90EF90DF90BF90AF9008958A
:100E7000CF93C0E08EEE8C0F823028F466E070E0F5
:100E80008C2F0E941206CF5FC631A1F781E08093BC
:100E9000BA0286E793E0CF910C94EF0D0F931F9366
:100EA000CF93DF9381E080936F028091BA0281112A
:100EB0000E940C0610924B0310922F0310924803CD
:100EC00010924C03109230031092490310924D037C
:100ED0001092310310924A03CEE7D2E010E00FEFF8
:100EE00082EF810F883018F462E070E002C061E0A8
:100EF00070E0812F0E94120609931F5F163181F75F
:100F000010924F0310924E031092710210927002D1
:100F100010926F02DF91CF911F910F91089524E0FD
:100F200042E068E371E084E192E00E943E0148EB18
:100F300054E060EE84E192E00E94B40242E554E0A5
:100F400060E984E192E00E94B40244EF54E060EC76
:100F500084E192E00E94B40245EB55E060ED84E14B
:100F600092E00E94B40242E156E064EF84E192E034
:100F70000E94B40249E558E060EF84E192E00E94EB
:100F8000DF024EE457E06FEF84E192E00E94D70267
:100F900040E051EE60E070E084E192E00E943704AE
:100FA0000C944E07CF93DF93C4E9D2E0CE010E94A8
:100FB000030C239682E0C83BD807C1F7DF91CF919D
:100FC0000895682F86E793E00C94B00D86E793E0D0
:100FD0000E94600D0895DF92EF92FF920F931F938E
:100FE000CF93DF93F82EEB01D42E6F3F8FEF78076E
:100FF000A9F06F2D86E793E00E94F90D8C2F0E94D7
:10100000E10786E793E00E947A0E8091B802909102
:10101000B902009729F00E942B1102C0C0E0D0E075
:101020004D2D6F2D86E793E00E94770E0D2D10E079
:1010300086E793E00E94580D081719071CF46AE828
:1010400071E009C086E793E00E94580D8017910770
:1010500034F467EA71E084E192E00E94A602F09223
:10106000BB02C093BC026DEBE62E62E0F62EC0E040
:10107000D0E0C017D10784F042E04D0D2BEB32E0F9
:1010800067E784E192E0DF91CF911F910F91FF908C
:10109000EF90DF900C945E0286E793E00E94580D7B
:1010A000892B51F30E94E607F70181937F01219676
:1010B000E0CFEF92FF920F931F93CF93DF93162F02
:1010C000EA0190E0FC01E956F109E231F10508F08E
:1010D00040C2EC5CFF4F0C944C158981982F98719D
:1010E00085FF03C063EC71E056C08881983071F1D0
:1010F00048F491112EC2682F86E793E00E94F90D03
:1011000002E007C0903109F440C0983109F471C081
:1011100020C2011768F4FE01E00FF11D918180816A
:1011200020E8929F801911240E94E1070E5FF1CF01
:1011300086E793E00E947A0E86E490E0DF91CF91FB
:101140001F910F91FF90EF900C942B114A816B81AE
:10115000163069F430E8639FB0011124640F711DEB
:101160009D814C8150E8959F4019112406C090E85C
:10117000699F401911246FEF7FEFDF91CF911F918D
:101180000F91FF90EF900C94EB07E0910A01E7308C
:1011900064F063EE71E084E192E0DF91CF911F9102
:1011A0000F91FF90EF900C94A6029A812B81F0E8AA
:1011B000663061F42F9F90011124290F311D4D815C
:1011C0009C8150E8459F9019112405C02F9F9019CC
:1011D00011242FEF3FEFEF5FE0930A0144E0E402B8
:1011E000F0011124E552FD4F8083328321839383E4
:1011F000B0C150910A01151634F440E0252F332771
:1012000027FD30950EC08FEF80930A01A2C1EE0F2B
:10121000FF1FEE0FFF1FE552FD4F9081981719F148
:101220004F5FE42FF0E02E173F078CF740E01BC024
:101230004830C0F4DF01AA0FBB1FAA0FBB1FA15289
:10124000BD4F8C91EE0FFF1FEE0FFF1FE552FD4FBC
:10125000808311968D919C9112979283818313962E
:101260008C9183834F5FE42FF0E02E173F0704F744
:10127000515050930A016DC12881898150E8859FA2
:10128000C0011124820F911D009721F09093B902A3
:101290008093B8028091BA0281115BC1DF91CF9136
:1012A0001F910F91FF90EF900C943807653008F470
:1012B00050C118810981FA80EB80CC818EEF810FBB
:1012C000823108F046C1E12FF0E0E258FD4FE081A5
:1012D000EC3060F4F0E0CF01880F991F8E0F9F1F54
:1012E0008C569D4F0E94490D81112FC180E8C89FE7
:1012F000A00111244E0D511D90E8F99EB00111245A
:10130000600F711D812F0E94250564E070E0812F20
:10131000DF91CF911F910F91FF90EF900C941206E7
:10132000623008F416C128818981E0E88E9FC001EF
:101330001124820F911D90930C0180930B010A9749
:1013400008F007C18AE090E090930C0180930B01B4
:1013500000C1623008F4FDC0698170E0123091F084
:101360008A81F0E88F9FC0011124682B792B1330FC
:1013700049F08B8190E090E4899F902D882711247B
:10138000682B792B8881DF91CF911F910F91FF906E
:10139000EF900C94B80460EF84E192E00E94AA02FE
:1013A0006CE684E192E00E94AA02CEEF84EF8C0FFB
:1013B000883058F462E084E192E00E94AA026AE078
:1013C00084E192E00E94AA020DC0C13059F463E0AA
:1013D00084E192E00E94AA0268E084E192E00E9427
:1013E000AA0208C08DEF8C0F823088F389EF8C0F32
:1013F000833068F3C23150F464E084E192E00E94EB
:10140000AA026EE084E192E00E94AA0280EF8C0FB3
:10141000823050F466E084E192E00E94AA0261E02A
:1014200084E192E00E94AA026FE784E192E00E94C8
:10143000AA02CF5FC43169F1C23108F0B7CF60E0D2
:1014400084E192E00E94AA0261E084E192E00E94BD
:10145000AA0261E084E192E00E94AA0261E084E1D4
:1014600092E00E94AA02A2CF662309F472C0C8814A
:1014700060EF84E192E00E94AA026EE684E192E0CD
:101480000E94AA026C2F84E192E00E94AA02C63157
:1014900058F067EF84E192E0DF91CF911F910F91B7
:1014A000FF90EF900C94AA02D0E0FE01EE5CFC4F9E
:1014B000608184E192E00E94AA02CC0FDD1F8E01C0
:1014C0000D5F1C4FF80160816F7784E192E00E940C
:1014D000AA02F80160817181CB018078892B49F0E3
:1014E000660F672F661F770B6F7784E192E00E948B
:1014F000AA02CD5FDC4F68817981CB018827907C7F
:10150000892B39F2770F660B770F762F661F6F776F
:1015100084E192E00E94AA02BCCF60EF84E192E0F5
:101520000E94AA026AE684E192E00E94AA02C2EF47
:10153000C83010F06FE701C06C2F84E192E00E9488
:10154000AA02CF5FC830A1F7A4CF812F0E946B05FC
:10155000CDCEDF91CF911F910F91FF90EF90089525
:101560008F929F92AF92BF92CF92DF92EF92FF92B3
:101570000F931F93CF93DF930E94DC0584E192E0E9
:101580000E949E01892B29F084E192E00E940A03C7
:10159000F5CF0E94D4106093FF02709300038093F4
:1015A000010390930203C090FB02D090FC02E090F4
:1015B000FD02F090FE0240910B0150910C014A0196
:1015C000A12CB12C8B019C010C191D092E093F097E
:1015D00080169106A206B30608F04CC0D501C401DE
:1015E0008C0D9D1DAE1DBF1D8093FB029093FC02D0
:1015F000A093FD02B093FE02C2E3D3E012EF1830D5
:10160000C0F488818230A9F420914E0330914F03B9
:10161000012E02C0359527950A94E2F720FF09C0F4
:10162000812F0E947111AC01612F84E192E00E9430
:1016300017021F5F2196183011F780910A0187FD6C
:1016400019C0C0E0EC2FF0E080910A01992787FDD6
:1016500090958E179F0774F0EE0FFF1FEE0FFF1F80
:10166000E552FD4F61817281438180810E94EB07C9
:10167000CF5FE8CFDF91CF911F910F91FF90EF9057
:10168000DF90CF90BF90AF909F908F9008951F9262
:101690000F920FB60F9211242F933F934F935F93A6
:1016A0006F937F938F939F93AF93BF93EF93FF932A
:1016B0008091510387FF05C010928500109284002D
:1016C0001AC020915103332727FD30958091500394
:1016D00090E0281739077CF480915103992787FD02
:1016E0009095FC01EE0FFF1FE80FF91FEE5AFC4F1B
:1016F000808186FD15C0809151038F5F80935103D7
:1017000020915103332727FD30958091500390E0BD
:1017100028173907BCF4809151038C305CF112C05A
:1017200080915103992787FD9095FC01EE0FFF1FD3
:10173000E80FF91FEE5AFC4F808160E08F730E9422
:101740004F12D9CF80918400909185000496803407
:101750009C4918F480E49CE905C080918400909134
:101760008500049690938900809388008FEF809382
:10177000510338C02091840030918500809151033D
:10178000992787FD9095FC01EE0FFF1FE80FF91FC9
:10179000EE5AFC4F81819281820F931F90938900B2
:1017A0008093880080915103992787FD9095FC01D3
:1017B000EE0FFF1FE80FF91FEE5AFC4F808186FFE6
:1017C00011C080915103992787FD9095FC01EE0F80
:1017D000FF1FE80FF91FEE5AFC4F808161E08F7305
:1017E0000E944F12FF91EF91BF91AF919F918F9106
:1017F0007F916F915F914F913F912F910F900FBE0D
:101800000F901F901895209150032C30A0F431E0D8
:10181000320F30935003FC012083822F90E0FC01B3
:10182000EE0FFF1FE80FF91FEE5AFC4F88EB9BE00D
:101830009283818308952FEFFC0120830895DF9226
:10184000EF92FF920F931F93CF93DF93EC01D62E6D
:101850007A01890188818C3008F066C061E08D2DA5
:101860000E9416128881A82FB0E0FD01EE0FFF1F25
:10187000EA0FFB1FEE5AFC4F2D2D2F739081907CA9
:10188000922B908360E272E06E197F0977FF02C0AD
:101890006D5F7F4F7595679575956795698340E690
:1018A00059E0401B510B57FF02C04D5F5F4F5595EC
:1018B0004795559547954A836CE00E94FF149CE03C
:1018C000899FB001112420E030E0A901460F571F85
:1018D000FA01EE0FFF1FE40FF51FEE5AFC4F908147
:1018E00096FD16C02F5F3F4F2C30310571F78111E7
:1018F0000FC01092800082E08093810010928500DA
:1019000010928400B19A80916F00826080936F0082
:10191000888190E0FC01EE0FFF1FE80FF91FEE5ADF
:10192000FC4F8081806480838881DF91CF911F91FB
:101930000F91FF90EF90DF90089520E639E040E2AC
:1019400052E00C941F0CFC01808190E0FC01EE0F32
:10195000FF1FE80FF91FEE5AFC4F80818F7B8083B9
:101960000895FC0180818C3070F5918128E830E089
:10197000291B310997FD3395220F331F220F331F87
:10198000621773077CF0928128E532E0291B310948
:1019900097FD3395220F331F220F331F62177307F2
:1019A0000CF49B0122503109220F331F4FB7F894DA
:1019B00090E0FC01EE0FFF1FE80FF91FEE5AFC4FFD
:1019C000328321834FBF08954F925F926F927F922F
:1019D000AF92BF92CF92DF92EF92FF920F931F933D
:1019E000CF93DF93EC01603282E078070CF040C0C7
:1019F00077FD06C0653B71052CF064EB70E002C01A
:101A000060E070E0898128E830E0281B310987FD1B
:101A10003395220F331F220F331F5901CC24B7FCFB
:101A2000C094DC2C882777FD8095982F2A8148E583
:101A300052E0421B510927FD5395440F551F440F97
:101A4000551F2A01662457FC6094762C7F926F9272
:101A50005F924F9214EBE12EF12C00E010E020E0B9
:101A600030E0A9010E9497140F900F900F900F90F3
:101A7000CE01DF91CF911F910F91FF90EF90DF90FA
:101A8000CF90BF90AF907F906F905F904F900C94ED
:101A9000B10CFC01808190E0FC01EE0FFF1FE80F0C
:101AA000F91FEE5AFC4F808186FB882780F9089544
:101AB0008091A60390E02091A703821B91090895CD
:101AC0002091A7038091A603281750F4E22FF0E09D
:101AD000E855FC4F808190E02F5F2093A703089585
:101AE0008FEF9FEF0895E091A7038091A603E81779
:101AF00030F4F0E0E855FC4F808190E008958FEFDE
:101B00009FEF08950895CF92DF92EF92FF920F9387
:101B10001F93CF93DF937C01CB018A012091820335
:101B2000222389F0EB016B01C40ED51ECC15DD0517
:101B300069F06991D701ED91FC910190F081E02D60
:101B4000C7010995F3CF642F0E94360FC801DF91BA
:101B5000CF911F910F91FF90EF90DF90CF9008955C
:101B6000CF93DF931F92CDB7DEB7698320918203B5
:101B70002223D1F020918303203240F021E030E095
:101B8000FC013383228380E090E015C080918403C0
:101B9000E82FF0E0EB57FC4F998190838F5F8093A3
:101BA00084038093830305C061E0CE0101960E9407
:101BB000360F81E090E00F90DF91CF910895FC0106
:101BC0001382128248EE53E060E070E04483558354
:101BD0006683778388EF91E09183808308951092E4
:101BE000A7031092A60310928403109283030C940F
:101BF000810E81E0809382036093A5031092840399
:101C00001092830308950F93062F21E040918303E0
:101C100065E873E08091A5030E94E30E10928403AF
:101C200010928303109282030F9108958F929F92D6
:101C3000AF92BF92CF92DF92EF92FF920F931F93DA
:101C4000CF93DF93EC01F62ED42E48015901EE20FC
:101C500019F10E94F90D1E2D143008F013E01150F7
:101C6000B8F0E881F98128E0129FB0011124A501A4
:101C7000940104C056954795379527956A95D2F7F4
:101C8000CA01B9010190F081E02DCE010995E7CF9D
:101C900060E0CE010E94030E4D2D413208F040E27B
:101CA0002C2D68EA73E08F2D0E949F0E1092A703DF
:101CB0008093A603DF91CF911F910F91FF90EF903A
:101CC000DF90CF90BF90AF909F908F900895CF926C
:101CD000EF920F931F93C22EE12C00E010E09801C9
:101CE0000E94160E1F910F91EF90CF90089521E062
:101CF0000C94670E61E00C94030E86E793E00C945D
:101D0000DF0D1092350481E0809333041092320489
:101D100061E082E10E944F1261E083E10E944F1274
:101D2000E9EBF0E080818E7F808380818D7F8083EE
:101D300088E48093B80085E48093BC000895413224
:101D400008F03FC0909135049111FCCF91E0909341
:101D50003504209333042FEF2093C80310920D0411
:101D6000240F20930C049093340490913404880F32
:101D7000892B8093340480913204813041F4109295
:101D80003204809134048093BB0085EC01C085EE61
:101D90008093BC00809135048130E1F380910D0483
:101DA000841710F440910D042EE034E0FB01D901BA
:101DB0008A2F821B841718F48D918193F9CF842F79
:101DC000089580E008950F93413208F046C0909145
:101DD00035049111FCCF92E09093350400933304C5
:101DE0009FEF9093C80310920D0440930C04FB01E5
:101DF0006EE074E0DB019A2F961B941718F4919112
:101E00009D93F9CF1092340490913404880F892B5C
:101E10008093340480913204813041F41092320472
:101E2000809134048093BB0085EC01C085EE8093E3
:101E3000BC00222321F0809135048230E1F38091AF
:101E4000C8038F3F61F08091C803803251F08091C8
:101E5000C803803341F483E007C081E005C080E01F
:101E600003C082E001C084E00F910895613298F4CC
:101E700020913504243089F46093EA03FC018CEE50
:101E800093E0DC012A2F281B261718F421912D93AB
:101E9000F9CF80E0089581E0089582E0089585ED0E
:101EA0008093BC008091BC0084FDFCCF109235046F
:101EB000089585EC8093BC001092350408951F921C
:101EC0000F920FB60F9211242F933F934F935F936E
:101ED0006F937F938F939F93AF93BF93EF93FF93F2
:101EE0008091B900887F803609F49CC068F58832FB
:101EF00009F45BC090F4803109F454C038F48823AD
:101F000009F4F3C0883009F44DC0F3C0883109F4F6
:101F10004CC0803209F45DC0ECC0803409F468C064
:101F200048F4803309F455C0883309F0E2C0809347
:101F3000C803A6C0803509F44FC0883509F45DC0D8
:101F4000883409F0D6C0D3C0883909F4C4C0A8F4D5
:101F5000883709F467C038F4883609F463C08037DD
:101F600009F460C0C6C0883809F4B5C0803909F4E6
:101F70005FC0803809F0BDC05BC0803B09F483C0FE
:101F800038F4803A09F466C0883A09F47CC0B1C0DC
:101F9000803C09F4A4C0883C09F4A1C0883B09F442
:101FA00087C0A7C08091340410C090910D04809127
:101FB0000C04981770F5E0910D0481E08E0F80936A
:101FC0000D04F0E0E25FFB4F80818093BB0085EC65
:101FD00083C08093C8038BC0E0910D0481E08E0F15
:101FE00080930D048091BB00F0E0E25FFB4F8083A3
:101FF00090910D0480910C046BC0E0910D0481E080
:102000008E0F80930D048091BB00F0E0E25FFB4FE8
:1020100080838091330481116AC081E0809332040F
:1020200084EA5EC083E0809335041092C903CFCF69
:102030008091C903803208F04EC0E091C90381E06D
:102040008E0F8093C9038091BB00F0E0E653FC4FF4
:102050008083BDCF8091C903803230F4E091C90301
:10206000F0E0E653FC4F10826091C90370E0E0910C
:102070002E04F0912F048AEC93E009951092C90385
:102080000E94590F36C084E0809335041092EB0310
:102090001092EA03E0913004F091310409958091A7
:1020A000EA03811105C081E08093EA031092EC03FA
:1020B000E091EB0381E08E0F8093EB03F0E0E451BD
:1020C000FC4F80818093BB009091EB038091EA03E9
:1020D000981708F47CCF85E88093BC000AC085EC93
:1020E0008093BC001092350404C01092C8030E9473
:1020F0004F0FFF91EF91BF91AF919F918F917F9182
:102100006F915F914F913F912F910F900FBE0F9064
:102110001F9018951F920F920FB60F9211242F93B4
:102120003F938F939F93AF93BF9380913704909188
:102130003804A0913904B0913A043091360423E078
:10214000230F2D3720F40196A11DB11D05C026E8EF
:10215000230F0296A11DB11D2093360480933704EE
:1021600090933804A0933904B0933A0480913B04CF
:1021700090913C04A0913D04B0913E040196A11DB4
:10218000B11D80933B0490933C04A0933D04B09315
:102190003E04BF91AF919F918F913F912F910F90EE
:1021A0000FBE0F901F9018952FB7F89460913704C9
:1021B000709138048091390490913A042FBF0895AA
:1021C0003FB7F89480913B0490913C04A0913D046A
:1021D000B0913E0426B5A89B05C02F3F19F001968B
:1021E000A11DB11D3FBF6627782F892F9A2F620F3F
:1021F000711D811D911D42E0660F771F881F991F79
:102200004A95D1F70895CF92DF92EF92FF92CF9344
:10221000DF936B017C010E94E010EB01C114D1043B
:10222000E104F10489F00E94EE140E94E0106C1B9E
:102230007D0B683E734090F381E0C81AD108E10835
:10224000F108C851DC4FEACFDF91CF91FF90EF90BA
:10225000DF90CF9008958230910538F0880F991F54
:10226000880F991F05970197F1F70895789484B521
:10227000826084BD84B5816084BD85B5826085BD82
:1022800085B5816085BDEEE6F0E080818160808368
:10229000E1E8F0E01082808182608083808181604B
:1022A0008083E0E8F0E0808181608083E1EBF0E012
:1022B000808184608083E0EBF0E0808181608083B6
:1022C000EAE7F0E08081846080838081826080839F
:1022D0008081816080838081806880831092C100CA
:1022E00008958E3008F08E50877020910D0190E493
:1022F000299F90011124822B80937C0080917A0089
:10230000806480937A0080917A0086FDFCCF809172
:1023100078002091790090E0922B08951F93CF933D
:10232000DF93182FEB0161E00E941612209711F441
:1023300060E004C0CF3FD10539F461E0812FDF9127
:10234000CF911F910C944F12E12FF0E0E457FF4F13
:10235000E491E330F9F048F4E130B9F0E230A1F56E
:1023600084B5806284BDC8BD34C0E730E9F0E83090
:1023700019F1E43049F580918000806280938000FB
:10238000D0938B00C0938A0024C084B5806884BD3C
:10239000C7BD1FC080918000806880938000D0936B
:1023A0008900C093880015C08091B0008068809338
:1023B000B000C093B3000DC08091B00080628093E4
:1023C000B000C093B40005C0C038D1050CF0B5CF43
:1023D000AFCFDF91CF911F910895833081F028F422
:1023E000813099F08230A1F008958730A9F08830CB
:1023F000B9F08430D1F4809180008F7D03C080914A
:1024000080008F7780938000089584B58F7702C015
:1024100084B58F7D84BD08958091B0008F7703C00F
:102420008091B0008F7D8093B0000895CF93DF93AB
:1024300090E0FC01E056FF4F2491FC01EC54FF4F6B
:102440008491882349F190E0880F991FFC01EE5296
:10245000FF4FA591B49188539F4FFC01C591D49132
:102460009FB7611108C0F8948C91209582238C93BA
:10247000888182230AC0623051F4F8948C91322F03
:10248000309583238C938881822B888304C0F894B1
:102490008C91822B8C939FBFDF91CF9108950F93E6
:1024A0001F93CF93DF931F92CDB7DEB7282F30E075
:1024B000F901E457FF4F8491F901E056FF4F149161
:1024C000F901EC54FF4F04910023C9F0882321F057
:1024D00069830E94ED116981E02FF0E0EE0FFF1F8C
:1024E000E853FF4FA591B4919FB7F8948C91611177
:1024F00003C01095812301C0812B8C939FBF0F9047
:10250000DF91CF911F910F910895FC01818D228D54
:1025100090E0805C9F4F821B91098F7399270895EB
:10252000FC01918D828D981731F0828DE80FF11D9D
:10253000858D90E008958FEF9FEF0895FC01918DB8
:10254000828D981761F0828DDF01A80FB11D5D9615
:102550008C91928D9F5F9F73928F90E008958FEF83
:102560009FEF089582E294E1892B49F080E090E0AA
:10257000892B29F00E94221481110C9400000895E7
:10258000FC01848DDF01A80FB11DA35ABF4F2C9110
:10259000848D90E001968F739927848FA689B789DF
:1025A0002C93A089B1898C9180648C93938D848DB8
:1025B000981306C00288F389E02D80818F7D808387
:1025C0000895CF93DF93EC01888D8823C9F0EA89C1
:1025D000FB89808185FD05C0A889B9898C9186FD1C
:1025E0000FC00FB607FCF5CF808185FFF2CFA88919
:1025F000B9898C9185FFEDCFCE010E94C012E7CF43
:10260000DF91CF910895CF92DF92FF920F931F93A6
:10261000CF93DF931F92CDB7DEB76C0181E0D60177
:1026200058968C9358975B969C915B975C968C918F
:102630005C97981307C05096ED91FC91519780815B
:1026400085FD2EC0F601038D10E00F5F1F4F0F7345
:102650001127F02EF601848DF81211C00FB607FC79
:10266000F9CFD6015096ED91FC915197808185FF6D
:10267000F1CFC60169830E94C0126981EBCF838DBF
:10268000E80FF11DE35AFF4F6083D6015B960C9370
:102690005B975296ED91FC915397808180620CC0BC
:1026A000D6015696ED91FC91579760835096ED9127
:1026B000FC91519780818064808381E090E00F904D
:1026C000DF91CF911F910F91FF90DF90CF900895F0
:1026D000BF92CF92DF92EF92FF92CF93DF93EC0104
:1026E0006A017B01B22EE889F98982E08083411575
:1026F00081EE580761057105A1F060E079E08DE396
:1027000090E0A70196010E940B1521503109410963
:1027100051095695479537952795211580E138073A
:1027200098F0E889F989108260E874E88EE190E019
:10273000A70196010E940B15215031094109510949
:102740005695479537952795EC85FD853083EE8521
:10275000FF852083188EEC89FD89B082EA89FB8988
:10276000808180618083EA89FB89808188608083A1
:10277000EA89FB89808180688083EA89FB8980817E
:102780008F7D8083DF91CF91FF90EF90DF90CF908E
:10279000BF9008951F920F920FB60F9211242F939E
:1027A0008F939F93EF93FF93E0914F04F091500428
:1027B0008081E0915504F091560482FD12C0908111
:1027C000809158048F5F8F7320915904821751F0C4
:1027D000E0915804F0E0E15CFB4F958F8093580442
:1027E00001C08081FF91EF919F918F912F910F9068
:1027F0000FBE0F901F9018951F920F920FB60F9259
:1028000011242F933F934F935F936F937F938F93F5
:102810009F93AF93BF93EF93FF938FE394E00E9456
:10282000C012FF91EF91BF91AF919F918F917F91D6
:102830006F915F914F913F912F910F900FBE0F902D
:102840001F9018958FE394E00E94851221E0892B58
:1028500009F420E0822F089510924204109241045E
:1028600088EE93E0A0E0B0E08093430490934404AA
:10287000A0934504B093460488E092E0909340040E
:1028800080933F0485EC90E090934C0480934B043C
:1028900084EC90E090934E0480934D0480EC90E0A3
:1028A0009093500480934F0481EC90E090935204F5
:1028B0008093510482EC90E09093540480935304ED
:1028C00086EC90E09093560480935504109258043F
:1028D0001092590410925A0410925B040895CF92FA
:1028E000DF92EF92FF920F931F93CF93DF937C01C0
:1028F0006A01EB0100E010E00C151D0571F0699113
:10290000D701ED91FC910190F081E02DC70109956F
:10291000892B19F00F5F1F4FEFCFC801DF91CF91C7
:102920001F910F91FF90EF90DF90CF9008954F92FD
:102930005F926F927F92AF92BF92CF92DF92EF92AF
:10294000FF920F931F93CF93DF93CDB7DEB729018B
:102950003A01621B730B840B950B29893A894B89C9
:102960005C892A193B094C095D09298B3A8B4B8BF1
:102970005C8B9B01AC0169897A898B899C890E9457
:10298000EF14E418F50806091709A80197010E9439
:102990002D152A0D3B1D4C1D5D1DCA01B901DF918E
:1029A000CF911F910F91FF90EF90DF90CF90BF904C
:1029B000AF907F906F905F904F90089508950E9420
:1029C00036110E94DE140E948F07C2EBD2E10E94F2
:1029D000B00A2097E1F30E94B212F9CF0895DB010B
:1029E0008F939F930E945215BF91AF91A29F800D2C
:1029F000911DA39F900DB29F900D11240895991BD6
:102A000079E004C0991F961708F0961B881F7A95E5
:102A1000C9F780950895A1E21A2EAA1BBB1BFD01E0
:102A20000DC0AA1FBB1FEE1FFF1FA217B307E407AD
:102A3000F50720F0A21BB30BE40BF50B661F771F05
:102A4000881F991F1A9469F76095709580959095E5
:102A50009B01AC01BD01CF010895052E97FB1EF42B
:102A600000940E94441557FD07D00E940B1507FCE7
:102A700003D04EF40C944415509540953095219513
:102A80003F4F4F4F5F4F089590958095709561959A
:102A90007F4F8F4F9F4F0895EE0FFF1F0590F491CA
:102AA000E02D09940E945D15A59F900DB49F900D97
:102AB000A49F800D911D11240895A29FB001B39F82
:102AC000C001A39F700D811D1124911DB29F700D37
:102AD000811D1124911D0895CF93DF9382309105BC
:102AE00010F482E090E0E091DE04F091DF0420E059
:102AF00030E0A0E0B0E0309739F1408151814817D3
:102B00005907B8F04817590771F4828193811097DB
:102B100029F013969C938E9312972CC09093DF0408
:102B20008093DE0427C02115310531F04217530789
:102B300018F0A901DB0101C0EF019A01BD01DF011D
:102B40000280F381E02DD7CF21153105F9F0281B44
:102B5000390B2430310580F48A819B816115710520
:102B600021F0FB019383828304C09093DF04809360
:102B7000DE04FE01329644C0FE01E20FF31F819392
:102B8000919322503109398328833AC02091DC0483
:102B90003091DD04232B41F4209102013091030197
:102BA0003093DD042093DC04209100013091010179
:102BB0002115310541F42DB73EB7409104015091E4
:102BC0000501241B350BE091DC04F091DD04E217D4
:102BD000F307A0F42E1B3F0B2817390778F0AC0140
:102BE0004E5F5F4F2417350748F04E0F5F1F50931D
:102BF000DD044093DC048193919302C0E0E0F0E0B7
:102C0000CF01DF91CF910895CF93DF93009709F41F
:102C100087C0FC01329713821282C091DE04D091EA
:102C2000DF04209781F420813181280F391F8091A2
:102C3000DC049091DD048217930779F5F093DD04AD
:102C4000E093DC046DC0DE0120E030E0AE17BF078A
:102C500050F412964D915C9113979D0141155105C9
:102C600009F1DA01F3CFB383A28340815181840F4C
:102C7000951F8A179B0771F48D919C911197840F72
:102C8000951F02969183808312968D919C91139744
:102C9000938382832115310529F4F093DF04E093B7
:102CA000DE043EC0D9011396FC93EE9312974D912A
:102CB0005D91A40FB51FEA17FB0779F4808191811C
:102CC000840F951F0296D90111969C938E93828151
:102CD000938113969C938E931297E0E0F0E08A81A3
:102CE0009B81009719F0FE01EC01F9CFCE0102960D
:102CF00028813981820F931F2091DC043091DD04FB
:102D00002817390769F4309729F41092DF041092DC
:102D1000DE0402C013821282D093DD04C093DC046F
:102D2000DF91CF910895FB01DC014150504048F004
:102D300001900D920020C9F701C01D9241505040F2
:102D4000E0F70895FC0181E090E00190061609F497
:102D5000CF010020D1F701970895FB015191552330
:102D6000A9F0BF01DC014D9145174111E1F759F47C
:102D7000CD010190002049F04D9140154111C9F35A
:102D8000FB014111EFCF81E090E001970895F894A5
:022D9000FFCF73
:102D92000000E004800001000000FF1300012E6328
:102DA2007070004D617820736572766F7320617464
:102DB20074616368656400556E6B6E6F776E207028
:102DC200696E206D6F6465002F55736572732F6194
:102DD2006A6669736865722F6465762F696E7465B9
:102DE200726368616E67652D6669726D6174612FC9
:102DF2006275696C642F5374616E646172644669B2
:102E0200726D6174612F5374616E6461726446699C
:102E1200726D6174612E696E6F004932433A2054BB
:102E22006F6F206D616E79206279746573207265AF
:102E3200636569766564004932433A20546F6F20B6
:102E42006665772062797465732072656365697659
:102E520065640031302D6269742061646472657347
:102E620073696E67206E6F7420737570706F727401
:102E7200656400746F6F206D616E79207175657283
:102E82006965730000000000B00D830D580D600DE0
:102E9200730D820D0000000003136F1485129E1241
:042EA2009012E11297
:00000001FF
